{
	"Stake.sol": {
		"Staking": {
			"abi": [
				{
					"inputs": [
						{
							"internalType": "contract IERC20",
							"name": "_stakingToken",
							"type": "address"
						},
						{
							"internalType": "uint256",
							"name": "_rewardRate",
							"type": "uint256"
						}
					],
					"stateMutability": "nonpayable",
					"type": "constructor"
				},
				{
					"inputs": [
						{
							"internalType": "address",
							"name": "_user",
							"type": "address"
						}
					],
					"name": "calculateReward",
					"outputs": [
						{
							"internalType": "uint256",
							"name": "",
							"type": "uint256"
						}
					],
					"stateMutability": "view",
					"type": "function"
				},
				{
					"inputs": [],
					"name": "claimReward",
					"outputs": [],
					"stateMutability": "nonpayable",
					"type": "function"
				},
				{
					"inputs": [],
					"name": "lastUpdateTime",
					"outputs": [
						{
							"internalType": "uint256",
							"name": "",
							"type": "uint256"
						}
					],
					"stateMutability": "view",
					"type": "function"
				},
				{
					"inputs": [],
					"name": "rewardRate",
					"outputs": [
						{
							"internalType": "uint256",
							"name": "",
							"type": "uint256"
						}
					],
					"stateMutability": "view",
					"type": "function"
				},
				{
					"inputs": [
						{
							"internalType": "address",
							"name": "",
							"type": "address"
						}
					],
					"name": "rewards",
					"outputs": [
						{
							"internalType": "uint256",
							"name": "",
							"type": "uint256"
						}
					],
					"stateMutability": "view",
					"type": "function"
				},
				{
					"inputs": [
						{
							"internalType": "uint256",
							"name": "_amount",
							"type": "uint256"
						}
					],
					"name": "stake",
					"outputs": [],
					"stateMutability": "nonpayable",
					"type": "function"
				},
				{
					"inputs": [
						{
							"internalType": "address",
							"name": "",
							"type": "address"
						}
					],
					"name": "stakes",
					"outputs": [
						{
							"internalType": "uint256",
							"name": "amount",
							"type": "uint256"
						},
						{
							"internalType": "uint256",
							"name": "rewardDebt",
							"type": "uint256"
						},
						{
							"internalType": "uint256",
							"name": "lastStakedTime",
							"type": "uint256"
						}
					],
					"stateMutability": "view",
					"type": "function"
				},
				{
					"inputs": [],
					"name": "stakingToken",
					"outputs": [
						{
							"internalType": "contract IERC20",
							"name": "",
							"type": "address"
						}
					],
					"stateMutability": "view",
					"type": "function"
				},
				{
					"inputs": [],
					"name": "totalStaked",
					"outputs": [
						{
							"internalType": "uint256",
							"name": "",
							"type": "uint256"
						}
					],
					"stateMutability": "view",
					"type": "function"
				},
				{
					"inputs": [
						{
							"internalType": "uint256",
							"name": "_amount",
							"type": "uint256"
						}
					],
					"name": "withdraw",
					"outputs": [],
					"stateMutability": "nonpayable",
					"type": "function"
				}
			],
			"devdoc": {
				"kind": "dev",
				"methods": {},
				"version": 1
			},
			"evm": {
				"assembly": "    /* \"Stake.sol\":115:2411  contract Staking {... */\n  mstore(0x40, 0x80)\n    /* \"Stake.sol\":494:628  constructor(IERC20 _stakingToken, uint256 _rewardRate) {... */\n  callvalue\n  dup1\n  iszero\n  tag_1\n  jumpi\n  0x00\n  dup1\n  revert\ntag_1:\n  pop\n  mload(0x40)\n  sub(codesize, bytecodeSize)\n  dup1\n  bytecodeSize\n  dup4\n  codecopy\n  dup2\n  dup2\n  add\n  0x40\n  mstore\n  dup2\n  add\n  swap1\n  tag_2\n  swap2\n  swap1\n  tag_3\n  jump\t// in\ntag_2:\n    /* \"Stake.sol\":574:587  _stakingToken */\n  dup2\n    /* \"Stake.sol\":559:571  stakingToken */\n  0x00\n  dup1\n    /* \"Stake.sol\":559:587  stakingToken = _stakingToken */\n  0x0100\n  exp\n  dup2\n  sload\n  dup2\n  0xffffffffffffffffffffffffffffffffffffffff\n  mul\n  not\n  and\n  swap1\n  dup4\n  0xffffffffffffffffffffffffffffffffffffffff\n  and\n  mul\n  or\n  swap1\n  sstore\n  pop\n    /* \"Stake.sol\":610:621  _rewardRate */\n  dup1\n    /* \"Stake.sol\":597:607  rewardRate */\n  0x01\n    /* \"Stake.sol\":597:621  rewardRate = _rewardRate */\n  dup2\n  swap1\n  sstore\n  pop\n    /* \"Stake.sol\":494:628  constructor(IERC20 _stakingToken, uint256 _rewardRate) {... */\n  pop\n  pop\n    /* \"Stake.sol\":115:2411  contract Staking {... */\n  jump(tag_6)\n    /* \"#utility.yul\":88:205   */\ntag_8:\n    /* \"#utility.yul\":197:198   */\n  0x00\n    /* \"#utility.yul\":194:195   */\n  dup1\n    /* \"#utility.yul\":187:199   */\n  revert\n    /* \"#utility.yul\":334:460   */\ntag_10:\n    /* \"#utility.yul\":371:378   */\n  0x00\n    /* \"#utility.yul\":411:453   */\n  0xffffffffffffffffffffffffffffffffffffffff\n    /* \"#utility.yul\":404:409   */\n  dup3\n    /* \"#utility.yul\":400:454   */\n  and\n    /* \"#utility.yul\":389:454   */\n  swap1\n  pop\n    /* \"#utility.yul\":334:460   */\n  swap2\n  swap1\n  pop\n  jump\t// out\n    /* \"#utility.yul\":466:562   */\ntag_11:\n    /* \"#utility.yul\":503:510   */\n  0x00\n    /* \"#utility.yul\":532:556   */\n  tag_24\n    /* \"#utility.yul\":550:555   */\n  dup3\n    /* \"#utility.yul\":532:556   */\n  tag_10\n  jump\t// in\ntag_24:\n    /* \"#utility.yul\":521:556   */\n  swap1\n  pop\n    /* \"#utility.yul\":466:562   */\n  swap2\n  swap1\n  pop\n  jump\t// out\n    /* \"#utility.yul\":568:677   */\ntag_12:\n    /* \"#utility.yul\":618:625   */\n  0x00\n    /* \"#utility.yul\":647:671   */\n  tag_26\n    /* \"#utility.yul\":665:670   */\n  dup3\n    /* \"#utility.yul\":647:671   */\n  tag_11\n  jump\t// in\ntag_26:\n    /* \"#utility.yul\":636:671   */\n  swap1\n  pop\n    /* \"#utility.yul\":568:677   */\n  swap2\n  swap1\n  pop\n  jump\t// out\n    /* \"#utility.yul\":683:831   */\ntag_13:\n    /* \"#utility.yul\":769:806   */\n  tag_28\n    /* \"#utility.yul\":800:805   */\n  dup2\n    /* \"#utility.yul\":769:806   */\n  tag_12\n  jump\t// in\ntag_28:\n    /* \"#utility.yul\":762:767   */\n  dup2\n    /* \"#utility.yul\":759:807   */\n  eq\n    /* \"#utility.yul\":749:825   */\n  tag_29\n  jumpi\n    /* \"#utility.yul\":821:822   */\n  0x00\n    /* \"#utility.yul\":818:819   */\n  dup1\n    /* \"#utility.yul\":811:823   */\n  revert\n    /* \"#utility.yul\":749:825   */\ntag_29:\n    /* \"#utility.yul\":683:831   */\n  pop\n  jump\t// out\n    /* \"#utility.yul\":837:1006   */\ntag_14:\n    /* \"#utility.yul\":907:912   */\n  0x00\n    /* \"#utility.yul\":938:944   */\n  dup2\n    /* \"#utility.yul\":932:945   */\n  mload\n    /* \"#utility.yul\":923:945   */\n  swap1\n  pop\n    /* \"#utility.yul\":954:1000   */\n  tag_31\n    /* \"#utility.yul\":994:999   */\n  dup2\n    /* \"#utility.yul\":954:1000   */\n  tag_13\n  jump\t// in\ntag_31:\n    /* \"#utility.yul\":837:1006   */\n  swap3\n  swap2\n  pop\n  pop\n  jump\t// out\n    /* \"#utility.yul\":1012:1089   */\ntag_15:\n    /* \"#utility.yul\":1049:1056   */\n  0x00\n    /* \"#utility.yul\":1078:1083   */\n  dup2\n    /* \"#utility.yul\":1067:1083   */\n  swap1\n  pop\n    /* \"#utility.yul\":1012:1089   */\n  swap2\n  swap1\n  pop\n  jump\t// out\n    /* \"#utility.yul\":1095:1217   */\ntag_16:\n    /* \"#utility.yul\":1168:1192   */\n  tag_34\n    /* \"#utility.yul\":1186:1191   */\n  dup2\n    /* \"#utility.yul\":1168:1192   */\n  tag_15\n  jump\t// in\ntag_34:\n    /* \"#utility.yul\":1161:1166   */\n  dup2\n    /* \"#utility.yul\":1158:1193   */\n  eq\n    /* \"#utility.yul\":1148:1211   */\n  tag_35\n  jumpi\n    /* \"#utility.yul\":1207:1208   */\n  0x00\n    /* \"#utility.yul\":1204:1205   */\n  dup1\n    /* \"#utility.yul\":1197:1209   */\n  revert\n    /* \"#utility.yul\":1148:1211   */\ntag_35:\n    /* \"#utility.yul\":1095:1217   */\n  pop\n  jump\t// out\n    /* \"#utility.yul\":1223:1366   */\ntag_17:\n    /* \"#utility.yul\":1280:1285   */\n  0x00\n    /* \"#utility.yul\":1311:1317   */\n  dup2\n    /* \"#utility.yul\":1305:1318   */\n  mload\n    /* \"#utility.yul\":1296:1318   */\n  swap1\n  pop\n    /* \"#utility.yul\":1327:1360   */\n  tag_37\n    /* \"#utility.yul\":1354:1359   */\n  dup2\n    /* \"#utility.yul\":1327:1360   */\n  tag_16\n  jump\t// in\ntag_37:\n    /* \"#utility.yul\":1223:1366   */\n  swap3\n  swap2\n  pop\n  pop\n  jump\t// out\n    /* \"#utility.yul\":1372:1905   */\ntag_3:\n    /* \"#utility.yul\":1464:1470   */\n  0x00\n    /* \"#utility.yul\":1472:1478   */\n  dup1\n    /* \"#utility.yul\":1521:1523   */\n  0x40\n    /* \"#utility.yul\":1509:1518   */\n  dup4\n    /* \"#utility.yul\":1500:1507   */\n  dup6\n    /* \"#utility.yul\":1496:1519   */\n  sub\n    /* \"#utility.yul\":1492:1524   */\n  slt\n    /* \"#utility.yul\":1489:1608   */\n  iszero\n  tag_39\n  jumpi\n    /* \"#utility.yul\":1527:1606   */\n  tag_40\n  tag_8\n  jump\t// in\ntag_40:\n    /* \"#utility.yul\":1489:1608   */\ntag_39:\n    /* \"#utility.yul\":1647:1648   */\n  0x00\n    /* \"#utility.yul\":1672:1749   */\n  tag_41\n    /* \"#utility.yul\":1741:1748   */\n  dup6\n    /* \"#utility.yul\":1732:1738   */\n  dup3\n    /* \"#utility.yul\":1721:1730   */\n  dup7\n    /* \"#utility.yul\":1717:1739   */\n  add\n    /* \"#utility.yul\":1672:1749   */\n  tag_14\n  jump\t// in\ntag_41:\n    /* \"#utility.yul\":1662:1749   */\n  swap3\n  pop\n    /* \"#utility.yul\":1618:1759   */\n  pop\n    /* \"#utility.yul\":1798:1800   */\n  0x20\n    /* \"#utility.yul\":1824:1888   */\n  tag_42\n    /* \"#utility.yul\":1880:1887   */\n  dup6\n    /* \"#utility.yul\":1871:1877   */\n  dup3\n    /* \"#utility.yul\":1860:1869   */\n  dup7\n    /* \"#utility.yul\":1856:1878   */\n  add\n    /* \"#utility.yul\":1824:1888   */\n  tag_17\n  jump\t// in\ntag_42:\n    /* \"#utility.yul\":1814:1888   */\n  swap2\n  pop\n    /* \"#utility.yul\":1769:1898   */\n  pop\n    /* \"#utility.yul\":1372:1905   */\n  swap3\n  pop\n  swap3\n  swap1\n  pop\n  jump\t// out\n    /* \"Stake.sol\":115:2411  contract Staking {... */\ntag_6:\n  dataSize(sub_0)\n  dup1\n  dataOffset(sub_0)\n  0x00\n  codecopy\n  0x00\n  return\nstop\n\nsub_0: assembly {\n        /* \"Stake.sol\":115:2411  contract Staking {... */\n      mstore(0x40, 0x80)\n      callvalue\n      dup1\n      iszero\n      tag_1\n      jumpi\n      0x00\n      dup1\n      revert\n    tag_1:\n      pop\n      jumpi(tag_2, lt(calldatasize, 0x04))\n      shr(0xe0, calldataload(0x00))\n      dup1\n      0x817b1cd2\n      gt\n      tag_13\n      jumpi\n      dup1\n      0x817b1cd2\n      eq\n      tag_8\n      jumpi\n      dup1\n      0xa694fc3a\n      eq\n      tag_9\n      jumpi\n      dup1\n      0xb88a802f\n      eq\n      tag_10\n      jumpi\n      dup1\n      0xc8f33c91\n      eq\n      tag_11\n      jumpi\n      dup1\n      0xd82e3962\n      eq\n      tag_12\n      jumpi\n      jump(tag_2)\n    tag_13:\n      dup1\n      0x0700037d\n      eq\n      tag_3\n      jumpi\n      dup1\n      0x16934fc4\n      eq\n      tag_4\n      jumpi\n      dup1\n      0x2e1a7d4d\n      eq\n      tag_5\n      jumpi\n      dup1\n      0x72f702f3\n      eq\n      tag_6\n      jumpi\n      dup1\n      0x7b0a47ee\n      eq\n      tag_7\n      jumpi\n    tag_2:\n      0x00\n      dup1\n      revert\n        /* \"Stake.sol\":445:487  mapping(address => uint256) public rewards */\n    tag_3:\n      tag_14\n      0x04\n      dup1\n      calldatasize\n      sub\n      dup2\n      add\n      swap1\n      tag_15\n      swap2\n      swap1\n      tag_16\n      jump\t// in\n    tag_15:\n      tag_17\n      jump\t// in\n    tag_14:\n      mload(0x40)\n      tag_18\n      swap2\n      swap1\n      tag_19\n      jump\t// in\n    tag_18:\n      mload(0x40)\n      dup1\n      swap2\n      sub\n      swap1\n      return\n        /* \"Stake.sol\":400:439  mapping(address => Stake) public stakes */\n    tag_4:\n      tag_20\n      0x04\n      dup1\n      calldatasize\n      sub\n      dup2\n      add\n      swap1\n      tag_21\n      swap2\n      swap1\n      tag_16\n      jump\t// in\n    tag_21:\n      tag_22\n      jump\t// in\n    tag_20:\n      mload(0x40)\n      tag_23\n      swap4\n      swap3\n      swap2\n      swap1\n      tag_24\n      jump\t// in\n    tag_23:\n      mload(0x40)\n      dup1\n      swap2\n      sub\n      swap1\n      return\n        /* \"Stake.sol\":1116:1508  function withdraw(uint256 _amount) external {... */\n    tag_5:\n      tag_25\n      0x04\n      dup1\n      calldatasize\n      sub\n      dup2\n      add\n      swap1\n      tag_26\n      swap2\n      swap1\n      tag_27\n      jump\t// in\n    tag_26:\n      tag_28\n      jump\t// in\n    tag_25:\n      stop\n        /* \"Stake.sol\":138:164  IERC20 public stakingToken */\n    tag_6:\n      tag_29\n      tag_30\n      jump\t// in\n    tag_29:\n      mload(0x40)\n      tag_31\n      swap2\n      swap1\n      tag_32\n      jump\t// in\n    tag_31:\n      mload(0x40)\n      dup1\n      swap2\n      sub\n      swap1\n      return\n        /* \"Stake.sol\":170:195  uint256 public rewardRate */\n    tag_7:\n      tag_33\n      tag_34\n      jump\t// in\n    tag_33:\n      mload(0x40)\n      tag_35\n      swap2\n      swap1\n      tag_19\n      jump\t// in\n    tag_35:\n      mload(0x40)\n      dup1\n      swap2\n      sub\n      swap1\n      return\n        /* \"Stake.sol\":222:248  uint256 public totalStaked */\n    tag_8:\n      tag_36\n      tag_37\n      jump\t// in\n    tag_36:\n      mload(0x40)\n      tag_38\n      swap2\n      swap1\n      tag_19\n      jump\t// in\n    tag_38:\n      mload(0x40)\n      dup1\n      swap2\n      sub\n      swap1\n      return\n        /* \"Stake.sol\":634:1110  function stake(uint256 _amount) external {... */\n    tag_9:\n      tag_39\n      0x04\n      dup1\n      calldatasize\n      sub\n      dup2\n      add\n      swap1\n      tag_40\n      swap2\n      swap1\n      tag_27\n      jump\t// in\n    tag_40:\n      tag_41\n      jump\t// in\n    tag_39:\n      stop\n        /* \"Stake.sol\":1514:1719  function claimReward() external {... */\n    tag_10:\n      tag_42\n      tag_43\n      jump\t// in\n    tag_42:\n      stop\n        /* \"Stake.sol\":254:283  uint256 public lastUpdateTime */\n    tag_11:\n      tag_44\n      tag_45\n      jump\t// in\n    tag_44:\n      mload(0x40)\n      tag_46\n      swap2\n      swap1\n      tag_19\n      jump\t// in\n    tag_46:\n      mload(0x40)\n      dup1\n      swap2\n      sub\n      swap1\n      return\n        /* \"Stake.sol\":2089:2409  function calculateReward(address _user) public view returns (uint256) {... */\n    tag_12:\n      tag_47\n      0x04\n      dup1\n      calldatasize\n      sub\n      dup2\n      add\n      swap1\n      tag_48\n      swap2\n      swap1\n      tag_16\n      jump\t// in\n    tag_48:\n      tag_49\n      jump\t// in\n    tag_47:\n      mload(0x40)\n      tag_50\n      swap2\n      swap1\n      tag_19\n      jump\t// in\n    tag_50:\n      mload(0x40)\n      dup1\n      swap2\n      sub\n      swap1\n      return\n        /* \"Stake.sol\":445:487  mapping(address => uint256) public rewards */\n    tag_17:\n      mstore(0x20, 0x05)\n      dup1\n      0x00\n      mstore\n      keccak256(0x00, 0x40)\n      0x00\n      swap2\n      pop\n      swap1\n      pop\n      sload\n      dup2\n      jump\t// out\n        /* \"Stake.sol\":400:439  mapping(address => Stake) public stakes */\n    tag_22:\n      mstore(0x20, 0x04)\n      dup1\n      0x00\n      mstore\n      keccak256(0x00, 0x40)\n      0x00\n      swap2\n      pop\n      swap1\n      pop\n      dup1\n      0x00\n      add\n      sload\n      swap1\n      dup1\n      0x01\n      add\n      sload\n      swap1\n      dup1\n      0x02\n      add\n      sload\n      swap1\n      pop\n      dup4\n      jump\t// out\n        /* \"Stake.sol\":1116:1508  function withdraw(uint256 _amount) external {... */\n    tag_28:\n        /* \"Stake.sol\":1170:1193  Stake storage userStake */\n      0x00\n        /* \"Stake.sol\":1196:1202  stakes */\n      0x04\n        /* \"Stake.sol\":1196:1214  stakes[msg.sender] */\n      0x00\n        /* \"Stake.sol\":1203:1213  msg.sender */\n      caller\n        /* \"Stake.sol\":1196:1214  stakes[msg.sender] */\n      0xffffffffffffffffffffffffffffffffffffffff\n      and\n      0xffffffffffffffffffffffffffffffffffffffff\n      and\n      dup2\n      mstore\n      0x20\n      add\n      swap1\n      dup2\n      mstore\n      0x20\n      add\n      0x00\n      keccak256\n        /* \"Stake.sol\":1170:1214  Stake storage userStake = stakes[msg.sender] */\n      swap1\n      pop\n        /* \"Stake.sol\":1252:1259  _amount */\n      dup2\n        /* \"Stake.sol\":1232:1241  userStake */\n      dup2\n        /* \"Stake.sol\":1232:1248  userStake.amount */\n      0x00\n      add\n      sload\n        /* \"Stake.sol\":1232:1259  userStake.amount >= _amount */\n      lt\n      iszero\n        /* \"Stake.sol\":1224:1301  require(userStake.amount >= _amount, \"Withdraw amount exceeds staked amount\") */\n      tag_52\n      jumpi\n      mload(0x40)\n      0x08c379a000000000000000000000000000000000000000000000000000000000\n      dup2\n      mstore\n      0x04\n      add\n      tag_53\n      swap1\n      tag_54\n      jump\t// in\n    tag_53:\n      mload(0x40)\n      dup1\n      swap2\n      sub\n      swap1\n      revert\n    tag_52:\n        /* \"Stake.sol\":1312:1336  updateReward(msg.sender) */\n      tag_55\n        /* \"Stake.sol\":1325:1335  msg.sender */\n      caller\n        /* \"Stake.sol\":1312:1324  updateReward */\n      tag_56\n        /* \"Stake.sol\":1312:1336  updateReward(msg.sender) */\n      jump\t// in\n    tag_55:\n        /* \"Stake.sol\":1367:1374  _amount */\n      dup2\n        /* \"Stake.sol\":1347:1356  userStake */\n      dup2\n        /* \"Stake.sol\":1347:1363  userStake.amount */\n      0x00\n      add\n      0x00\n        /* \"Stake.sol\":1347:1374  userStake.amount -= _amount */\n      dup3\n      dup3\n      sload\n      tag_57\n      swap2\n      swap1\n      tag_58\n      jump\t// in\n    tag_57:\n      swap3\n      pop\n      pop\n      dup2\n      swap1\n      sstore\n      pop\n        /* \"Stake.sol\":1384:1396  stakingToken */\n      0x00\n      dup1\n      sload\n      swap1\n      0x0100\n      exp\n      swap1\n      div\n      0xffffffffffffffffffffffffffffffffffffffff\n      and\n        /* \"Stake.sol\":1384:1405  stakingToken.transfer */\n      0xffffffffffffffffffffffffffffffffffffffff\n      and\n      0xa9059cbb\n        /* \"Stake.sol\":1406:1416  msg.sender */\n      caller\n        /* \"Stake.sol\":1418:1425  _amount */\n      dup5\n        /* \"Stake.sol\":1384:1426  stakingToken.transfer(msg.sender, _amount) */\n      mload(0x40)\n      dup4\n      0xffffffff\n      and\n      0xe0\n      shl\n      dup2\n      mstore\n      0x04\n      add\n      tag_59\n      swap3\n      swap2\n      swap1\n      tag_60\n      jump\t// in\n    tag_59:\n      0x20\n      mload(0x40)\n      dup1\n      dup4\n      sub\n      dup2\n      0x00\n      dup8\n      gas\n      call\n      iszero\n      dup1\n      iszero\n      tag_62\n      jumpi\n      returndatasize\n      0x00\n      dup1\n      returndatacopy\n      revert(0x00, returndatasize)\n    tag_62:\n      pop\n      pop\n      pop\n      pop\n      mload(0x40)\n      returndatasize\n      not(0x1f)\n      0x1f\n      dup3\n      add\n      and\n      dup3\n      add\n      dup1\n      0x40\n      mstore\n      pop\n      dup2\n      add\n      swap1\n      tag_63\n      swap2\n      swap1\n      tag_64\n      jump\t// in\n    tag_63:\n      pop\n        /* \"Stake.sol\":1452:1459  _amount */\n      dup2\n        /* \"Stake.sol\":1437:1448  totalStaked */\n      0x02\n      0x00\n        /* \"Stake.sol\":1437:1459  totalStaked -= _amount */\n      dup3\n      dup3\n      sload\n      tag_65\n      swap2\n      swap1\n      tag_58\n      jump\t// in\n    tag_65:\n      swap3\n      pop\n      pop\n      dup2\n      swap1\n      sstore\n      pop\n        /* \"Stake.sol\":1486:1501  block.timestamp */\n      timestamp\n        /* \"Stake.sol\":1469:1483  lastUpdateTime */\n      0x03\n        /* \"Stake.sol\":1469:1501  lastUpdateTime = block.timestamp */\n      dup2\n      swap1\n      sstore\n      pop\n        /* \"Stake.sol\":1160:1508  {... */\n      pop\n        /* \"Stake.sol\":1116:1508  function withdraw(uint256 _amount) external {... */\n      pop\n      jump\t// out\n        /* \"Stake.sol\":138:164  IERC20 public stakingToken */\n    tag_30:\n      0x00\n      dup1\n      sload\n      swap1\n      0x0100\n      exp\n      swap1\n      div\n      0xffffffffffffffffffffffffffffffffffffffff\n      and\n      dup2\n      jump\t// out\n        /* \"Stake.sol\":170:195  uint256 public rewardRate */\n    tag_34:\n      sload(0x01)\n      dup2\n      jump\t// out\n        /* \"Stake.sol\":222:248  uint256 public totalStaked */\n    tag_37:\n      sload(0x02)\n      dup2\n      jump\t// out\n        /* \"Stake.sol\":634:1110  function stake(uint256 _amount) external {... */\n    tag_41:\n        /* \"Stake.sol\":703:704  0 */\n      0x00\n        /* \"Stake.sol\":693:700  _amount */\n      dup2\n        /* \"Stake.sol\":693:704  _amount > 0 */\n      gt\n        /* \"Stake.sol\":685:723  require(_amount > 0, \"Cannot stake 0\") */\n      tag_67\n      jumpi\n      mload(0x40)\n      0x08c379a000000000000000000000000000000000000000000000000000000000\n      dup2\n      mstore\n      0x04\n      add\n      tag_68\n      swap1\n      tag_69\n      jump\t// in\n    tag_68:\n      mload(0x40)\n      dup1\n      swap2\n      sub\n      swap1\n      revert\n    tag_67:\n        /* \"Stake.sol\":734:758  updateReward(msg.sender) */\n      tag_70\n        /* \"Stake.sol\":747:757  msg.sender */\n      caller\n        /* \"Stake.sol\":734:746  updateReward */\n      tag_56\n        /* \"Stake.sol\":734:758  updateReward(msg.sender) */\n      jump\t// in\n    tag_70:\n        /* \"Stake.sol\":769:781  stakingToken */\n      0x00\n      dup1\n      sload\n      swap1\n      0x0100\n      exp\n      swap1\n      div\n      0xffffffffffffffffffffffffffffffffffffffff\n      and\n        /* \"Stake.sol\":769:794  stakingToken.transferFrom */\n      0xffffffffffffffffffffffffffffffffffffffff\n      and\n      0x23b872dd\n        /* \"Stake.sol\":795:805  msg.sender */\n      caller\n        /* \"Stake.sol\":815:819  this */\n      address\n        /* \"Stake.sol\":822:829  _amount */\n      dup5\n        /* \"Stake.sol\":769:830  stakingToken.transferFrom(msg.sender, address(this), _amount) */\n      mload(0x40)\n      dup5\n      0xffffffff\n      and\n      0xe0\n      shl\n      dup2\n      mstore\n      0x04\n      add\n      tag_71\n      swap4\n      swap3\n      swap2\n      swap1\n      tag_72\n      jump\t// in\n    tag_71:\n      0x20\n      mload(0x40)\n      dup1\n      dup4\n      sub\n      dup2\n      0x00\n      dup8\n      gas\n      call\n      iszero\n      dup1\n      iszero\n      tag_74\n      jumpi\n      returndatasize\n      0x00\n      dup1\n      returndatacopy\n      revert(0x00, returndatasize)\n    tag_74:\n      pop\n      pop\n      pop\n      pop\n      mload(0x40)\n      returndatasize\n      not(0x1f)\n      0x1f\n      dup3\n      add\n      and\n      dup3\n      add\n      dup1\n      0x40\n      mstore\n      pop\n      dup2\n      add\n      swap1\n      tag_75\n      swap2\n      swap1\n      tag_64\n      jump\t// in\n    tag_75:\n      pop\n        /* \"Stake.sol\":841:864  Stake storage userStake */\n      0x00\n        /* \"Stake.sol\":867:873  stakes */\n      0x04\n        /* \"Stake.sol\":867:885  stakes[msg.sender] */\n      0x00\n        /* \"Stake.sol\":874:884  msg.sender */\n      caller\n        /* \"Stake.sol\":867:885  stakes[msg.sender] */\n      0xffffffffffffffffffffffffffffffffffffffff\n      and\n      0xffffffffffffffffffffffffffffffffffffffff\n      and\n      dup2\n      mstore\n      0x20\n      add\n      swap1\n      dup2\n      mstore\n      0x20\n      add\n      0x00\n      keccak256\n        /* \"Stake.sol\":841:885  Stake storage userStake = stakes[msg.sender] */\n      swap1\n      pop\n        /* \"Stake.sol\":915:922  _amount */\n      dup2\n        /* \"Stake.sol\":895:904  userStake */\n      dup2\n        /* \"Stake.sol\":895:911  userStake.amount */\n      0x00\n      add\n      0x00\n        /* \"Stake.sol\":895:922  userStake.amount += _amount */\n      dup3\n      dup3\n      sload\n      tag_76\n      swap2\n      swap1\n      tag_77\n      jump\t// in\n    tag_76:\n      swap3\n      pop\n      pop\n      dup2\n      swap1\n      sstore\n      pop\n        /* \"Stake.sol\":966:976  rewardRate */\n      sload(0x01)\n        /* \"Stake.sol\":956:963  _amount */\n      dup3\n        /* \"Stake.sol\":956:976  _amount * rewardRate */\n      tag_78\n      swap2\n      swap1\n      tag_79\n      jump\t// in\n    tag_78:\n        /* \"Stake.sol\":932:941  userStake */\n      dup2\n        /* \"Stake.sol\":932:952  userStake.rewardDebt */\n      0x01\n      add\n      0x00\n        /* \"Stake.sol\":932:976  userStake.rewardDebt += _amount * rewardRate */\n      dup3\n      dup3\n      sload\n      tag_80\n      swap2\n      swap1\n      tag_77\n      jump\t// in\n    tag_80:\n      swap3\n      pop\n      pop\n      dup2\n      swap1\n      sstore\n      pop\n        /* \"Stake.sol\":1013:1028  block.timestamp */\n      timestamp\n        /* \"Stake.sol\":986:995  userStake */\n      dup2\n        /* \"Stake.sol\":986:1010  userStake.lastStakedTime */\n      0x02\n      add\n        /* \"Stake.sol\":986:1028  userStake.lastStakedTime = block.timestamp */\n      dup2\n      swap1\n      sstore\n      pop\n        /* \"Stake.sol\":1054:1061  _amount */\n      dup2\n        /* \"Stake.sol\":1039:1050  totalStaked */\n      0x02\n      0x00\n        /* \"Stake.sol\":1039:1061  totalStaked += _amount */\n      dup3\n      dup3\n      sload\n      tag_81\n      swap2\n      swap1\n      tag_77\n      jump\t// in\n    tag_81:\n      swap3\n      pop\n      pop\n      dup2\n      swap1\n      sstore\n      pop\n        /* \"Stake.sol\":1088:1103  block.timestamp */\n      timestamp\n        /* \"Stake.sol\":1071:1085  lastUpdateTime */\n      0x03\n        /* \"Stake.sol\":1071:1103  lastUpdateTime = block.timestamp */\n      dup2\n      swap1\n      sstore\n      pop\n        /* \"Stake.sol\":675:1110  {... */\n      pop\n        /* \"Stake.sol\":634:1110  function stake(uint256 _amount) external {... */\n      pop\n      jump\t// out\n        /* \"Stake.sol\":1514:1719  function claimReward() external {... */\n    tag_43:\n        /* \"Stake.sol\":1556:1580  updateReward(msg.sender) */\n      tag_83\n        /* \"Stake.sol\":1569:1579  msg.sender */\n      caller\n        /* \"Stake.sol\":1556:1568  updateReward */\n      tag_56\n        /* \"Stake.sol\":1556:1580  updateReward(msg.sender) */\n      jump\t// in\n    tag_83:\n        /* \"Stake.sol\":1591:1605  uint256 reward */\n      0x00\n        /* \"Stake.sol\":1608:1615  rewards */\n      0x05\n        /* \"Stake.sol\":1608:1627  rewards[msg.sender] */\n      0x00\n        /* \"Stake.sol\":1616:1626  msg.sender */\n      caller\n        /* \"Stake.sol\":1608:1627  rewards[msg.sender] */\n      0xffffffffffffffffffffffffffffffffffffffff\n      and\n      0xffffffffffffffffffffffffffffffffffffffff\n      and\n      dup2\n      mstore\n      0x20\n      add\n      swap1\n      dup2\n      mstore\n      0x20\n      add\n      0x00\n      keccak256\n      sload\n        /* \"Stake.sol\":1591:1627  uint256 reward = rewards[msg.sender] */\n      swap1\n      pop\n        /* \"Stake.sol\":1659:1660  0 */\n      0x00\n        /* \"Stake.sol\":1637:1644  rewards */\n      0x05\n        /* \"Stake.sol\":1637:1656  rewards[msg.sender] */\n      0x00\n        /* \"Stake.sol\":1645:1655  msg.sender */\n      caller\n        /* \"Stake.sol\":1637:1656  rewards[msg.sender] */\n      0xffffffffffffffffffffffffffffffffffffffff\n      and\n      0xffffffffffffffffffffffffffffffffffffffff\n      and\n      dup2\n      mstore\n      0x20\n      add\n      swap1\n      dup2\n      mstore\n      0x20\n      add\n      0x00\n      keccak256\n        /* \"Stake.sol\":1637:1660  rewards[msg.sender] = 0 */\n      dup2\n      swap1\n      sstore\n      pop\n        /* \"Stake.sol\":1671:1683  stakingToken */\n      0x00\n      dup1\n      sload\n      swap1\n      0x0100\n      exp\n      swap1\n      div\n      0xffffffffffffffffffffffffffffffffffffffff\n      and\n        /* \"Stake.sol\":1671:1692  stakingToken.transfer */\n      0xffffffffffffffffffffffffffffffffffffffff\n      and\n      0xa9059cbb\n        /* \"Stake.sol\":1693:1703  msg.sender */\n      caller\n        /* \"Stake.sol\":1705:1711  reward */\n      dup4\n        /* \"Stake.sol\":1671:1712  stakingToken.transfer(msg.sender, reward) */\n      mload(0x40)\n      dup4\n      0xffffffff\n      and\n      0xe0\n      shl\n      dup2\n      mstore\n      0x04\n      add\n      tag_84\n      swap3\n      swap2\n      swap1\n      tag_60\n      jump\t// in\n    tag_84:\n      0x20\n      mload(0x40)\n      dup1\n      dup4\n      sub\n      dup2\n      0x00\n      dup8\n      gas\n      call\n      iszero\n      dup1\n      iszero\n      tag_86\n      jumpi\n      returndatasize\n      0x00\n      dup1\n      returndatacopy\n      revert(0x00, returndatasize)\n    tag_86:\n      pop\n      pop\n      pop\n      pop\n      mload(0x40)\n      returndatasize\n      not(0x1f)\n      0x1f\n      dup3\n      add\n      and\n      dup3\n      add\n      dup1\n      0x40\n      mstore\n      pop\n      dup2\n      add\n      swap1\n      tag_87\n      swap2\n      swap1\n      tag_64\n      jump\t// in\n    tag_87:\n      pop\n        /* \"Stake.sol\":1546:1719  {... */\n      pop\n        /* \"Stake.sol\":1514:1719  function claimReward() external {... */\n      jump\t// out\n        /* \"Stake.sol\":254:283  uint256 public lastUpdateTime */\n    tag_45:\n      sload(0x03)\n      dup2\n      jump\t// out\n        /* \"Stake.sol\":2089:2409  function calculateReward(address _user) public view returns (uint256) {... */\n    tag_49:\n        /* \"Stake.sol\":2150:2157  uint256 */\n      0x00\n        /* \"Stake.sol\":2169:2192  Stake storage userStake */\n      dup1\n        /* \"Stake.sol\":2195:2201  stakes */\n      0x04\n        /* \"Stake.sol\":2195:2208  stakes[_user] */\n      0x00\n        /* \"Stake.sol\":2202:2207  _user */\n      dup5\n        /* \"Stake.sol\":2195:2208  stakes[_user] */\n      0xffffffffffffffffffffffffffffffffffffffff\n      and\n      0xffffffffffffffffffffffffffffffffffffffff\n      and\n      dup2\n      mstore\n      0x20\n      add\n      swap1\n      dup2\n      mstore\n      0x20\n      add\n      0x00\n      keccak256\n        /* \"Stake.sol\":2169:2208  Stake storage userStake = stakes[_user] */\n      swap1\n      pop\n        /* \"Stake.sol\":2218:2241  uint256 stakingDuration */\n      0x00\n        /* \"Stake.sol\":2262:2271  userStake */\n      dup2\n        /* \"Stake.sol\":2262:2286  userStake.lastStakedTime */\n      0x02\n      add\n      sload\n        /* \"Stake.sol\":2244:2259  block.timestamp */\n      timestamp\n        /* \"Stake.sol\":2244:2286  block.timestamp - userStake.lastStakedTime */\n      tag_89\n      swap2\n      swap1\n      tag_58\n      jump\t// in\n    tag_89:\n        /* \"Stake.sol\":2218:2286  uint256 stakingDuration = block.timestamp - userStake.lastStakedTime */\n      swap1\n      pop\n        /* \"Stake.sol\":2296:2317  uint256 pendingReward */\n      0x00\n        /* \"Stake.sol\":2370:2372  60 */\n      0x3c\n        /* \"Stake.sol\":2352:2367  stakingDuration */\n      dup3\n        /* \"Stake.sol\":2339:2349  rewardRate */\n      sload(0x01)\n        /* \"Stake.sol\":2320:2329  userStake */\n      dup6\n        /* \"Stake.sol\":2320:2336  userStake.amount */\n      0x00\n      add\n      sload\n        /* \"Stake.sol\":2320:2349  userStake.amount * rewardRate */\n      tag_90\n      swap2\n      swap1\n      tag_79\n      jump\t// in\n    tag_90:\n        /* \"Stake.sol\":2320:2367  userStake.amount * rewardRate * stakingDuration */\n      tag_91\n      swap2\n      swap1\n      tag_79\n      jump\t// in\n    tag_91:\n        /* \"Stake.sol\":2320:2372  userStake.amount * rewardRate * stakingDuration / 60 */\n      tag_92\n      swap2\n      swap1\n      tag_93\n      jump\t// in\n    tag_92:\n        /* \"Stake.sol\":2296:2372  uint256 pendingReward = userStake.amount * rewardRate * stakingDuration / 60 */\n      swap1\n      pop\n        /* \"Stake.sol\":2389:2402  pendingReward */\n      dup1\n        /* \"Stake.sol\":2382:2402  return pendingReward */\n      swap4\n      pop\n      pop\n      pop\n      pop\n        /* \"Stake.sol\":2089:2409  function calculateReward(address _user) public view returns (uint256) {... */\n      swap2\n      swap1\n      pop\n      jump\t// out\n        /* \"Stake.sol\":1725:2083  function updateReward(address _user) internal {... */\n    tag_56:\n        /* \"Stake.sol\":1781:1804  Stake storage userStake */\n      0x00\n        /* \"Stake.sol\":1807:1813  stakes */\n      0x04\n        /* \"Stake.sol\":1807:1820  stakes[_user] */\n      0x00\n        /* \"Stake.sol\":1814:1819  _user */\n      dup4\n        /* \"Stake.sol\":1807:1820  stakes[_user] */\n      0xffffffffffffffffffffffffffffffffffffffff\n      and\n      0xffffffffffffffffffffffffffffffffffffffff\n      and\n      dup2\n      mstore\n      0x20\n      add\n      swap1\n      dup2\n      mstore\n      0x20\n      add\n      0x00\n      keccak256\n        /* \"Stake.sol\":1781:1820  Stake storage userStake = stakes[_user] */\n      swap1\n      pop\n        /* \"Stake.sol\":1854:1855  0 */\n      0x00\n        /* \"Stake.sol\":1835:1844  userStake */\n      dup2\n        /* \"Stake.sol\":1835:1851  userStake.amount */\n      0x00\n      add\n      sload\n        /* \"Stake.sol\":1835:1855  userStake.amount > 0 */\n      gt\n        /* \"Stake.sol\":1831:2077  if (userStake.amount > 0) {... */\n      iszero\n      tag_95\n      jumpi\n        /* \"Stake.sol\":1871:1885  uint256 reward */\n      0x00\n        /* \"Stake.sol\":1888:1910  calculateReward(_user) */\n      tag_96\n        /* \"Stake.sol\":1904:1909  _user */\n      dup4\n        /* \"Stake.sol\":1888:1903  calculateReward */\n      tag_49\n        /* \"Stake.sol\":1888:1910  calculateReward(_user) */\n      jump\t// in\n    tag_96:\n        /* \"Stake.sol\":1871:1910  uint256 reward = calculateReward(_user) */\n      swap1\n      pop\n        /* \"Stake.sol\":1942:1948  reward */\n      dup1\n        /* \"Stake.sol\":1924:1931  rewards */\n      0x05\n        /* \"Stake.sol\":1924:1938  rewards[_user] */\n      0x00\n        /* \"Stake.sol\":1932:1937  _user */\n      dup6\n        /* \"Stake.sol\":1924:1938  rewards[_user] */\n      0xffffffffffffffffffffffffffffffffffffffff\n      and\n      0xffffffffffffffffffffffffffffffffffffffff\n      and\n      dup2\n      mstore\n      0x20\n      add\n      swap1\n      dup2\n      mstore\n      0x20\n      add\n      0x00\n      keccak256\n      0x00\n        /* \"Stake.sol\":1924:1948  rewards[_user] += reward */\n      dup3\n      dup3\n      sload\n      tag_97\n      swap2\n      swap1\n      tag_77\n      jump\t// in\n    tag_97:\n      swap3\n      pop\n      pop\n      dup2\n      swap1\n      sstore\n      pop\n        /* \"Stake.sol\":2064:2066  60 */\n      0x3c\n        /* \"Stake.sol\":2036:2045  userStake */\n      dup3\n        /* \"Stake.sol\":2036:2060  userStake.lastStakedTime */\n      0x02\n      add\n      sload\n        /* \"Stake.sol\":2018:2033  block.timestamp */\n      timestamp\n        /* \"Stake.sol\":2018:2060  block.timestamp - userStake.lastStakedTime */\n      tag_98\n      swap2\n      swap1\n      tag_58\n      jump\t// in\n    tag_98:\n        /* \"Stake.sol\":2004:2014  rewardRate */\n      sload(0x01)\n        /* \"Stake.sol\":1985:1994  userStake */\n      dup5\n        /* \"Stake.sol\":1985:2001  userStake.amount */\n      0x00\n      add\n      sload\n        /* \"Stake.sol\":1985:2014  userStake.amount * rewardRate */\n      tag_99\n      swap2\n      swap1\n      tag_79\n      jump\t// in\n    tag_99:\n        /* \"Stake.sol\":1985:2061  userStake.amount * rewardRate * (block.timestamp - userStake.lastStakedTime) */\n      tag_100\n      swap2\n      swap1\n      tag_79\n      jump\t// in\n    tag_100:\n        /* \"Stake.sol\":1985:2066  userStake.amount * rewardRate * (block.timestamp - userStake.lastStakedTime) / 60 */\n      tag_101\n      swap2\n      swap1\n      tag_93\n      jump\t// in\n    tag_101:\n        /* \"Stake.sol\":1962:1971  userStake */\n      dup3\n        /* \"Stake.sol\":1962:1982  userStake.rewardDebt */\n      0x01\n      add\n        /* \"Stake.sol\":1962:2066  userStake.rewardDebt = userStake.amount * rewardRate * (block.timestamp - userStake.lastStakedTime) / 60 */\n      dup2\n      swap1\n      sstore\n      pop\n        /* \"Stake.sol\":1857:2077  {... */\n      pop\n        /* \"Stake.sol\":1831:2077  if (userStake.amount > 0) {... */\n    tag_95:\n        /* \"Stake.sol\":1771:2083  {... */\n      pop\n        /* \"Stake.sol\":1725:2083  function updateReward(address _user) internal {... */\n      pop\n      jump\t// out\n        /* \"#utility.yul\":88:205   */\n    tag_103:\n        /* \"#utility.yul\":197:198   */\n      0x00\n        /* \"#utility.yul\":194:195   */\n      dup1\n        /* \"#utility.yul\":187:199   */\n      revert\n        /* \"#utility.yul\":334:460   */\n    tag_105:\n        /* \"#utility.yul\":371:378   */\n      0x00\n        /* \"#utility.yul\":411:453   */\n      0xffffffffffffffffffffffffffffffffffffffff\n        /* \"#utility.yul\":404:409   */\n      dup3\n        /* \"#utility.yul\":400:454   */\n      and\n        /* \"#utility.yul\":389:454   */\n      swap1\n      pop\n        /* \"#utility.yul\":334:460   */\n      swap2\n      swap1\n      pop\n      jump\t// out\n        /* \"#utility.yul\":466:562   */\n    tag_106:\n        /* \"#utility.yul\":503:510   */\n      0x00\n        /* \"#utility.yul\":532:556   */\n      tag_135\n        /* \"#utility.yul\":550:555   */\n      dup3\n        /* \"#utility.yul\":532:556   */\n      tag_105\n      jump\t// in\n    tag_135:\n        /* \"#utility.yul\":521:556   */\n      swap1\n      pop\n        /* \"#utility.yul\":466:562   */\n      swap2\n      swap1\n      pop\n      jump\t// out\n        /* \"#utility.yul\":568:690   */\n    tag_107:\n        /* \"#utility.yul\":641:665   */\n      tag_137\n        /* \"#utility.yul\":659:664   */\n      dup2\n        /* \"#utility.yul\":641:665   */\n      tag_106\n      jump\t// in\n    tag_137:\n        /* \"#utility.yul\":634:639   */\n      dup2\n        /* \"#utility.yul\":631:666   */\n      eq\n        /* \"#utility.yul\":621:684   */\n      tag_138\n      jumpi\n        /* \"#utility.yul\":680:681   */\n      0x00\n        /* \"#utility.yul\":677:678   */\n      dup1\n        /* \"#utility.yul\":670:682   */\n      revert\n        /* \"#utility.yul\":621:684   */\n    tag_138:\n        /* \"#utility.yul\":568:690   */\n      pop\n      jump\t// out\n        /* \"#utility.yul\":696:835   */\n    tag_108:\n        /* \"#utility.yul\":742:747   */\n      0x00\n        /* \"#utility.yul\":780:786   */\n      dup2\n        /* \"#utility.yul\":767:787   */\n      calldataload\n        /* \"#utility.yul\":758:787   */\n      swap1\n      pop\n        /* \"#utility.yul\":796:829   */\n      tag_140\n        /* \"#utility.yul\":823:828   */\n      dup2\n        /* \"#utility.yul\":796:829   */\n      tag_107\n      jump\t// in\n    tag_140:\n        /* \"#utility.yul\":696:835   */\n      swap3\n      swap2\n      pop\n      pop\n      jump\t// out\n        /* \"#utility.yul\":841:1170   */\n    tag_16:\n        /* \"#utility.yul\":900:906   */\n      0x00\n        /* \"#utility.yul\":949:951   */\n      0x20\n        /* \"#utility.yul\":937:946   */\n      dup3\n        /* \"#utility.yul\":928:935   */\n      dup5\n        /* \"#utility.yul\":924:947   */\n      sub\n        /* \"#utility.yul\":920:952   */\n      slt\n        /* \"#utility.yul\":917:1036   */\n      iszero\n      tag_142\n      jumpi\n        /* \"#utility.yul\":955:1034   */\n      tag_143\n      tag_103\n      jump\t// in\n    tag_143:\n        /* \"#utility.yul\":917:1036   */\n    tag_142:\n        /* \"#utility.yul\":1075:1076   */\n      0x00\n        /* \"#utility.yul\":1100:1153   */\n      tag_144\n        /* \"#utility.yul\":1145:1152   */\n      dup5\n        /* \"#utility.yul\":1136:1142   */\n      dup3\n        /* \"#utility.yul\":1125:1134   */\n      dup6\n        /* \"#utility.yul\":1121:1143   */\n      add\n        /* \"#utility.yul\":1100:1153   */\n      tag_108\n      jump\t// in\n    tag_144:\n        /* \"#utility.yul\":1090:1153   */\n      swap2\n      pop\n        /* \"#utility.yul\":1046:1163   */\n      pop\n        /* \"#utility.yul\":841:1170   */\n      swap3\n      swap2\n      pop\n      pop\n      jump\t// out\n        /* \"#utility.yul\":1176:1253   */\n    tag_109:\n        /* \"#utility.yul\":1213:1220   */\n      0x00\n        /* \"#utility.yul\":1242:1247   */\n      dup2\n        /* \"#utility.yul\":1231:1247   */\n      swap1\n      pop\n        /* \"#utility.yul\":1176:1253   */\n      swap2\n      swap1\n      pop\n      jump\t// out\n        /* \"#utility.yul\":1259:1377   */\n    tag_110:\n        /* \"#utility.yul\":1346:1370   */\n      tag_147\n        /* \"#utility.yul\":1364:1369   */\n      dup2\n        /* \"#utility.yul\":1346:1370   */\n      tag_109\n      jump\t// in\n    tag_147:\n        /* \"#utility.yul\":1341:1344   */\n      dup3\n        /* \"#utility.yul\":1334:1371   */\n      mstore\n        /* \"#utility.yul\":1259:1377   */\n      pop\n      pop\n      jump\t// out\n        /* \"#utility.yul\":1383:1605   */\n    tag_19:\n        /* \"#utility.yul\":1476:1480   */\n      0x00\n        /* \"#utility.yul\":1514:1516   */\n      0x20\n        /* \"#utility.yul\":1503:1512   */\n      dup3\n        /* \"#utility.yul\":1499:1517   */\n      add\n        /* \"#utility.yul\":1491:1517   */\n      swap1\n      pop\n        /* \"#utility.yul\":1527:1598   */\n      tag_149\n        /* \"#utility.yul\":1595:1596   */\n      0x00\n        /* \"#utility.yul\":1584:1593   */\n      dup4\n        /* \"#utility.yul\":1580:1597   */\n      add\n        /* \"#utility.yul\":1571:1577   */\n      dup5\n        /* \"#utility.yul\":1527:1598   */\n      tag_110\n      jump\t// in\n    tag_149:\n        /* \"#utility.yul\":1383:1605   */\n      swap3\n      swap2\n      pop\n      pop\n      jump\t// out\n        /* \"#utility.yul\":1611:2053   */\n    tag_24:\n        /* \"#utility.yul\":1760:1764   */\n      0x00\n        /* \"#utility.yul\":1798:1800   */\n      0x60\n        /* \"#utility.yul\":1787:1796   */\n      dup3\n        /* \"#utility.yul\":1783:1801   */\n      add\n        /* \"#utility.yul\":1775:1801   */\n      swap1\n      pop\n        /* \"#utility.yul\":1811:1882   */\n      tag_151\n        /* \"#utility.yul\":1879:1880   */\n      0x00\n        /* \"#utility.yul\":1868:1877   */\n      dup4\n        /* \"#utility.yul\":1864:1881   */\n      add\n        /* \"#utility.yul\":1855:1861   */\n      dup7\n        /* \"#utility.yul\":1811:1882   */\n      tag_110\n      jump\t// in\n    tag_151:\n        /* \"#utility.yul\":1892:1964   */\n      tag_152\n        /* \"#utility.yul\":1960:1962   */\n      0x20\n        /* \"#utility.yul\":1949:1958   */\n      dup4\n        /* \"#utility.yul\":1945:1963   */\n      add\n        /* \"#utility.yul\":1936:1942   */\n      dup6\n        /* \"#utility.yul\":1892:1964   */\n      tag_110\n      jump\t// in\n    tag_152:\n        /* \"#utility.yul\":1974:2046   */\n      tag_153\n        /* \"#utility.yul\":2042:2044   */\n      0x40\n        /* \"#utility.yul\":2031:2040   */\n      dup4\n        /* \"#utility.yul\":2027:2045   */\n      add\n        /* \"#utility.yul\":2018:2024   */\n      dup5\n        /* \"#utility.yul\":1974:2046   */\n      tag_110\n      jump\t// in\n    tag_153:\n        /* \"#utility.yul\":1611:2053   */\n      swap5\n      swap4\n      pop\n      pop\n      pop\n      pop\n      jump\t// out\n        /* \"#utility.yul\":2059:2181   */\n    tag_111:\n        /* \"#utility.yul\":2132:2156   */\n      tag_155\n        /* \"#utility.yul\":2150:2155   */\n      dup2\n        /* \"#utility.yul\":2132:2156   */\n      tag_109\n      jump\t// in\n    tag_155:\n        /* \"#utility.yul\":2125:2130   */\n      dup2\n        /* \"#utility.yul\":2122:2157   */\n      eq\n        /* \"#utility.yul\":2112:2175   */\n      tag_156\n      jumpi\n        /* \"#utility.yul\":2171:2172   */\n      0x00\n        /* \"#utility.yul\":2168:2169   */\n      dup1\n        /* \"#utility.yul\":2161:2173   */\n      revert\n        /* \"#utility.yul\":2112:2175   */\n    tag_156:\n        /* \"#utility.yul\":2059:2181   */\n      pop\n      jump\t// out\n        /* \"#utility.yul\":2187:2326   */\n    tag_112:\n        /* \"#utility.yul\":2233:2238   */\n      0x00\n        /* \"#utility.yul\":2271:2277   */\n      dup2\n        /* \"#utility.yul\":2258:2278   */\n      calldataload\n        /* \"#utility.yul\":2249:2278   */\n      swap1\n      pop\n        /* \"#utility.yul\":2287:2320   */\n      tag_158\n        /* \"#utility.yul\":2314:2319   */\n      dup2\n        /* \"#utility.yul\":2287:2320   */\n      tag_111\n      jump\t// in\n    tag_158:\n        /* \"#utility.yul\":2187:2326   */\n      swap3\n      swap2\n      pop\n      pop\n      jump\t// out\n        /* \"#utility.yul\":2332:2661   */\n    tag_27:\n        /* \"#utility.yul\":2391:2397   */\n      0x00\n        /* \"#utility.yul\":2440:2442   */\n      0x20\n        /* \"#utility.yul\":2428:2437   */\n      dup3\n        /* \"#utility.yul\":2419:2426   */\n      dup5\n        /* \"#utility.yul\":2415:2438   */\n      sub\n        /* \"#utility.yul\":2411:2443   */\n      slt\n        /* \"#utility.yul\":2408:2527   */\n      iszero\n      tag_160\n      jumpi\n        /* \"#utility.yul\":2446:2525   */\n      tag_161\n      tag_103\n      jump\t// in\n    tag_161:\n        /* \"#utility.yul\":2408:2527   */\n    tag_160:\n        /* \"#utility.yul\":2566:2567   */\n      0x00\n        /* \"#utility.yul\":2591:2644   */\n      tag_162\n        /* \"#utility.yul\":2636:2643   */\n      dup5\n        /* \"#utility.yul\":2627:2633   */\n      dup3\n        /* \"#utility.yul\":2616:2625   */\n      dup6\n        /* \"#utility.yul\":2612:2634   */\n      add\n        /* \"#utility.yul\":2591:2644   */\n      tag_112\n      jump\t// in\n    tag_162:\n        /* \"#utility.yul\":2581:2644   */\n      swap2\n      pop\n        /* \"#utility.yul\":2537:2654   */\n      pop\n        /* \"#utility.yul\":2332:2661   */\n      swap3\n      swap2\n      pop\n      pop\n      jump\t// out\n        /* \"#utility.yul\":2667:2727   */\n    tag_113:\n        /* \"#utility.yul\":2695:2698   */\n      0x00\n        /* \"#utility.yul\":2716:2721   */\n      dup2\n        /* \"#utility.yul\":2709:2721   */\n      swap1\n      pop\n        /* \"#utility.yul\":2667:2727   */\n      swap2\n      swap1\n      pop\n      jump\t// out\n        /* \"#utility.yul\":2733:2875   */\n    tag_114:\n        /* \"#utility.yul\":2783:2792   */\n      0x00\n        /* \"#utility.yul\":2816:2869   */\n      tag_165\n        /* \"#utility.yul\":2834:2868   */\n      tag_166\n        /* \"#utility.yul\":2843:2867   */\n      tag_167\n        /* \"#utility.yul\":2861:2866   */\n      dup5\n        /* \"#utility.yul\":2843:2867   */\n      tag_105\n      jump\t// in\n    tag_167:\n        /* \"#utility.yul\":2834:2868   */\n      tag_113\n      jump\t// in\n    tag_166:\n        /* \"#utility.yul\":2816:2869   */\n      tag_105\n      jump\t// in\n    tag_165:\n        /* \"#utility.yul\":2803:2869   */\n      swap1\n      pop\n        /* \"#utility.yul\":2733:2875   */\n      swap2\n      swap1\n      pop\n      jump\t// out\n        /* \"#utility.yul\":2881:3007   */\n    tag_115:\n        /* \"#utility.yul\":2931:2940   */\n      0x00\n        /* \"#utility.yul\":2964:3001   */\n      tag_169\n        /* \"#utility.yul\":2995:3000   */\n      dup3\n        /* \"#utility.yul\":2964:3001   */\n      tag_114\n      jump\t// in\n    tag_169:\n        /* \"#utility.yul\":2951:3001   */\n      swap1\n      pop\n        /* \"#utility.yul\":2881:3007   */\n      swap2\n      swap1\n      pop\n      jump\t// out\n        /* \"#utility.yul\":3013:3152   */\n    tag_116:\n        /* \"#utility.yul\":3076:3085   */\n      0x00\n        /* \"#utility.yul\":3109:3146   */\n      tag_171\n        /* \"#utility.yul\":3140:3145   */\n      dup3\n        /* \"#utility.yul\":3109:3146   */\n      tag_115\n      jump\t// in\n    tag_171:\n        /* \"#utility.yul\":3096:3146   */\n      swap1\n      pop\n        /* \"#utility.yul\":3013:3152   */\n      swap2\n      swap1\n      pop\n      jump\t// out\n        /* \"#utility.yul\":3158:3315   */\n    tag_117:\n        /* \"#utility.yul\":3258:3308   */\n      tag_173\n        /* \"#utility.yul\":3302:3307   */\n      dup2\n        /* \"#utility.yul\":3258:3308   */\n      tag_116\n      jump\t// in\n    tag_173:\n        /* \"#utility.yul\":3253:3256   */\n      dup3\n        /* \"#utility.yul\":3246:3309   */\n      mstore\n        /* \"#utility.yul\":3158:3315   */\n      pop\n      pop\n      jump\t// out\n        /* \"#utility.yul\":3321:3569   */\n    tag_32:\n        /* \"#utility.yul\":3427:3431   */\n      0x00\n        /* \"#utility.yul\":3465:3467   */\n      0x20\n        /* \"#utility.yul\":3454:3463   */\n      dup3\n        /* \"#utility.yul\":3450:3468   */\n      add\n        /* \"#utility.yul\":3442:3468   */\n      swap1\n      pop\n        /* \"#utility.yul\":3478:3562   */\n      tag_175\n        /* \"#utility.yul\":3559:3560   */\n      0x00\n        /* \"#utility.yul\":3548:3557   */\n      dup4\n        /* \"#utility.yul\":3544:3561   */\n      add\n        /* \"#utility.yul\":3535:3541   */\n      dup5\n        /* \"#utility.yul\":3478:3562   */\n      tag_117\n      jump\t// in\n    tag_175:\n        /* \"#utility.yul\":3321:3569   */\n      swap3\n      swap2\n      pop\n      pop\n      jump\t// out\n        /* \"#utility.yul\":3575:3744   */\n    tag_118:\n        /* \"#utility.yul\":3659:3670   */\n      0x00\n        /* \"#utility.yul\":3693:3699   */\n      dup3\n        /* \"#utility.yul\":3688:3691   */\n      dup3\n        /* \"#utility.yul\":3681:3700   */\n      mstore\n        /* \"#utility.yul\":3733:3737   */\n      0x20\n        /* \"#utility.yul\":3728:3731   */\n      dup3\n        /* \"#utility.yul\":3724:3738   */\n      add\n        /* \"#utility.yul\":3709:3738   */\n      swap1\n      pop\n        /* \"#utility.yul\":3575:3744   */\n      swap3\n      swap2\n      pop\n      pop\n      jump\t// out\n        /* \"#utility.yul\":3750:3974   */\n    tag_119:\n        /* \"#utility.yul\":3890:3924   */\n      0x576974686472617720616d6f756e742065786365656473207374616b65642061\n        /* \"#utility.yul\":3886:3887   */\n      0x00\n        /* \"#utility.yul\":3878:3884   */\n      dup3\n        /* \"#utility.yul\":3874:3888   */\n      add\n        /* \"#utility.yul\":3867:3925   */\n      mstore\n        /* \"#utility.yul\":3959:3966   */\n      0x6d6f756e74000000000000000000000000000000000000000000000000000000\n        /* \"#utility.yul\":3954:3956   */\n      0x20\n        /* \"#utility.yul\":3946:3952   */\n      dup3\n        /* \"#utility.yul\":3942:3957   */\n      add\n        /* \"#utility.yul\":3935:3967   */\n      mstore\n        /* \"#utility.yul\":3750:3974   */\n      pop\n      jump\t// out\n        /* \"#utility.yul\":3980:4346   */\n    tag_120:\n        /* \"#utility.yul\":4122:4125   */\n      0x00\n        /* \"#utility.yul\":4143:4210   */\n      tag_179\n        /* \"#utility.yul\":4207:4209   */\n      0x25\n        /* \"#utility.yul\":4202:4205   */\n      dup4\n        /* \"#utility.yul\":4143:4210   */\n      tag_118\n      jump\t// in\n    tag_179:\n        /* \"#utility.yul\":4136:4210   */\n      swap2\n      pop\n        /* \"#utility.yul\":4219:4312   */\n      tag_180\n        /* \"#utility.yul\":4308:4311   */\n      dup3\n        /* \"#utility.yul\":4219:4312   */\n      tag_119\n      jump\t// in\n    tag_180:\n        /* \"#utility.yul\":4337:4339   */\n      0x40\n        /* \"#utility.yul\":4332:4335   */\n      dup3\n        /* \"#utility.yul\":4328:4340   */\n      add\n        /* \"#utility.yul\":4321:4340   */\n      swap1\n      pop\n        /* \"#utility.yul\":3980:4346   */\n      swap2\n      swap1\n      pop\n      jump\t// out\n        /* \"#utility.yul\":4352:4771   */\n    tag_54:\n        /* \"#utility.yul\":4518:4522   */\n      0x00\n        /* \"#utility.yul\":4556:4558   */\n      0x20\n        /* \"#utility.yul\":4545:4554   */\n      dup3\n        /* \"#utility.yul\":4541:4559   */\n      add\n        /* \"#utility.yul\":4533:4559   */\n      swap1\n      pop\n        /* \"#utility.yul\":4605:4614   */\n      dup2\n        /* \"#utility.yul\":4599:4603   */\n      dup2\n        /* \"#utility.yul\":4595:4615   */\n      sub\n        /* \"#utility.yul\":4591:4592   */\n      0x00\n        /* \"#utility.yul\":4580:4589   */\n      dup4\n        /* \"#utility.yul\":4576:4593   */\n      add\n        /* \"#utility.yul\":4569:4616   */\n      mstore\n        /* \"#utility.yul\":4633:4764   */\n      tag_182\n        /* \"#utility.yul\":4759:4763   */\n      dup2\n        /* \"#utility.yul\":4633:4764   */\n      tag_120\n      jump\t// in\n    tag_182:\n        /* \"#utility.yul\":4625:4764   */\n      swap1\n      pop\n        /* \"#utility.yul\":4352:4771   */\n      swap2\n      swap1\n      pop\n      jump\t// out\n        /* \"#utility.yul\":4777:4957   */\n    tag_121:\n        /* \"#utility.yul\":4825:4902   */\n      0x4e487b7100000000000000000000000000000000000000000000000000000000\n        /* \"#utility.yul\":4822:4823   */\n      0x00\n        /* \"#utility.yul\":4815:4903   */\n      mstore\n        /* \"#utility.yul\":4922:4926   */\n      0x11\n        /* \"#utility.yul\":4919:4920   */\n      0x04\n        /* \"#utility.yul\":4912:4927   */\n      mstore\n        /* \"#utility.yul\":4946:4950   */\n      0x24\n        /* \"#utility.yul\":4943:4944   */\n      0x00\n        /* \"#utility.yul\":4936:4951   */\n      revert\n        /* \"#utility.yul\":4963:5157   */\n    tag_58:\n        /* \"#utility.yul\":5003:5007   */\n      0x00\n        /* \"#utility.yul\":5023:5043   */\n      tag_185\n        /* \"#utility.yul\":5041:5042   */\n      dup3\n        /* \"#utility.yul\":5023:5043   */\n      tag_109\n      jump\t// in\n    tag_185:\n        /* \"#utility.yul\":5018:5043   */\n      swap2\n      pop\n        /* \"#utility.yul\":5057:5077   */\n      tag_186\n        /* \"#utility.yul\":5075:5076   */\n      dup4\n        /* \"#utility.yul\":5057:5077   */\n      tag_109\n      jump\t// in\n    tag_186:\n        /* \"#utility.yul\":5052:5077   */\n      swap3\n      pop\n        /* \"#utility.yul\":5101:5102   */\n      dup3\n        /* \"#utility.yul\":5098:5099   */\n      dup3\n        /* \"#utility.yul\":5094:5103   */\n      sub\n        /* \"#utility.yul\":5086:5103   */\n      swap1\n      pop\n        /* \"#utility.yul\":5125:5126   */\n      dup2\n        /* \"#utility.yul\":5119:5123   */\n      dup2\n        /* \"#utility.yul\":5116:5127   */\n      gt\n        /* \"#utility.yul\":5113:5150   */\n      iszero\n      tag_187\n      jumpi\n        /* \"#utility.yul\":5130:5148   */\n      tag_188\n      tag_121\n      jump\t// in\n    tag_188:\n        /* \"#utility.yul\":5113:5150   */\n    tag_187:\n        /* \"#utility.yul\":4963:5157   */\n      swap3\n      swap2\n      pop\n      pop\n      jump\t// out\n        /* \"#utility.yul\":5163:5281   */\n    tag_122:\n        /* \"#utility.yul\":5250:5274   */\n      tag_190\n        /* \"#utility.yul\":5268:5273   */\n      dup2\n        /* \"#utility.yul\":5250:5274   */\n      tag_106\n      jump\t// in\n    tag_190:\n        /* \"#utility.yul\":5245:5248   */\n      dup3\n        /* \"#utility.yul\":5238:5275   */\n      mstore\n        /* \"#utility.yul\":5163:5281   */\n      pop\n      pop\n      jump\t// out\n        /* \"#utility.yul\":5287:5619   */\n    tag_60:\n        /* \"#utility.yul\":5408:5412   */\n      0x00\n        /* \"#utility.yul\":5446:5448   */\n      0x40\n        /* \"#utility.yul\":5435:5444   */\n      dup3\n        /* \"#utility.yul\":5431:5449   */\n      add\n        /* \"#utility.yul\":5423:5449   */\n      swap1\n      pop\n        /* \"#utility.yul\":5459:5530   */\n      tag_192\n        /* \"#utility.yul\":5527:5528   */\n      0x00\n        /* \"#utility.yul\":5516:5525   */\n      dup4\n        /* \"#utility.yul\":5512:5529   */\n      add\n        /* \"#utility.yul\":5503:5509   */\n      dup6\n        /* \"#utility.yul\":5459:5530   */\n      tag_122\n      jump\t// in\n    tag_192:\n        /* \"#utility.yul\":5540:5612   */\n      tag_193\n        /* \"#utility.yul\":5608:5610   */\n      0x20\n        /* \"#utility.yul\":5597:5606   */\n      dup4\n        /* \"#utility.yul\":5593:5611   */\n      add\n        /* \"#utility.yul\":5584:5590   */\n      dup5\n        /* \"#utility.yul\":5540:5612   */\n      tag_110\n      jump\t// in\n    tag_193:\n        /* \"#utility.yul\":5287:5619   */\n      swap4\n      swap3\n      pop\n      pop\n      pop\n      jump\t// out\n        /* \"#utility.yul\":5625:5715   */\n    tag_123:\n        /* \"#utility.yul\":5659:5666   */\n      0x00\n        /* \"#utility.yul\":5702:5707   */\n      dup2\n        /* \"#utility.yul\":5695:5708   */\n      iszero\n        /* \"#utility.yul\":5688:5709   */\n      iszero\n        /* \"#utility.yul\":5677:5709   */\n      swap1\n      pop\n        /* \"#utility.yul\":5625:5715   */\n      swap2\n      swap1\n      pop\n      jump\t// out\n        /* \"#utility.yul\":5721:5837   */\n    tag_124:\n        /* \"#utility.yul\":5791:5812   */\n      tag_196\n        /* \"#utility.yul\":5806:5811   */\n      dup2\n        /* \"#utility.yul\":5791:5812   */\n      tag_123\n      jump\t// in\n    tag_196:\n        /* \"#utility.yul\":5784:5789   */\n      dup2\n        /* \"#utility.yul\":5781:5813   */\n      eq\n        /* \"#utility.yul\":5771:5831   */\n      tag_197\n      jumpi\n        /* \"#utility.yul\":5827:5828   */\n      0x00\n        /* \"#utility.yul\":5824:5825   */\n      dup1\n        /* \"#utility.yul\":5817:5829   */\n      revert\n        /* \"#utility.yul\":5771:5831   */\n    tag_197:\n        /* \"#utility.yul\":5721:5837   */\n      pop\n      jump\t// out\n        /* \"#utility.yul\":5843:5980   */\n    tag_125:\n        /* \"#utility.yul\":5897:5902   */\n      0x00\n        /* \"#utility.yul\":5928:5934   */\n      dup2\n        /* \"#utility.yul\":5922:5935   */\n      mload\n        /* \"#utility.yul\":5913:5935   */\n      swap1\n      pop\n        /* \"#utility.yul\":5944:5974   */\n      tag_199\n        /* \"#utility.yul\":5968:5973   */\n      dup2\n        /* \"#utility.yul\":5944:5974   */\n      tag_124\n      jump\t// in\n    tag_199:\n        /* \"#utility.yul\":5843:5980   */\n      swap3\n      swap2\n      pop\n      pop\n      jump\t// out\n        /* \"#utility.yul\":5986:6331   */\n    tag_64:\n        /* \"#utility.yul\":6053:6059   */\n      0x00\n        /* \"#utility.yul\":6102:6104   */\n      0x20\n        /* \"#utility.yul\":6090:6099   */\n      dup3\n        /* \"#utility.yul\":6081:6088   */\n      dup5\n        /* \"#utility.yul\":6077:6100   */\n      sub\n        /* \"#utility.yul\":6073:6105   */\n      slt\n        /* \"#utility.yul\":6070:6189   */\n      iszero\n      tag_201\n      jumpi\n        /* \"#utility.yul\":6108:6187   */\n      tag_202\n      tag_103\n      jump\t// in\n    tag_202:\n        /* \"#utility.yul\":6070:6189   */\n    tag_201:\n        /* \"#utility.yul\":6228:6229   */\n      0x00\n        /* \"#utility.yul\":6253:6314   */\n      tag_203\n        /* \"#utility.yul\":6306:6313   */\n      dup5\n        /* \"#utility.yul\":6297:6303   */\n      dup3\n        /* \"#utility.yul\":6286:6295   */\n      dup6\n        /* \"#utility.yul\":6282:6304   */\n      add\n        /* \"#utility.yul\":6253:6314   */\n      tag_125\n      jump\t// in\n    tag_203:\n        /* \"#utility.yul\":6243:6314   */\n      swap2\n      pop\n        /* \"#utility.yul\":6199:6324   */\n      pop\n        /* \"#utility.yul\":5986:6331   */\n      swap3\n      swap2\n      pop\n      pop\n      jump\t// out\n        /* \"#utility.yul\":6337:6501   */\n    tag_126:\n        /* \"#utility.yul\":6477:6493   */\n      0x43616e6e6f74207374616b652030000000000000000000000000000000000000\n        /* \"#utility.yul\":6473:6474   */\n      0x00\n        /* \"#utility.yul\":6465:6471   */\n      dup3\n        /* \"#utility.yul\":6461:6475   */\n      add\n        /* \"#utility.yul\":6454:6494   */\n      mstore\n        /* \"#utility.yul\":6337:6501   */\n      pop\n      jump\t// out\n        /* \"#utility.yul\":6507:6873   */\n    tag_127:\n        /* \"#utility.yul\":6649:6652   */\n      0x00\n        /* \"#utility.yul\":6670:6737   */\n      tag_206\n        /* \"#utility.yul\":6734:6736   */\n      0x0e\n        /* \"#utility.yul\":6729:6732   */\n      dup4\n        /* \"#utility.yul\":6670:6737   */\n      tag_118\n      jump\t// in\n    tag_206:\n        /* \"#utility.yul\":6663:6737   */\n      swap2\n      pop\n        /* \"#utility.yul\":6746:6839   */\n      tag_207\n        /* \"#utility.yul\":6835:6838   */\n      dup3\n        /* \"#utility.yul\":6746:6839   */\n      tag_126\n      jump\t// in\n    tag_207:\n        /* \"#utility.yul\":6864:6866   */\n      0x20\n        /* \"#utility.yul\":6859:6862   */\n      dup3\n        /* \"#utility.yul\":6855:6867   */\n      add\n        /* \"#utility.yul\":6848:6867   */\n      swap1\n      pop\n        /* \"#utility.yul\":6507:6873   */\n      swap2\n      swap1\n      pop\n      jump\t// out\n        /* \"#utility.yul\":6879:7298   */\n    tag_69:\n        /* \"#utility.yul\":7045:7049   */\n      0x00\n        /* \"#utility.yul\":7083:7085   */\n      0x20\n        /* \"#utility.yul\":7072:7081   */\n      dup3\n        /* \"#utility.yul\":7068:7086   */\n      add\n        /* \"#utility.yul\":7060:7086   */\n      swap1\n      pop\n        /* \"#utility.yul\":7132:7141   */\n      dup2\n        /* \"#utility.yul\":7126:7130   */\n      dup2\n        /* \"#utility.yul\":7122:7142   */\n      sub\n        /* \"#utility.yul\":7118:7119   */\n      0x00\n        /* \"#utility.yul\":7107:7116   */\n      dup4\n        /* \"#utility.yul\":7103:7120   */\n      add\n        /* \"#utility.yul\":7096:7143   */\n      mstore\n        /* \"#utility.yul\":7160:7291   */\n      tag_209\n        /* \"#utility.yul\":7286:7290   */\n      dup2\n        /* \"#utility.yul\":7160:7291   */\n      tag_127\n      jump\t// in\n    tag_209:\n        /* \"#utility.yul\":7152:7291   */\n      swap1\n      pop\n        /* \"#utility.yul\":6879:7298   */\n      swap2\n      swap1\n      pop\n      jump\t// out\n        /* \"#utility.yul\":7304:7746   */\n    tag_72:\n        /* \"#utility.yul\":7453:7457   */\n      0x00\n        /* \"#utility.yul\":7491:7493   */\n      0x60\n        /* \"#utility.yul\":7480:7489   */\n      dup3\n        /* \"#utility.yul\":7476:7494   */\n      add\n        /* \"#utility.yul\":7468:7494   */\n      swap1\n      pop\n        /* \"#utility.yul\":7504:7575   */\n      tag_211\n        /* \"#utility.yul\":7572:7573   */\n      0x00\n        /* \"#utility.yul\":7561:7570   */\n      dup4\n        /* \"#utility.yul\":7557:7574   */\n      add\n        /* \"#utility.yul\":7548:7554   */\n      dup7\n        /* \"#utility.yul\":7504:7575   */\n      tag_122\n      jump\t// in\n    tag_211:\n        /* \"#utility.yul\":7585:7657   */\n      tag_212\n        /* \"#utility.yul\":7653:7655   */\n      0x20\n        /* \"#utility.yul\":7642:7651   */\n      dup4\n        /* \"#utility.yul\":7638:7656   */\n      add\n        /* \"#utility.yul\":7629:7635   */\n      dup6\n        /* \"#utility.yul\":7585:7657   */\n      tag_122\n      jump\t// in\n    tag_212:\n        /* \"#utility.yul\":7667:7739   */\n      tag_213\n        /* \"#utility.yul\":7735:7737   */\n      0x40\n        /* \"#utility.yul\":7724:7733   */\n      dup4\n        /* \"#utility.yul\":7720:7738   */\n      add\n        /* \"#utility.yul\":7711:7717   */\n      dup5\n        /* \"#utility.yul\":7667:7739   */\n      tag_110\n      jump\t// in\n    tag_213:\n        /* \"#utility.yul\":7304:7746   */\n      swap5\n      swap4\n      pop\n      pop\n      pop\n      pop\n      jump\t// out\n        /* \"#utility.yul\":7752:7943   */\n    tag_77:\n        /* \"#utility.yul\":7792:7795   */\n      0x00\n        /* \"#utility.yul\":7811:7831   */\n      tag_215\n        /* \"#utility.yul\":7829:7830   */\n      dup3\n        /* \"#utility.yul\":7811:7831   */\n      tag_109\n      jump\t// in\n    tag_215:\n        /* \"#utility.yul\":7806:7831   */\n      swap2\n      pop\n        /* \"#utility.yul\":7845:7865   */\n      tag_216\n        /* \"#utility.yul\":7863:7864   */\n      dup4\n        /* \"#utility.yul\":7845:7865   */\n      tag_109\n      jump\t// in\n    tag_216:\n        /* \"#utility.yul\":7840:7865   */\n      swap3\n      pop\n        /* \"#utility.yul\":7888:7889   */\n      dup3\n        /* \"#utility.yul\":7885:7886   */\n      dup3\n        /* \"#utility.yul\":7881:7890   */\n      add\n        /* \"#utility.yul\":7874:7890   */\n      swap1\n      pop\n        /* \"#utility.yul\":7909:7912   */\n      dup1\n        /* \"#utility.yul\":7906:7907   */\n      dup3\n        /* \"#utility.yul\":7903:7913   */\n      gt\n        /* \"#utility.yul\":7900:7936   */\n      iszero\n      tag_217\n      jumpi\n        /* \"#utility.yul\":7916:7934   */\n      tag_218\n      tag_121\n      jump\t// in\n    tag_218:\n        /* \"#utility.yul\":7900:7936   */\n    tag_217:\n        /* \"#utility.yul\":7752:7943   */\n      swap3\n      swap2\n      pop\n      pop\n      jump\t// out\n        /* \"#utility.yul\":7949:8359   */\n    tag_79:\n        /* \"#utility.yul\":7989:7996   */\n      0x00\n        /* \"#utility.yul\":8012:8032   */\n      tag_220\n        /* \"#utility.yul\":8030:8031   */\n      dup3\n        /* \"#utility.yul\":8012:8032   */\n      tag_109\n      jump\t// in\n    tag_220:\n        /* \"#utility.yul\":8007:8032   */\n      swap2\n      pop\n        /* \"#utility.yul\":8046:8066   */\n      tag_221\n        /* \"#utility.yul\":8064:8065   */\n      dup4\n        /* \"#utility.yul\":8046:8066   */\n      tag_109\n      jump\t// in\n    tag_221:\n        /* \"#utility.yul\":8041:8066   */\n      swap3\n      pop\n        /* \"#utility.yul\":8101:8102   */\n      dup3\n        /* \"#utility.yul\":8098:8099   */\n      dup3\n        /* \"#utility.yul\":8094:8103   */\n      mul\n        /* \"#utility.yul\":8123:8153   */\n      tag_222\n        /* \"#utility.yul\":8141:8152   */\n      dup2\n        /* \"#utility.yul\":8123:8153   */\n      tag_109\n      jump\t// in\n    tag_222:\n        /* \"#utility.yul\":8112:8153   */\n      swap2\n      pop\n        /* \"#utility.yul\":8302:8303   */\n      dup3\n        /* \"#utility.yul\":8293:8300   */\n      dup3\n        /* \"#utility.yul\":8289:8304   */\n      div\n        /* \"#utility.yul\":8286:8287   */\n      dup5\n        /* \"#utility.yul\":8283:8305   */\n      eq\n        /* \"#utility.yul\":8263:8264   */\n      dup4\n        /* \"#utility.yul\":8256:8265   */\n      iszero\n        /* \"#utility.yul\":8236:8319   */\n      or\n        /* \"#utility.yul\":8213:8352   */\n      tag_223\n      jumpi\n        /* \"#utility.yul\":8332:8350   */\n      tag_224\n      tag_121\n      jump\t// in\n    tag_224:\n        /* \"#utility.yul\":8213:8352   */\n    tag_223:\n        /* \"#utility.yul\":7997:8359   */\n      pop\n        /* \"#utility.yul\":7949:8359   */\n      swap3\n      swap2\n      pop\n      pop\n      jump\t// out\n        /* \"#utility.yul\":8365:8545   */\n    tag_128:\n        /* \"#utility.yul\":8413:8490   */\n      0x4e487b7100000000000000000000000000000000000000000000000000000000\n        /* \"#utility.yul\":8410:8411   */\n      0x00\n        /* \"#utility.yul\":8403:8491   */\n      mstore\n        /* \"#utility.yul\":8510:8514   */\n      0x12\n        /* \"#utility.yul\":8507:8508   */\n      0x04\n        /* \"#utility.yul\":8500:8515   */\n      mstore\n        /* \"#utility.yul\":8534:8538   */\n      0x24\n        /* \"#utility.yul\":8531:8532   */\n      0x00\n        /* \"#utility.yul\":8524:8539   */\n      revert\n        /* \"#utility.yul\":8551:8736   */\n    tag_93:\n        /* \"#utility.yul\":8591:8592   */\n      0x00\n        /* \"#utility.yul\":8608:8628   */\n      tag_227\n        /* \"#utility.yul\":8626:8627   */\n      dup3\n        /* \"#utility.yul\":8608:8628   */\n      tag_109\n      jump\t// in\n    tag_227:\n        /* \"#utility.yul\":8603:8628   */\n      swap2\n      pop\n        /* \"#utility.yul\":8642:8662   */\n      tag_228\n        /* \"#utility.yul\":8660:8661   */\n      dup4\n        /* \"#utility.yul\":8642:8662   */\n      tag_109\n      jump\t// in\n    tag_228:\n        /* \"#utility.yul\":8637:8662   */\n      swap3\n      pop\n        /* \"#utility.yul\":8681:8682   */\n      dup3\n        /* \"#utility.yul\":8671:8706   */\n      tag_229\n      jumpi\n        /* \"#utility.yul\":8686:8704   */\n      tag_230\n      tag_128\n      jump\t// in\n    tag_230:\n        /* \"#utility.yul\":8671:8706   */\n    tag_229:\n        /* \"#utility.yul\":8728:8729   */\n      dup3\n        /* \"#utility.yul\":8725:8726   */\n      dup3\n        /* \"#utility.yul\":8721:8730   */\n      div\n        /* \"#utility.yul\":8716:8730   */\n      swap1\n      pop\n        /* \"#utility.yul\":8551:8736   */\n      swap3\n      swap2\n      pop\n      pop\n      jump\t// out\n\n    auxdata: 0xa26469706673582212209fd68739bede0d5a265a8408155175501a21cb94e9addc1dcd7f8b9961b664ea64736f6c634300081a0033\n}\n",
				"bytecode": {
					"linkReferences": {},
					"object": "608060405234801561000f575f80fd5b50604051610e54380380610e5483398181016040528101906100319190610120565b815f806101000a81548173ffffffffffffffffffffffffffffffffffffffff021916908373ffffffffffffffffffffffffffffffffffffffff16021790555080600181905550505061015e565b5f80fd5b5f73ffffffffffffffffffffffffffffffffffffffff82169050919050565b5f6100ab82610082565b9050919050565b5f6100bc826100a1565b9050919050565b6100cc816100b2565b81146100d6575f80fd5b50565b5f815190506100e7816100c3565b92915050565b5f819050919050565b6100ff816100ed565b8114610109575f80fd5b50565b5f8151905061011a816100f6565b92915050565b5f80604083850312156101365761013561007e565b5b5f610143858286016100d9565b92505060206101548582860161010c565b9150509250929050565b610ce98061016b5f395ff3fe608060405234801561000f575f80fd5b506004361061009c575f3560e01c8063817b1cd211610064578063817b1cd21461015a578063a694fc3a14610178578063b88a802f14610194578063c8f33c911461019e578063d82e3962146101bc5761009c565b80630700037d146100a057806316934fc4146100d05780632e1a7d4d1461010257806372f702f31461011e5780637b0a47ee1461013c575b5f80fd5b6100ba60048036038101906100b59190610857565b6101ec565b6040516100c7919061089a565b60405180910390f35b6100ea60048036038101906100e59190610857565b610201565b6040516100f9939291906108b3565b60405180910390f35b61011c60048036038101906101179190610912565b610227565b005b61012661038d565b6040516101339190610998565b60405180910390f35b6101446103b0565b604051610151919061089a565b60405180910390f35b6101626103b6565b60405161016f919061089a565b60405180910390f35b610192600480360381019061018d9190610912565b6103bc565b005b61019c610550565b005b6101a661067a565b6040516101b3919061089a565b60405180910390f35b6101d660048036038101906101d19190610857565b610680565b6040516101e3919061089a565b60405180910390f35b6005602052805f5260405f205f915090505481565b6004602052805f5260405f205f91509050805f0154908060010154908060020154905083565b5f60045f3373ffffffffffffffffffffffffffffffffffffffff1673ffffffffffffffffffffffffffffffffffffffff1681526020019081526020015f20905081815f015410156102ad576040517f08c379a00000000000000000000000000000000000000000000000000000000081526004016102a490610a31565b60405180910390fd5b6102b63361070a565b81815f015f8282546102c89190610a7c565b925050819055505f8054906101000a900473ffffffffffffffffffffffffffffffffffffffff1673ffffffffffffffffffffffffffffffffffffffff1663a9059cbb33846040518363ffffffff1660e01b8152600401610329929190610abe565b6020604051808303815f875af1158015610345573d5f803e3d5ffd5b505050506040513d601f19601f820116820180604052508101906103699190610b1a565b508160025f82825461037b9190610a7c565b92505081905550426003819055505050565b5f8054906101000a900473ffffffffffffffffffffffffffffffffffffffff1681565b60015481565b60025481565b5f81116103fe576040517f08c379a00000000000000000000000000000000000000000000000000000000081526004016103f590610b8f565b60405180910390fd5b6104073361070a565b5f8054906101000a900473ffffffffffffffffffffffffffffffffffffffff1673ffffffffffffffffffffffffffffffffffffffff166323b872dd3330846040518463ffffffff1660e01b815260040161046393929190610bad565b6020604051808303815f875af115801561047f573d5f803e3d5ffd5b505050506040513d601f19601f820116820180604052508101906104a39190610b1a565b505f60045f3373ffffffffffffffffffffffffffffffffffffffff1673ffffffffffffffffffffffffffffffffffffffff1681526020019081526020015f20905081815f015f8282546104f69190610be2565b925050819055506001548261050b9190610c15565b816001015f82825461051d9190610be2565b925050819055504281600201819055508160025f82825461053e9190610be2565b92505081905550426003819055505050565b6105593361070a565b5f60055f3373ffffffffffffffffffffffffffffffffffffffff1673ffffffffffffffffffffffffffffffffffffffff1681526020019081526020015f205490505f60055f3373ffffffffffffffffffffffffffffffffffffffff1673ffffffffffffffffffffffffffffffffffffffff1681526020019081526020015f20819055505f8054906101000a900473ffffffffffffffffffffffffffffffffffffffff1673ffffffffffffffffffffffffffffffffffffffff1663a9059cbb33836040518363ffffffff1660e01b8152600401610636929190610abe565b6020604051808303815f875af1158015610652573d5f803e3d5ffd5b505050506040513d601f19601f820116820180604052508101906106769190610b1a565b5050565b60035481565b5f8060045f8473ffffffffffffffffffffffffffffffffffffffff1673ffffffffffffffffffffffffffffffffffffffff1681526020019081526020015f2090505f8160020154426106d29190610a7c565b90505f603c82600154855f01546106e99190610c15565b6106f39190610c15565b6106fd9190610c83565b9050809350505050919050565b5f60045f8373ffffffffffffffffffffffffffffffffffffffff1673ffffffffffffffffffffffffffffffffffffffff1681526020019081526020015f2090505f815f015411156107f5575f61075f83610680565b90508060055f8573ffffffffffffffffffffffffffffffffffffffff1673ffffffffffffffffffffffffffffffffffffffff1681526020019081526020015f205f8282546107ad9190610be2565b92505081905550603c8260020154426107c69190610a7c565b600154845f01546107d79190610c15565b6107e19190610c15565b6107eb9190610c83565b8260010181905550505b5050565b5f80fd5b5f73ffffffffffffffffffffffffffffffffffffffff82169050919050565b5f610826826107fd565b9050919050565b6108368161081c565b8114610840575f80fd5b50565b5f813590506108518161082d565b92915050565b5f6020828403121561086c5761086b6107f9565b5b5f61087984828501610843565b91505092915050565b5f819050919050565b61089481610882565b82525050565b5f6020820190506108ad5f83018461088b565b92915050565b5f6060820190506108c65f83018661088b565b6108d3602083018561088b565b6108e0604083018461088b565b949350505050565b6108f181610882565b81146108fb575f80fd5b50565b5f8135905061090c816108e8565b92915050565b5f60208284031215610927576109266107f9565b5b5f610934848285016108fe565b91505092915050565b5f819050919050565b5f61096061095b610956846107fd565b61093d565b6107fd565b9050919050565b5f61097182610946565b9050919050565b5f61098282610967565b9050919050565b61099281610978565b82525050565b5f6020820190506109ab5f830184610989565b92915050565b5f82825260208201905092915050565b7f576974686472617720616d6f756e742065786365656473207374616b656420615f8201527f6d6f756e74000000000000000000000000000000000000000000000000000000602082015250565b5f610a1b6025836109b1565b9150610a26826109c1565b604082019050919050565b5f6020820190508181035f830152610a4881610a0f565b9050919050565b7f4e487b71000000000000000000000000000000000000000000000000000000005f52601160045260245ffd5b5f610a8682610882565b9150610a9183610882565b9250828203905081811115610aa957610aa8610a4f565b5b92915050565b610ab88161081c565b82525050565b5f604082019050610ad15f830185610aaf565b610ade602083018461088b565b9392505050565b5f8115159050919050565b610af981610ae5565b8114610b03575f80fd5b50565b5f81519050610b1481610af0565b92915050565b5f60208284031215610b2f57610b2e6107f9565b5b5f610b3c84828501610b06565b91505092915050565b7f43616e6e6f74207374616b6520300000000000000000000000000000000000005f82015250565b5f610b79600e836109b1565b9150610b8482610b45565b602082019050919050565b5f6020820190508181035f830152610ba681610b6d565b9050919050565b5f606082019050610bc05f830186610aaf565b610bcd6020830185610aaf565b610bda604083018461088b565b949350505050565b5f610bec82610882565b9150610bf783610882565b9250828201905080821115610c0f57610c0e610a4f565b5b92915050565b5f610c1f82610882565b9150610c2a83610882565b9250828202610c3881610882565b91508282048414831517610c4f57610c4e610a4f565b5b5092915050565b7f4e487b71000000000000000000000000000000000000000000000000000000005f52601260045260245ffd5b5f610c8d82610882565b9150610c9883610882565b925082610ca857610ca7610c56565b5b82820490509291505056fea26469706673582212209fd68739bede0d5a265a8408155175501a21cb94e9addc1dcd7f8b9961b664ea64736f6c634300081a0033",
					"opcodes": "PUSH1 0x80 PUSH1 0x40 MSTORE CALLVALUE DUP1 ISZERO PUSH2 0xF JUMPI PUSH0 DUP1 REVERT JUMPDEST POP PUSH1 0x40 MLOAD PUSH2 0xE54 CODESIZE SUB DUP1 PUSH2 0xE54 DUP4 CODECOPY DUP2 DUP2 ADD PUSH1 0x40 MSTORE DUP2 ADD SWAP1 PUSH2 0x31 SWAP2 SWAP1 PUSH2 0x120 JUMP JUMPDEST DUP2 PUSH0 DUP1 PUSH2 0x100 EXP DUP2 SLOAD DUP2 PUSH20 0xFFFFFFFFFFFFFFFFFFFFFFFFFFFFFFFFFFFFFFFF MUL NOT AND SWAP1 DUP4 PUSH20 0xFFFFFFFFFFFFFFFFFFFFFFFFFFFFFFFFFFFFFFFF AND MUL OR SWAP1 SSTORE POP DUP1 PUSH1 0x1 DUP2 SWAP1 SSTORE POP POP POP PUSH2 0x15E JUMP JUMPDEST PUSH0 DUP1 REVERT JUMPDEST PUSH0 PUSH20 0xFFFFFFFFFFFFFFFFFFFFFFFFFFFFFFFFFFFFFFFF DUP3 AND SWAP1 POP SWAP2 SWAP1 POP JUMP JUMPDEST PUSH0 PUSH2 0xAB DUP3 PUSH2 0x82 JUMP JUMPDEST SWAP1 POP SWAP2 SWAP1 POP JUMP JUMPDEST PUSH0 PUSH2 0xBC DUP3 PUSH2 0xA1 JUMP JUMPDEST SWAP1 POP SWAP2 SWAP1 POP JUMP JUMPDEST PUSH2 0xCC DUP2 PUSH2 0xB2 JUMP JUMPDEST DUP2 EQ PUSH2 0xD6 JUMPI PUSH0 DUP1 REVERT JUMPDEST POP JUMP JUMPDEST PUSH0 DUP2 MLOAD SWAP1 POP PUSH2 0xE7 DUP2 PUSH2 0xC3 JUMP JUMPDEST SWAP3 SWAP2 POP POP JUMP JUMPDEST PUSH0 DUP2 SWAP1 POP SWAP2 SWAP1 POP JUMP JUMPDEST PUSH2 0xFF DUP2 PUSH2 0xED JUMP JUMPDEST DUP2 EQ PUSH2 0x109 JUMPI PUSH0 DUP1 REVERT JUMPDEST POP JUMP JUMPDEST PUSH0 DUP2 MLOAD SWAP1 POP PUSH2 0x11A DUP2 PUSH2 0xF6 JUMP JUMPDEST SWAP3 SWAP2 POP POP JUMP JUMPDEST PUSH0 DUP1 PUSH1 0x40 DUP4 DUP6 SUB SLT ISZERO PUSH2 0x136 JUMPI PUSH2 0x135 PUSH2 0x7E JUMP JUMPDEST JUMPDEST PUSH0 PUSH2 0x143 DUP6 DUP3 DUP7 ADD PUSH2 0xD9 JUMP JUMPDEST SWAP3 POP POP PUSH1 0x20 PUSH2 0x154 DUP6 DUP3 DUP7 ADD PUSH2 0x10C JUMP JUMPDEST SWAP2 POP POP SWAP3 POP SWAP3 SWAP1 POP JUMP JUMPDEST PUSH2 0xCE9 DUP1 PUSH2 0x16B PUSH0 CODECOPY PUSH0 RETURN INVALID PUSH1 0x80 PUSH1 0x40 MSTORE CALLVALUE DUP1 ISZERO PUSH2 0xF JUMPI PUSH0 DUP1 REVERT JUMPDEST POP PUSH1 0x4 CALLDATASIZE LT PUSH2 0x9C JUMPI PUSH0 CALLDATALOAD PUSH1 0xE0 SHR DUP1 PUSH4 0x817B1CD2 GT PUSH2 0x64 JUMPI DUP1 PUSH4 0x817B1CD2 EQ PUSH2 0x15A JUMPI DUP1 PUSH4 0xA694FC3A EQ PUSH2 0x178 JUMPI DUP1 PUSH4 0xB88A802F EQ PUSH2 0x194 JUMPI DUP1 PUSH4 0xC8F33C91 EQ PUSH2 0x19E JUMPI DUP1 PUSH4 0xD82E3962 EQ PUSH2 0x1BC JUMPI PUSH2 0x9C JUMP JUMPDEST DUP1 PUSH4 0x700037D EQ PUSH2 0xA0 JUMPI DUP1 PUSH4 0x16934FC4 EQ PUSH2 0xD0 JUMPI DUP1 PUSH4 0x2E1A7D4D EQ PUSH2 0x102 JUMPI DUP1 PUSH4 0x72F702F3 EQ PUSH2 0x11E JUMPI DUP1 PUSH4 0x7B0A47EE EQ PUSH2 0x13C JUMPI JUMPDEST PUSH0 DUP1 REVERT JUMPDEST PUSH2 0xBA PUSH1 0x4 DUP1 CALLDATASIZE SUB DUP2 ADD SWAP1 PUSH2 0xB5 SWAP2 SWAP1 PUSH2 0x857 JUMP JUMPDEST PUSH2 0x1EC JUMP JUMPDEST PUSH1 0x40 MLOAD PUSH2 0xC7 SWAP2 SWAP1 PUSH2 0x89A JUMP JUMPDEST PUSH1 0x40 MLOAD DUP1 SWAP2 SUB SWAP1 RETURN JUMPDEST PUSH2 0xEA PUSH1 0x4 DUP1 CALLDATASIZE SUB DUP2 ADD SWAP1 PUSH2 0xE5 SWAP2 SWAP1 PUSH2 0x857 JUMP JUMPDEST PUSH2 0x201 JUMP JUMPDEST PUSH1 0x40 MLOAD PUSH2 0xF9 SWAP4 SWAP3 SWAP2 SWAP1 PUSH2 0x8B3 JUMP JUMPDEST PUSH1 0x40 MLOAD DUP1 SWAP2 SUB SWAP1 RETURN JUMPDEST PUSH2 0x11C PUSH1 0x4 DUP1 CALLDATASIZE SUB DUP2 ADD SWAP1 PUSH2 0x117 SWAP2 SWAP1 PUSH2 0x912 JUMP JUMPDEST PUSH2 0x227 JUMP JUMPDEST STOP JUMPDEST PUSH2 0x126 PUSH2 0x38D JUMP JUMPDEST PUSH1 0x40 MLOAD PUSH2 0x133 SWAP2 SWAP1 PUSH2 0x998 JUMP JUMPDEST PUSH1 0x40 MLOAD DUP1 SWAP2 SUB SWAP1 RETURN JUMPDEST PUSH2 0x144 PUSH2 0x3B0 JUMP JUMPDEST PUSH1 0x40 MLOAD PUSH2 0x151 SWAP2 SWAP1 PUSH2 0x89A JUMP JUMPDEST PUSH1 0x40 MLOAD DUP1 SWAP2 SUB SWAP1 RETURN JUMPDEST PUSH2 0x162 PUSH2 0x3B6 JUMP JUMPDEST PUSH1 0x40 MLOAD PUSH2 0x16F SWAP2 SWAP1 PUSH2 0x89A JUMP JUMPDEST PUSH1 0x40 MLOAD DUP1 SWAP2 SUB SWAP1 RETURN JUMPDEST PUSH2 0x192 PUSH1 0x4 DUP1 CALLDATASIZE SUB DUP2 ADD SWAP1 PUSH2 0x18D SWAP2 SWAP1 PUSH2 0x912 JUMP JUMPDEST PUSH2 0x3BC JUMP JUMPDEST STOP JUMPDEST PUSH2 0x19C PUSH2 0x550 JUMP JUMPDEST STOP JUMPDEST PUSH2 0x1A6 PUSH2 0x67A JUMP JUMPDEST PUSH1 0x40 MLOAD PUSH2 0x1B3 SWAP2 SWAP1 PUSH2 0x89A JUMP JUMPDEST PUSH1 0x40 MLOAD DUP1 SWAP2 SUB SWAP1 RETURN JUMPDEST PUSH2 0x1D6 PUSH1 0x4 DUP1 CALLDATASIZE SUB DUP2 ADD SWAP1 PUSH2 0x1D1 SWAP2 SWAP1 PUSH2 0x857 JUMP JUMPDEST PUSH2 0x680 JUMP JUMPDEST PUSH1 0x40 MLOAD PUSH2 0x1E3 SWAP2 SWAP1 PUSH2 0x89A JUMP JUMPDEST PUSH1 0x40 MLOAD DUP1 SWAP2 SUB SWAP1 RETURN JUMPDEST PUSH1 0x5 PUSH1 0x20 MSTORE DUP1 PUSH0 MSTORE PUSH1 0x40 PUSH0 KECCAK256 PUSH0 SWAP2 POP SWAP1 POP SLOAD DUP2 JUMP JUMPDEST PUSH1 0x4 PUSH1 0x20 MSTORE DUP1 PUSH0 MSTORE PUSH1 0x40 PUSH0 KECCAK256 PUSH0 SWAP2 POP SWAP1 POP DUP1 PUSH0 ADD SLOAD SWAP1 DUP1 PUSH1 0x1 ADD SLOAD SWAP1 DUP1 PUSH1 0x2 ADD SLOAD SWAP1 POP DUP4 JUMP JUMPDEST PUSH0 PUSH1 0x4 PUSH0 CALLER PUSH20 0xFFFFFFFFFFFFFFFFFFFFFFFFFFFFFFFFFFFFFFFF AND PUSH20 0xFFFFFFFFFFFFFFFFFFFFFFFFFFFFFFFFFFFFFFFF AND DUP2 MSTORE PUSH1 0x20 ADD SWAP1 DUP2 MSTORE PUSH1 0x20 ADD PUSH0 KECCAK256 SWAP1 POP DUP2 DUP2 PUSH0 ADD SLOAD LT ISZERO PUSH2 0x2AD JUMPI PUSH1 0x40 MLOAD PUSH32 0x8C379A000000000000000000000000000000000000000000000000000000000 DUP2 MSTORE PUSH1 0x4 ADD PUSH2 0x2A4 SWAP1 PUSH2 0xA31 JUMP JUMPDEST PUSH1 0x40 MLOAD DUP1 SWAP2 SUB SWAP1 REVERT JUMPDEST PUSH2 0x2B6 CALLER PUSH2 0x70A JUMP JUMPDEST DUP2 DUP2 PUSH0 ADD PUSH0 DUP3 DUP3 SLOAD PUSH2 0x2C8 SWAP2 SWAP1 PUSH2 0xA7C JUMP JUMPDEST SWAP3 POP POP DUP2 SWAP1 SSTORE POP PUSH0 DUP1 SLOAD SWAP1 PUSH2 0x100 EXP SWAP1 DIV PUSH20 0xFFFFFFFFFFFFFFFFFFFFFFFFFFFFFFFFFFFFFFFF AND PUSH20 0xFFFFFFFFFFFFFFFFFFFFFFFFFFFFFFFFFFFFFFFF AND PUSH4 0xA9059CBB CALLER DUP5 PUSH1 0x40 MLOAD DUP4 PUSH4 0xFFFFFFFF AND PUSH1 0xE0 SHL DUP2 MSTORE PUSH1 0x4 ADD PUSH2 0x329 SWAP3 SWAP2 SWAP1 PUSH2 0xABE JUMP JUMPDEST PUSH1 0x20 PUSH1 0x40 MLOAD DUP1 DUP4 SUB DUP2 PUSH0 DUP8 GAS CALL ISZERO DUP1 ISZERO PUSH2 0x345 JUMPI RETURNDATASIZE PUSH0 DUP1 RETURNDATACOPY RETURNDATASIZE PUSH0 REVERT JUMPDEST POP POP POP POP PUSH1 0x40 MLOAD RETURNDATASIZE PUSH1 0x1F NOT PUSH1 0x1F DUP3 ADD AND DUP3 ADD DUP1 PUSH1 0x40 MSTORE POP DUP2 ADD SWAP1 PUSH2 0x369 SWAP2 SWAP1 PUSH2 0xB1A JUMP JUMPDEST POP DUP2 PUSH1 0x2 PUSH0 DUP3 DUP3 SLOAD PUSH2 0x37B SWAP2 SWAP1 PUSH2 0xA7C JUMP JUMPDEST SWAP3 POP POP DUP2 SWAP1 SSTORE POP TIMESTAMP PUSH1 0x3 DUP2 SWAP1 SSTORE POP POP POP JUMP JUMPDEST PUSH0 DUP1 SLOAD SWAP1 PUSH2 0x100 EXP SWAP1 DIV PUSH20 0xFFFFFFFFFFFFFFFFFFFFFFFFFFFFFFFFFFFFFFFF AND DUP2 JUMP JUMPDEST PUSH1 0x1 SLOAD DUP2 JUMP JUMPDEST PUSH1 0x2 SLOAD DUP2 JUMP JUMPDEST PUSH0 DUP2 GT PUSH2 0x3FE JUMPI PUSH1 0x40 MLOAD PUSH32 0x8C379A000000000000000000000000000000000000000000000000000000000 DUP2 MSTORE PUSH1 0x4 ADD PUSH2 0x3F5 SWAP1 PUSH2 0xB8F JUMP JUMPDEST PUSH1 0x40 MLOAD DUP1 SWAP2 SUB SWAP1 REVERT JUMPDEST PUSH2 0x407 CALLER PUSH2 0x70A JUMP JUMPDEST PUSH0 DUP1 SLOAD SWAP1 PUSH2 0x100 EXP SWAP1 DIV PUSH20 0xFFFFFFFFFFFFFFFFFFFFFFFFFFFFFFFFFFFFFFFF AND PUSH20 0xFFFFFFFFFFFFFFFFFFFFFFFFFFFFFFFFFFFFFFFF AND PUSH4 0x23B872DD CALLER ADDRESS DUP5 PUSH1 0x40 MLOAD DUP5 PUSH4 0xFFFFFFFF AND PUSH1 0xE0 SHL DUP2 MSTORE PUSH1 0x4 ADD PUSH2 0x463 SWAP4 SWAP3 SWAP2 SWAP1 PUSH2 0xBAD JUMP JUMPDEST PUSH1 0x20 PUSH1 0x40 MLOAD DUP1 DUP4 SUB DUP2 PUSH0 DUP8 GAS CALL ISZERO DUP1 ISZERO PUSH2 0x47F JUMPI RETURNDATASIZE PUSH0 DUP1 RETURNDATACOPY RETURNDATASIZE PUSH0 REVERT JUMPDEST POP POP POP POP PUSH1 0x40 MLOAD RETURNDATASIZE PUSH1 0x1F NOT PUSH1 0x1F DUP3 ADD AND DUP3 ADD DUP1 PUSH1 0x40 MSTORE POP DUP2 ADD SWAP1 PUSH2 0x4A3 SWAP2 SWAP1 PUSH2 0xB1A JUMP JUMPDEST POP PUSH0 PUSH1 0x4 PUSH0 CALLER PUSH20 0xFFFFFFFFFFFFFFFFFFFFFFFFFFFFFFFFFFFFFFFF AND PUSH20 0xFFFFFFFFFFFFFFFFFFFFFFFFFFFFFFFFFFFFFFFF AND DUP2 MSTORE PUSH1 0x20 ADD SWAP1 DUP2 MSTORE PUSH1 0x20 ADD PUSH0 KECCAK256 SWAP1 POP DUP2 DUP2 PUSH0 ADD PUSH0 DUP3 DUP3 SLOAD PUSH2 0x4F6 SWAP2 SWAP1 PUSH2 0xBE2 JUMP JUMPDEST SWAP3 POP POP DUP2 SWAP1 SSTORE POP PUSH1 0x1 SLOAD DUP3 PUSH2 0x50B SWAP2 SWAP1 PUSH2 0xC15 JUMP JUMPDEST DUP2 PUSH1 0x1 ADD PUSH0 DUP3 DUP3 SLOAD PUSH2 0x51D SWAP2 SWAP1 PUSH2 0xBE2 JUMP JUMPDEST SWAP3 POP POP DUP2 SWAP1 SSTORE POP TIMESTAMP DUP2 PUSH1 0x2 ADD DUP2 SWAP1 SSTORE POP DUP2 PUSH1 0x2 PUSH0 DUP3 DUP3 SLOAD PUSH2 0x53E SWAP2 SWAP1 PUSH2 0xBE2 JUMP JUMPDEST SWAP3 POP POP DUP2 SWAP1 SSTORE POP TIMESTAMP PUSH1 0x3 DUP2 SWAP1 SSTORE POP POP POP JUMP JUMPDEST PUSH2 0x559 CALLER PUSH2 0x70A JUMP JUMPDEST PUSH0 PUSH1 0x5 PUSH0 CALLER PUSH20 0xFFFFFFFFFFFFFFFFFFFFFFFFFFFFFFFFFFFFFFFF AND PUSH20 0xFFFFFFFFFFFFFFFFFFFFFFFFFFFFFFFFFFFFFFFF AND DUP2 MSTORE PUSH1 0x20 ADD SWAP1 DUP2 MSTORE PUSH1 0x20 ADD PUSH0 KECCAK256 SLOAD SWAP1 POP PUSH0 PUSH1 0x5 PUSH0 CALLER PUSH20 0xFFFFFFFFFFFFFFFFFFFFFFFFFFFFFFFFFFFFFFFF AND PUSH20 0xFFFFFFFFFFFFFFFFFFFFFFFFFFFFFFFFFFFFFFFF AND DUP2 MSTORE PUSH1 0x20 ADD SWAP1 DUP2 MSTORE PUSH1 0x20 ADD PUSH0 KECCAK256 DUP2 SWAP1 SSTORE POP PUSH0 DUP1 SLOAD SWAP1 PUSH2 0x100 EXP SWAP1 DIV PUSH20 0xFFFFFFFFFFFFFFFFFFFFFFFFFFFFFFFFFFFFFFFF AND PUSH20 0xFFFFFFFFFFFFFFFFFFFFFFFFFFFFFFFFFFFFFFFF AND PUSH4 0xA9059CBB CALLER DUP4 PUSH1 0x40 MLOAD DUP4 PUSH4 0xFFFFFFFF AND PUSH1 0xE0 SHL DUP2 MSTORE PUSH1 0x4 ADD PUSH2 0x636 SWAP3 SWAP2 SWAP1 PUSH2 0xABE JUMP JUMPDEST PUSH1 0x20 PUSH1 0x40 MLOAD DUP1 DUP4 SUB DUP2 PUSH0 DUP8 GAS CALL ISZERO DUP1 ISZERO PUSH2 0x652 JUMPI RETURNDATASIZE PUSH0 DUP1 RETURNDATACOPY RETURNDATASIZE PUSH0 REVERT JUMPDEST POP POP POP POP PUSH1 0x40 MLOAD RETURNDATASIZE PUSH1 0x1F NOT PUSH1 0x1F DUP3 ADD AND DUP3 ADD DUP1 PUSH1 0x40 MSTORE POP DUP2 ADD SWAP1 PUSH2 0x676 SWAP2 SWAP1 PUSH2 0xB1A JUMP JUMPDEST POP POP JUMP JUMPDEST PUSH1 0x3 SLOAD DUP2 JUMP JUMPDEST PUSH0 DUP1 PUSH1 0x4 PUSH0 DUP5 PUSH20 0xFFFFFFFFFFFFFFFFFFFFFFFFFFFFFFFFFFFFFFFF AND PUSH20 0xFFFFFFFFFFFFFFFFFFFFFFFFFFFFFFFFFFFFFFFF AND DUP2 MSTORE PUSH1 0x20 ADD SWAP1 DUP2 MSTORE PUSH1 0x20 ADD PUSH0 KECCAK256 SWAP1 POP PUSH0 DUP2 PUSH1 0x2 ADD SLOAD TIMESTAMP PUSH2 0x6D2 SWAP2 SWAP1 PUSH2 0xA7C JUMP JUMPDEST SWAP1 POP PUSH0 PUSH1 0x3C DUP3 PUSH1 0x1 SLOAD DUP6 PUSH0 ADD SLOAD PUSH2 0x6E9 SWAP2 SWAP1 PUSH2 0xC15 JUMP JUMPDEST PUSH2 0x6F3 SWAP2 SWAP1 PUSH2 0xC15 JUMP JUMPDEST PUSH2 0x6FD SWAP2 SWAP1 PUSH2 0xC83 JUMP JUMPDEST SWAP1 POP DUP1 SWAP4 POP POP POP POP SWAP2 SWAP1 POP JUMP JUMPDEST PUSH0 PUSH1 0x4 PUSH0 DUP4 PUSH20 0xFFFFFFFFFFFFFFFFFFFFFFFFFFFFFFFFFFFFFFFF AND PUSH20 0xFFFFFFFFFFFFFFFFFFFFFFFFFFFFFFFFFFFFFFFF AND DUP2 MSTORE PUSH1 0x20 ADD SWAP1 DUP2 MSTORE PUSH1 0x20 ADD PUSH0 KECCAK256 SWAP1 POP PUSH0 DUP2 PUSH0 ADD SLOAD GT ISZERO PUSH2 0x7F5 JUMPI PUSH0 PUSH2 0x75F DUP4 PUSH2 0x680 JUMP JUMPDEST SWAP1 POP DUP1 PUSH1 0x5 PUSH0 DUP6 PUSH20 0xFFFFFFFFFFFFFFFFFFFFFFFFFFFFFFFFFFFFFFFF AND PUSH20 0xFFFFFFFFFFFFFFFFFFFFFFFFFFFFFFFFFFFFFFFF AND DUP2 MSTORE PUSH1 0x20 ADD SWAP1 DUP2 MSTORE PUSH1 0x20 ADD PUSH0 KECCAK256 PUSH0 DUP3 DUP3 SLOAD PUSH2 0x7AD SWAP2 SWAP1 PUSH2 0xBE2 JUMP JUMPDEST SWAP3 POP POP DUP2 SWAP1 SSTORE POP PUSH1 0x3C DUP3 PUSH1 0x2 ADD SLOAD TIMESTAMP PUSH2 0x7C6 SWAP2 SWAP1 PUSH2 0xA7C JUMP JUMPDEST PUSH1 0x1 SLOAD DUP5 PUSH0 ADD SLOAD PUSH2 0x7D7 SWAP2 SWAP1 PUSH2 0xC15 JUMP JUMPDEST PUSH2 0x7E1 SWAP2 SWAP1 PUSH2 0xC15 JUMP JUMPDEST PUSH2 0x7EB SWAP2 SWAP1 PUSH2 0xC83 JUMP JUMPDEST DUP3 PUSH1 0x1 ADD DUP2 SWAP1 SSTORE POP POP JUMPDEST POP POP JUMP JUMPDEST PUSH0 DUP1 REVERT JUMPDEST PUSH0 PUSH20 0xFFFFFFFFFFFFFFFFFFFFFFFFFFFFFFFFFFFFFFFF DUP3 AND SWAP1 POP SWAP2 SWAP1 POP JUMP JUMPDEST PUSH0 PUSH2 0x826 DUP3 PUSH2 0x7FD JUMP JUMPDEST SWAP1 POP SWAP2 SWAP1 POP JUMP JUMPDEST PUSH2 0x836 DUP2 PUSH2 0x81C JUMP JUMPDEST DUP2 EQ PUSH2 0x840 JUMPI PUSH0 DUP1 REVERT JUMPDEST POP JUMP JUMPDEST PUSH0 DUP2 CALLDATALOAD SWAP1 POP PUSH2 0x851 DUP2 PUSH2 0x82D JUMP JUMPDEST SWAP3 SWAP2 POP POP JUMP JUMPDEST PUSH0 PUSH1 0x20 DUP3 DUP5 SUB SLT ISZERO PUSH2 0x86C JUMPI PUSH2 0x86B PUSH2 0x7F9 JUMP JUMPDEST JUMPDEST PUSH0 PUSH2 0x879 DUP5 DUP3 DUP6 ADD PUSH2 0x843 JUMP JUMPDEST SWAP2 POP POP SWAP3 SWAP2 POP POP JUMP JUMPDEST PUSH0 DUP2 SWAP1 POP SWAP2 SWAP1 POP JUMP JUMPDEST PUSH2 0x894 DUP2 PUSH2 0x882 JUMP JUMPDEST DUP3 MSTORE POP POP JUMP JUMPDEST PUSH0 PUSH1 0x20 DUP3 ADD SWAP1 POP PUSH2 0x8AD PUSH0 DUP4 ADD DUP5 PUSH2 0x88B JUMP JUMPDEST SWAP3 SWAP2 POP POP JUMP JUMPDEST PUSH0 PUSH1 0x60 DUP3 ADD SWAP1 POP PUSH2 0x8C6 PUSH0 DUP4 ADD DUP7 PUSH2 0x88B JUMP JUMPDEST PUSH2 0x8D3 PUSH1 0x20 DUP4 ADD DUP6 PUSH2 0x88B JUMP JUMPDEST PUSH2 0x8E0 PUSH1 0x40 DUP4 ADD DUP5 PUSH2 0x88B JUMP JUMPDEST SWAP5 SWAP4 POP POP POP POP JUMP JUMPDEST PUSH2 0x8F1 DUP2 PUSH2 0x882 JUMP JUMPDEST DUP2 EQ PUSH2 0x8FB JUMPI PUSH0 DUP1 REVERT JUMPDEST POP JUMP JUMPDEST PUSH0 DUP2 CALLDATALOAD SWAP1 POP PUSH2 0x90C DUP2 PUSH2 0x8E8 JUMP JUMPDEST SWAP3 SWAP2 POP POP JUMP JUMPDEST PUSH0 PUSH1 0x20 DUP3 DUP5 SUB SLT ISZERO PUSH2 0x927 JUMPI PUSH2 0x926 PUSH2 0x7F9 JUMP JUMPDEST JUMPDEST PUSH0 PUSH2 0x934 DUP5 DUP3 DUP6 ADD PUSH2 0x8FE JUMP JUMPDEST SWAP2 POP POP SWAP3 SWAP2 POP POP JUMP JUMPDEST PUSH0 DUP2 SWAP1 POP SWAP2 SWAP1 POP JUMP JUMPDEST PUSH0 PUSH2 0x960 PUSH2 0x95B PUSH2 0x956 DUP5 PUSH2 0x7FD JUMP JUMPDEST PUSH2 0x93D JUMP JUMPDEST PUSH2 0x7FD JUMP JUMPDEST SWAP1 POP SWAP2 SWAP1 POP JUMP JUMPDEST PUSH0 PUSH2 0x971 DUP3 PUSH2 0x946 JUMP JUMPDEST SWAP1 POP SWAP2 SWAP1 POP JUMP JUMPDEST PUSH0 PUSH2 0x982 DUP3 PUSH2 0x967 JUMP JUMPDEST SWAP1 POP SWAP2 SWAP1 POP JUMP JUMPDEST PUSH2 0x992 DUP2 PUSH2 0x978 JUMP JUMPDEST DUP3 MSTORE POP POP JUMP JUMPDEST PUSH0 PUSH1 0x20 DUP3 ADD SWAP1 POP PUSH2 0x9AB PUSH0 DUP4 ADD DUP5 PUSH2 0x989 JUMP JUMPDEST SWAP3 SWAP2 POP POP JUMP JUMPDEST PUSH0 DUP3 DUP3 MSTORE PUSH1 0x20 DUP3 ADD SWAP1 POP SWAP3 SWAP2 POP POP JUMP JUMPDEST PUSH32 0x576974686472617720616D6F756E742065786365656473207374616B65642061 PUSH0 DUP3 ADD MSTORE PUSH32 0x6D6F756E74000000000000000000000000000000000000000000000000000000 PUSH1 0x20 DUP3 ADD MSTORE POP JUMP JUMPDEST PUSH0 PUSH2 0xA1B PUSH1 0x25 DUP4 PUSH2 0x9B1 JUMP JUMPDEST SWAP2 POP PUSH2 0xA26 DUP3 PUSH2 0x9C1 JUMP JUMPDEST PUSH1 0x40 DUP3 ADD SWAP1 POP SWAP2 SWAP1 POP JUMP JUMPDEST PUSH0 PUSH1 0x20 DUP3 ADD SWAP1 POP DUP2 DUP2 SUB PUSH0 DUP4 ADD MSTORE PUSH2 0xA48 DUP2 PUSH2 0xA0F JUMP JUMPDEST SWAP1 POP SWAP2 SWAP1 POP JUMP JUMPDEST PUSH32 0x4E487B7100000000000000000000000000000000000000000000000000000000 PUSH0 MSTORE PUSH1 0x11 PUSH1 0x4 MSTORE PUSH1 0x24 PUSH0 REVERT JUMPDEST PUSH0 PUSH2 0xA86 DUP3 PUSH2 0x882 JUMP JUMPDEST SWAP2 POP PUSH2 0xA91 DUP4 PUSH2 0x882 JUMP JUMPDEST SWAP3 POP DUP3 DUP3 SUB SWAP1 POP DUP2 DUP2 GT ISZERO PUSH2 0xAA9 JUMPI PUSH2 0xAA8 PUSH2 0xA4F JUMP JUMPDEST JUMPDEST SWAP3 SWAP2 POP POP JUMP JUMPDEST PUSH2 0xAB8 DUP2 PUSH2 0x81C JUMP JUMPDEST DUP3 MSTORE POP POP JUMP JUMPDEST PUSH0 PUSH1 0x40 DUP3 ADD SWAP1 POP PUSH2 0xAD1 PUSH0 DUP4 ADD DUP6 PUSH2 0xAAF JUMP JUMPDEST PUSH2 0xADE PUSH1 0x20 DUP4 ADD DUP5 PUSH2 0x88B JUMP JUMPDEST SWAP4 SWAP3 POP POP POP JUMP JUMPDEST PUSH0 DUP2 ISZERO ISZERO SWAP1 POP SWAP2 SWAP1 POP JUMP JUMPDEST PUSH2 0xAF9 DUP2 PUSH2 0xAE5 JUMP JUMPDEST DUP2 EQ PUSH2 0xB03 JUMPI PUSH0 DUP1 REVERT JUMPDEST POP JUMP JUMPDEST PUSH0 DUP2 MLOAD SWAP1 POP PUSH2 0xB14 DUP2 PUSH2 0xAF0 JUMP JUMPDEST SWAP3 SWAP2 POP POP JUMP JUMPDEST PUSH0 PUSH1 0x20 DUP3 DUP5 SUB SLT ISZERO PUSH2 0xB2F JUMPI PUSH2 0xB2E PUSH2 0x7F9 JUMP JUMPDEST JUMPDEST PUSH0 PUSH2 0xB3C DUP5 DUP3 DUP6 ADD PUSH2 0xB06 JUMP JUMPDEST SWAP2 POP POP SWAP3 SWAP2 POP POP JUMP JUMPDEST PUSH32 0x43616E6E6F74207374616B652030000000000000000000000000000000000000 PUSH0 DUP3 ADD MSTORE POP JUMP JUMPDEST PUSH0 PUSH2 0xB79 PUSH1 0xE DUP4 PUSH2 0x9B1 JUMP JUMPDEST SWAP2 POP PUSH2 0xB84 DUP3 PUSH2 0xB45 JUMP JUMPDEST PUSH1 0x20 DUP3 ADD SWAP1 POP SWAP2 SWAP1 POP JUMP JUMPDEST PUSH0 PUSH1 0x20 DUP3 ADD SWAP1 POP DUP2 DUP2 SUB PUSH0 DUP4 ADD MSTORE PUSH2 0xBA6 DUP2 PUSH2 0xB6D JUMP JUMPDEST SWAP1 POP SWAP2 SWAP1 POP JUMP JUMPDEST PUSH0 PUSH1 0x60 DUP3 ADD SWAP1 POP PUSH2 0xBC0 PUSH0 DUP4 ADD DUP7 PUSH2 0xAAF JUMP JUMPDEST PUSH2 0xBCD PUSH1 0x20 DUP4 ADD DUP6 PUSH2 0xAAF JUMP JUMPDEST PUSH2 0xBDA PUSH1 0x40 DUP4 ADD DUP5 PUSH2 0x88B JUMP JUMPDEST SWAP5 SWAP4 POP POP POP POP JUMP JUMPDEST PUSH0 PUSH2 0xBEC DUP3 PUSH2 0x882 JUMP JUMPDEST SWAP2 POP PUSH2 0xBF7 DUP4 PUSH2 0x882 JUMP JUMPDEST SWAP3 POP DUP3 DUP3 ADD SWAP1 POP DUP1 DUP3 GT ISZERO PUSH2 0xC0F JUMPI PUSH2 0xC0E PUSH2 0xA4F JUMP JUMPDEST JUMPDEST SWAP3 SWAP2 POP POP JUMP JUMPDEST PUSH0 PUSH2 0xC1F DUP3 PUSH2 0x882 JUMP JUMPDEST SWAP2 POP PUSH2 0xC2A DUP4 PUSH2 0x882 JUMP JUMPDEST SWAP3 POP DUP3 DUP3 MUL PUSH2 0xC38 DUP2 PUSH2 0x882 JUMP JUMPDEST SWAP2 POP DUP3 DUP3 DIV DUP5 EQ DUP4 ISZERO OR PUSH2 0xC4F JUMPI PUSH2 0xC4E PUSH2 0xA4F JUMP JUMPDEST JUMPDEST POP SWAP3 SWAP2 POP POP JUMP JUMPDEST PUSH32 0x4E487B7100000000000000000000000000000000000000000000000000000000 PUSH0 MSTORE PUSH1 0x12 PUSH1 0x4 MSTORE PUSH1 0x24 PUSH0 REVERT JUMPDEST PUSH0 PUSH2 0xC8D DUP3 PUSH2 0x882 JUMP JUMPDEST SWAP2 POP PUSH2 0xC98 DUP4 PUSH2 0x882 JUMP JUMPDEST SWAP3 POP DUP3 PUSH2 0xCA8 JUMPI PUSH2 0xCA7 PUSH2 0xC56 JUMP JUMPDEST JUMPDEST DUP3 DUP3 DIV SWAP1 POP SWAP3 SWAP2 POP POP JUMP INVALID LOG2 PUSH5 0x6970667358 0x22 SLT KECCAK256 SWAP16 0xD6 DUP8 CODECOPY 0xBE 0xDE 0xD GAS 0x26 GAS DUP5 ADDMOD ISZERO MLOAD PUSH22 0x501A21CB94E9ADDC1DCD7F8B9961B664EA64736F6C63 NUMBER STOP ADDMOD BYTE STOP CALLER "
				},
				"gasEstimates": {
					"creation": {
						"codeDepositCost": "661000",
						"executionCost": "infinite",
						"totalCost": "infinite"
					},
					"external": {
						"calculateReward(address)": "infinite",
						"claimReward()": "infinite",
						"lastUpdateTime()": "2491",
						"rewardRate()": "2514",
						"rewards(address)": "2803",
						"stake(uint256)": "infinite",
						"stakes(address)": "infinite",
						"stakingToken()": "infinite",
						"totalStaked()": "2425",
						"withdraw(uint256)": "infinite"
					},
					"internal": {
						"updateReward(address)": "infinite"
					}
				},
				"methodIdentifiers": {
					"calculateReward(address)": "d82e3962",
					"claimReward()": "b88a802f",
					"lastUpdateTime()": "c8f33c91",
					"rewardRate()": "7b0a47ee",
					"rewards(address)": "0700037d",
					"stake(uint256)": "a694fc3a",
					"stakes(address)": "16934fc4",
					"stakingToken()": "72f702f3",
					"totalStaked()": "817b1cd2",
					"withdraw(uint256)": "2e1a7d4d"
				}
			},
			"storageLayout": {
				"storage": [
					{
						"astId": 83,
						"contract": "Stake.sol:Staking",
						"label": "stakingToken",
						"offset": 0,
						"slot": "0",
						"type": "t_contract(IERC20)77"
					},
					{
						"astId": 85,
						"contract": "Stake.sol:Staking",
						"label": "rewardRate",
						"offset": 0,
						"slot": "1",
						"type": "t_uint256"
					},
					{
						"astId": 87,
						"contract": "Stake.sol:Staking",
						"label": "totalStaked",
						"offset": 0,
						"slot": "2",
						"type": "t_uint256"
					},
					{
						"astId": 89,
						"contract": "Stake.sol:Staking",
						"label": "lastUpdateTime",
						"offset": 0,
						"slot": "3",
						"type": "t_uint256"
					},
					{
						"astId": 101,
						"contract": "Stake.sol:Staking",
						"label": "stakes",
						"offset": 0,
						"slot": "4",
						"type": "t_mapping(t_address,t_struct(Stake)96_storage)"
					},
					{
						"astId": 105,
						"contract": "Stake.sol:Staking",
						"label": "rewards",
						"offset": 0,
						"slot": "5",
						"type": "t_mapping(t_address,t_uint256)"
					}
				],
				"types": {
					"t_address": {
						"encoding": "inplace",
						"label": "address",
						"numberOfBytes": "20"
					},
					"t_contract(IERC20)77": {
						"encoding": "inplace",
						"label": "contract IERC20",
						"numberOfBytes": "20"
					},
					"t_mapping(t_address,t_struct(Stake)96_storage)": {
						"encoding": "mapping",
						"key": "t_address",
						"label": "mapping(address => struct Staking.Stake)",
						"numberOfBytes": "32",
						"value": "t_struct(Stake)96_storage"
					},
					"t_mapping(t_address,t_uint256)": {
						"encoding": "mapping",
						"key": "t_address",
						"label": "mapping(address => uint256)",
						"numberOfBytes": "32",
						"value": "t_uint256"
					},
					"t_struct(Stake)96_storage": {
						"encoding": "inplace",
						"label": "struct Staking.Stake",
						"members": [
							{
								"astId": 91,
								"contract": "Stake.sol:Staking",
								"label": "amount",
								"offset": 0,
								"slot": "0",
								"type": "t_uint256"
							},
							{
								"astId": 93,
								"contract": "Stake.sol:Staking",
								"label": "rewardDebt",
								"offset": 0,
								"slot": "1",
								"type": "t_uint256"
							},
							{
								"astId": 95,
								"contract": "Stake.sol:Staking",
								"label": "lastStakedTime",
								"offset": 0,
								"slot": "2",
								"type": "t_uint256"
							}
						],
						"numberOfBytes": "96"
					},
					"t_uint256": {
						"encoding": "inplace",
						"label": "uint256",
						"numberOfBytes": "32"
					}
				}
			},
			"userdoc": {
				"kind": "user",
				"methods": {},
				"version": 1
			}
		}
	}
}