{
	"proxy/implementation_V5.sol": {
		"implementation_V5": {
			"abi": [
				{
					"inputs": [
						{
							"internalType": "uint256",
							"name": "a",
							"type": "uint256"
						}
					],
					"name": "multi",
					"outputs": [
						{
							"internalType": "bool",
							"name": "",
							"type": "bool"
						},
						{
							"internalType": "uint256",
							"name": "",
							"type": "uint256"
						}
					],
					"stateMutability": "nonpayable",
					"type": "function"
				},
				{
					"inputs": [],
					"name": "result",
					"outputs": [
						{
							"internalType": "uint256",
							"name": "",
							"type": "uint256"
						}
					],
					"stateMutability": "view",
					"type": "function"
				}
			],
			"devdoc": {
				"kind": "dev",
				"methods": {},
				"version": 1
			},
			"evm": {
				"assembly": "    /* \"proxy/implementation_V5.sol\":61:242  contract implementation_V5 {... */\n  mstore(0x40, 0x80)\n    /* \"proxy/implementation_V5.sol\":116:118  10 */\n  0x0a\n    /* \"proxy/implementation_V5.sol\":95:118  uint public result = 10 */\n  0x00\n  sstore\n    /* \"proxy/implementation_V5.sol\":61:242  contract implementation_V5 {... */\n  callvalue\n  dup1\n  iszero\n  tag_1\n  jumpi\n  0x00\n  dup1\n  revert\ntag_1:\n  pop\n  dataSize(sub_0)\n  dup1\n  dataOffset(sub_0)\n  0x00\n  codecopy\n  0x00\n  return\nstop\n\nsub_0: assembly {\n        /* \"proxy/implementation_V5.sol\":61:242  contract implementation_V5 {... */\n      mstore(0x40, 0x80)\n      callvalue\n      dup1\n      iszero\n      tag_1\n      jumpi\n      0x00\n      dup1\n      revert\n    tag_1:\n      pop\n      jumpi(tag_2, lt(calldatasize, 0x04))\n      shr(0xe0, calldataload(0x00))\n      dup1\n      0x645444bd\n      eq\n      tag_3\n      jumpi\n      dup1\n      0x65372147\n      eq\n      tag_4\n      jumpi\n    tag_2:\n      0x00\n      dup1\n      revert\n        /* \"proxy/implementation_V5.sol\":125:239  function multi(uint a) public returns(bool, uint) {... */\n    tag_3:\n      tag_5\n      0x04\n      dup1\n      calldatasize\n      sub\n      dup2\n      add\n      swap1\n      tag_6\n      swap2\n      swap1\n      tag_7\n      jump\t// in\n    tag_6:\n      tag_8\n      jump\t// in\n    tag_5:\n      mload(0x40)\n      tag_9\n      swap3\n      swap2\n      swap1\n      tag_10\n      jump\t// in\n    tag_9:\n      mload(0x40)\n      dup1\n      swap2\n      sub\n      swap1\n      return\n        /* \"proxy/implementation_V5.sol\":95:118  uint public result = 10 */\n    tag_4:\n      tag_11\n      tag_12\n      jump\t// in\n    tag_11:\n      mload(0x40)\n      tag_13\n      swap2\n      swap1\n      tag_14\n      jump\t// in\n    tag_13:\n      mload(0x40)\n      dup1\n      swap2\n      sub\n      swap1\n      return\n        /* \"proxy/implementation_V5.sol\":125:239  function multi(uint a) public returns(bool, uint) {... */\n    tag_8:\n        /* \"proxy/implementation_V5.sol\":163:167  bool */\n      0x00\n        /* \"proxy/implementation_V5.sol\":169:173  uint */\n      dup1\n        /* \"proxy/implementation_V5.sol\":199:200  5 */\n      0x05\n        /* \"proxy/implementation_V5.sol\":195:196  a */\n      dup4\n        /* \"proxy/implementation_V5.sol\":195:200  a * 5 */\n      tag_16\n      swap2\n      swap1\n      tag_17\n      jump\t// in\n    tag_16:\n        /* \"proxy/implementation_V5.sol\":186:192  result */\n      0x00\n        /* \"proxy/implementation_V5.sol\":186:200  result = a * 5 */\n      dup2\n      swap1\n      sstore\n      pop\n        /* \"proxy/implementation_V5.sol\":219:223  true */\n      0x01\n        /* \"proxy/implementation_V5.sol\":229:230  5 */\n      0x05\n        /* \"proxy/implementation_V5.sol\":225:226  a */\n      dup5\n        /* \"proxy/implementation_V5.sol\":225:230  a * 5 */\n      tag_18\n      swap2\n      swap1\n      tag_17\n      jump\t// in\n    tag_18:\n        /* \"proxy/implementation_V5.sol\":211:231  return (true, a * 5) */\n      swap2\n      pop\n      swap2\n      pop\n        /* \"proxy/implementation_V5.sol\":125:239  function multi(uint a) public returns(bool, uint) {... */\n      swap2\n      pop\n      swap2\n      jump\t// out\n        /* \"proxy/implementation_V5.sol\":95:118  uint public result = 10 */\n    tag_12:\n      sload(0x00)\n      dup2\n      jump\t// out\n        /* \"#utility.yul\":88:205   */\n    tag_20:\n        /* \"#utility.yul\":197:198   */\n      0x00\n        /* \"#utility.yul\":194:195   */\n      dup1\n        /* \"#utility.yul\":187:199   */\n      revert\n        /* \"#utility.yul\":334:411   */\n    tag_22:\n        /* \"#utility.yul\":371:378   */\n      0x00\n        /* \"#utility.yul\":400:405   */\n      dup2\n        /* \"#utility.yul\":389:405   */\n      swap1\n      pop\n        /* \"#utility.yul\":334:411   */\n      swap2\n      swap1\n      pop\n      jump\t// out\n        /* \"#utility.yul\":417:539   */\n    tag_23:\n        /* \"#utility.yul\":490:514   */\n      tag_35\n        /* \"#utility.yul\":508:513   */\n      dup2\n        /* \"#utility.yul\":490:514   */\n      tag_22\n      jump\t// in\n    tag_35:\n        /* \"#utility.yul\":483:488   */\n      dup2\n        /* \"#utility.yul\":480:515   */\n      eq\n        /* \"#utility.yul\":470:533   */\n      tag_36\n      jumpi\n        /* \"#utility.yul\":529:530   */\n      0x00\n        /* \"#utility.yul\":526:527   */\n      dup1\n        /* \"#utility.yul\":519:531   */\n      revert\n        /* \"#utility.yul\":470:533   */\n    tag_36:\n        /* \"#utility.yul\":417:539   */\n      pop\n      jump\t// out\n        /* \"#utility.yul\":545:684   */\n    tag_24:\n        /* \"#utility.yul\":591:596   */\n      0x00\n        /* \"#utility.yul\":629:635   */\n      dup2\n        /* \"#utility.yul\":616:636   */\n      calldataload\n        /* \"#utility.yul\":607:636   */\n      swap1\n      pop\n        /* \"#utility.yul\":645:678   */\n      tag_38\n        /* \"#utility.yul\":672:677   */\n      dup2\n        /* \"#utility.yul\":645:678   */\n      tag_23\n      jump\t// in\n    tag_38:\n        /* \"#utility.yul\":545:684   */\n      swap3\n      swap2\n      pop\n      pop\n      jump\t// out\n        /* \"#utility.yul\":690:1019   */\n    tag_7:\n        /* \"#utility.yul\":749:755   */\n      0x00\n        /* \"#utility.yul\":798:800   */\n      0x20\n        /* \"#utility.yul\":786:795   */\n      dup3\n        /* \"#utility.yul\":777:784   */\n      dup5\n        /* \"#utility.yul\":773:796   */\n      sub\n        /* \"#utility.yul\":769:801   */\n      slt\n        /* \"#utility.yul\":766:885   */\n      iszero\n      tag_40\n      jumpi\n        /* \"#utility.yul\":804:883   */\n      tag_41\n      tag_20\n      jump\t// in\n    tag_41:\n        /* \"#utility.yul\":766:885   */\n    tag_40:\n        /* \"#utility.yul\":924:925   */\n      0x00\n        /* \"#utility.yul\":949:1002   */\n      tag_42\n        /* \"#utility.yul\":994:1001   */\n      dup5\n        /* \"#utility.yul\":985:991   */\n      dup3\n        /* \"#utility.yul\":974:983   */\n      dup6\n        /* \"#utility.yul\":970:992   */\n      add\n        /* \"#utility.yul\":949:1002   */\n      tag_24\n      jump\t// in\n    tag_42:\n        /* \"#utility.yul\":939:1002   */\n      swap2\n      pop\n        /* \"#utility.yul\":895:1012   */\n      pop\n        /* \"#utility.yul\":690:1019   */\n      swap3\n      swap2\n      pop\n      pop\n      jump\t// out\n        /* \"#utility.yul\":1025:1115   */\n    tag_25:\n        /* \"#utility.yul\":1059:1066   */\n      0x00\n        /* \"#utility.yul\":1102:1107   */\n      dup2\n        /* \"#utility.yul\":1095:1108   */\n      iszero\n        /* \"#utility.yul\":1088:1109   */\n      iszero\n        /* \"#utility.yul\":1077:1109   */\n      swap1\n      pop\n        /* \"#utility.yul\":1025:1115   */\n      swap2\n      swap1\n      pop\n      jump\t// out\n        /* \"#utility.yul\":1121:1230   */\n    tag_26:\n        /* \"#utility.yul\":1202:1223   */\n      tag_45\n        /* \"#utility.yul\":1217:1222   */\n      dup2\n        /* \"#utility.yul\":1202:1223   */\n      tag_25\n      jump\t// in\n    tag_45:\n        /* \"#utility.yul\":1197:1200   */\n      dup3\n        /* \"#utility.yul\":1190:1224   */\n      mstore\n        /* \"#utility.yul\":1121:1230   */\n      pop\n      pop\n      jump\t// out\n        /* \"#utility.yul\":1236:1354   */\n    tag_27:\n        /* \"#utility.yul\":1323:1347   */\n      tag_47\n        /* \"#utility.yul\":1341:1346   */\n      dup2\n        /* \"#utility.yul\":1323:1347   */\n      tag_22\n      jump\t// in\n    tag_47:\n        /* \"#utility.yul\":1318:1321   */\n      dup3\n        /* \"#utility.yul\":1311:1348   */\n      mstore\n        /* \"#utility.yul\":1236:1354   */\n      pop\n      pop\n      jump\t// out\n        /* \"#utility.yul\":1360:1680   */\n    tag_10:\n        /* \"#utility.yul\":1475:1479   */\n      0x00\n        /* \"#utility.yul\":1513:1515   */\n      0x40\n        /* \"#utility.yul\":1502:1511   */\n      dup3\n        /* \"#utility.yul\":1498:1516   */\n      add\n        /* \"#utility.yul\":1490:1516   */\n      swap1\n      pop\n        /* \"#utility.yul\":1526:1591   */\n      tag_49\n        /* \"#utility.yul\":1588:1589   */\n      0x00\n        /* \"#utility.yul\":1577:1586   */\n      dup4\n        /* \"#utility.yul\":1573:1590   */\n      add\n        /* \"#utility.yul\":1564:1570   */\n      dup6\n        /* \"#utility.yul\":1526:1591   */\n      tag_26\n      jump\t// in\n    tag_49:\n        /* \"#utility.yul\":1601:1673   */\n      tag_50\n        /* \"#utility.yul\":1669:1671   */\n      0x20\n        /* \"#utility.yul\":1658:1667   */\n      dup4\n        /* \"#utility.yul\":1654:1672   */\n      add\n        /* \"#utility.yul\":1645:1651   */\n      dup5\n        /* \"#utility.yul\":1601:1673   */\n      tag_27\n      jump\t// in\n    tag_50:\n        /* \"#utility.yul\":1360:1680   */\n      swap4\n      swap3\n      pop\n      pop\n      pop\n      jump\t// out\n        /* \"#utility.yul\":1686:1908   */\n    tag_14:\n        /* \"#utility.yul\":1779:1783   */\n      0x00\n        /* \"#utility.yul\":1817:1819   */\n      0x20\n        /* \"#utility.yul\":1806:1815   */\n      dup3\n        /* \"#utility.yul\":1802:1820   */\n      add\n        /* \"#utility.yul\":1794:1820   */\n      swap1\n      pop\n        /* \"#utility.yul\":1830:1901   */\n      tag_52\n        /* \"#utility.yul\":1898:1899   */\n      0x00\n        /* \"#utility.yul\":1887:1896   */\n      dup4\n        /* \"#utility.yul\":1883:1900   */\n      add\n        /* \"#utility.yul\":1874:1880   */\n      dup5\n        /* \"#utility.yul\":1830:1901   */\n      tag_27\n      jump\t// in\n    tag_52:\n        /* \"#utility.yul\":1686:1908   */\n      swap3\n      swap2\n      pop\n      pop\n      jump\t// out\n        /* \"#utility.yul\":1914:2094   */\n    tag_28:\n        /* \"#utility.yul\":1962:2039   */\n      0x4e487b7100000000000000000000000000000000000000000000000000000000\n        /* \"#utility.yul\":1959:1960   */\n      0x00\n        /* \"#utility.yul\":1952:2040   */\n      mstore\n        /* \"#utility.yul\":2059:2063   */\n      0x11\n        /* \"#utility.yul\":2056:2057   */\n      0x04\n        /* \"#utility.yul\":2049:2064   */\n      mstore\n        /* \"#utility.yul\":2083:2087   */\n      0x24\n        /* \"#utility.yul\":2080:2081   */\n      0x00\n        /* \"#utility.yul\":2073:2088   */\n      revert\n        /* \"#utility.yul\":2100:2510   */\n    tag_17:\n        /* \"#utility.yul\":2140:2147   */\n      0x00\n        /* \"#utility.yul\":2163:2183   */\n      tag_55\n        /* \"#utility.yul\":2181:2182   */\n      dup3\n        /* \"#utility.yul\":2163:2183   */\n      tag_22\n      jump\t// in\n    tag_55:\n        /* \"#utility.yul\":2158:2183   */\n      swap2\n      pop\n        /* \"#utility.yul\":2197:2217   */\n      tag_56\n        /* \"#utility.yul\":2215:2216   */\n      dup4\n        /* \"#utility.yul\":2197:2217   */\n      tag_22\n      jump\t// in\n    tag_56:\n        /* \"#utility.yul\":2192:2217   */\n      swap3\n      pop\n        /* \"#utility.yul\":2252:2253   */\n      dup3\n        /* \"#utility.yul\":2249:2250   */\n      dup3\n        /* \"#utility.yul\":2245:2254   */\n      mul\n        /* \"#utility.yul\":2274:2304   */\n      tag_57\n        /* \"#utility.yul\":2292:2303   */\n      dup2\n        /* \"#utility.yul\":2274:2304   */\n      tag_22\n      jump\t// in\n    tag_57:\n        /* \"#utility.yul\":2263:2304   */\n      swap2\n      pop\n        /* \"#utility.yul\":2453:2454   */\n      dup3\n        /* \"#utility.yul\":2444:2451   */\n      dup3\n        /* \"#utility.yul\":2440:2455   */\n      div\n        /* \"#utility.yul\":2437:2438   */\n      dup5\n        /* \"#utility.yul\":2434:2456   */\n      eq\n        /* \"#utility.yul\":2414:2415   */\n      dup4\n        /* \"#utility.yul\":2407:2416   */\n      iszero\n        /* \"#utility.yul\":2387:2470   */\n      or\n        /* \"#utility.yul\":2364:2503   */\n      tag_58\n      jumpi\n        /* \"#utility.yul\":2483:2501   */\n      tag_59\n      tag_28\n      jump\t// in\n    tag_59:\n        /* \"#utility.yul\":2364:2503   */\n    tag_58:\n        /* \"#utility.yul\":2148:2510   */\n      pop\n        /* \"#utility.yul\":2100:2510   */\n      swap3\n      swap2\n      pop\n      pop\n      jump\t// out\n\n    auxdata: 0xa2646970667358221220bc5a50ec7e783a1d1440e5c96fd9a0e9dc83932fcc0fd8ac4cda15e51110e64e64736f6c63430008190033\n}\n",
				"bytecode": {
					"linkReferences": {},
					"object": "6080604052600a5f553480156012575f80fd5b50610227806100205f395ff3fe608060405234801561000f575f80fd5b5060043610610034575f3560e01c8063645444bd146100385780636537214714610069575b5f80fd5b610052600480360381019061004d91906100ef565b610087565b604051610060929190610143565b60405180910390f35b6100716100b3565b60405161007e919061016a565b60405180910390f35b5f8060058361009691906101b0565b5f8190555060016005846100aa91906101b0565b91509150915091565b5f5481565b5f80fd5b5f819050919050565b6100ce816100bc565b81146100d8575f80fd5b50565b5f813590506100e9816100c5565b92915050565b5f60208284031215610104576101036100b8565b5b5f610111848285016100db565b91505092915050565b5f8115159050919050565b61012e8161011a565b82525050565b61013d816100bc565b82525050565b5f6040820190506101565f830185610125565b6101636020830184610134565b9392505050565b5f60208201905061017d5f830184610134565b92915050565b7f4e487b71000000000000000000000000000000000000000000000000000000005f52601160045260245ffd5b5f6101ba826100bc565b91506101c5836100bc565b92508282026101d3816100bc565b915082820484148315176101ea576101e9610183565b5b509291505056fea2646970667358221220bc5a50ec7e783a1d1440e5c96fd9a0e9dc83932fcc0fd8ac4cda15e51110e64e64736f6c63430008190033",
					"opcodes": "PUSH1 0x80 PUSH1 0x40 MSTORE PUSH1 0xA PUSH0 SSTORE CALLVALUE DUP1 ISZERO PUSH1 0x12 JUMPI PUSH0 DUP1 REVERT JUMPDEST POP PUSH2 0x227 DUP1 PUSH2 0x20 PUSH0 CODECOPY PUSH0 RETURN INVALID PUSH1 0x80 PUSH1 0x40 MSTORE CALLVALUE DUP1 ISZERO PUSH2 0xF JUMPI PUSH0 DUP1 REVERT JUMPDEST POP PUSH1 0x4 CALLDATASIZE LT PUSH2 0x34 JUMPI PUSH0 CALLDATALOAD PUSH1 0xE0 SHR DUP1 PUSH4 0x645444BD EQ PUSH2 0x38 JUMPI DUP1 PUSH4 0x65372147 EQ PUSH2 0x69 JUMPI JUMPDEST PUSH0 DUP1 REVERT JUMPDEST PUSH2 0x52 PUSH1 0x4 DUP1 CALLDATASIZE SUB DUP2 ADD SWAP1 PUSH2 0x4D SWAP2 SWAP1 PUSH2 0xEF JUMP JUMPDEST PUSH2 0x87 JUMP JUMPDEST PUSH1 0x40 MLOAD PUSH2 0x60 SWAP3 SWAP2 SWAP1 PUSH2 0x143 JUMP JUMPDEST PUSH1 0x40 MLOAD DUP1 SWAP2 SUB SWAP1 RETURN JUMPDEST PUSH2 0x71 PUSH2 0xB3 JUMP JUMPDEST PUSH1 0x40 MLOAD PUSH2 0x7E SWAP2 SWAP1 PUSH2 0x16A JUMP JUMPDEST PUSH1 0x40 MLOAD DUP1 SWAP2 SUB SWAP1 RETURN JUMPDEST PUSH0 DUP1 PUSH1 0x5 DUP4 PUSH2 0x96 SWAP2 SWAP1 PUSH2 0x1B0 JUMP JUMPDEST PUSH0 DUP2 SWAP1 SSTORE POP PUSH1 0x1 PUSH1 0x5 DUP5 PUSH2 0xAA SWAP2 SWAP1 PUSH2 0x1B0 JUMP JUMPDEST SWAP2 POP SWAP2 POP SWAP2 POP SWAP2 JUMP JUMPDEST PUSH0 SLOAD DUP2 JUMP JUMPDEST PUSH0 DUP1 REVERT JUMPDEST PUSH0 DUP2 SWAP1 POP SWAP2 SWAP1 POP JUMP JUMPDEST PUSH2 0xCE DUP2 PUSH2 0xBC JUMP JUMPDEST DUP2 EQ PUSH2 0xD8 JUMPI PUSH0 DUP1 REVERT JUMPDEST POP JUMP JUMPDEST PUSH0 DUP2 CALLDATALOAD SWAP1 POP PUSH2 0xE9 DUP2 PUSH2 0xC5 JUMP JUMPDEST SWAP3 SWAP2 POP POP JUMP JUMPDEST PUSH0 PUSH1 0x20 DUP3 DUP5 SUB SLT ISZERO PUSH2 0x104 JUMPI PUSH2 0x103 PUSH2 0xB8 JUMP JUMPDEST JUMPDEST PUSH0 PUSH2 0x111 DUP5 DUP3 DUP6 ADD PUSH2 0xDB JUMP JUMPDEST SWAP2 POP POP SWAP3 SWAP2 POP POP JUMP JUMPDEST PUSH0 DUP2 ISZERO ISZERO SWAP1 POP SWAP2 SWAP1 POP JUMP JUMPDEST PUSH2 0x12E DUP2 PUSH2 0x11A JUMP JUMPDEST DUP3 MSTORE POP POP JUMP JUMPDEST PUSH2 0x13D DUP2 PUSH2 0xBC JUMP JUMPDEST DUP3 MSTORE POP POP JUMP JUMPDEST PUSH0 PUSH1 0x40 DUP3 ADD SWAP1 POP PUSH2 0x156 PUSH0 DUP4 ADD DUP6 PUSH2 0x125 JUMP JUMPDEST PUSH2 0x163 PUSH1 0x20 DUP4 ADD DUP5 PUSH2 0x134 JUMP JUMPDEST SWAP4 SWAP3 POP POP POP JUMP JUMPDEST PUSH0 PUSH1 0x20 DUP3 ADD SWAP1 POP PUSH2 0x17D PUSH0 DUP4 ADD DUP5 PUSH2 0x134 JUMP JUMPDEST SWAP3 SWAP2 POP POP JUMP JUMPDEST PUSH32 0x4E487B7100000000000000000000000000000000000000000000000000000000 PUSH0 MSTORE PUSH1 0x11 PUSH1 0x4 MSTORE PUSH1 0x24 PUSH0 REVERT JUMPDEST PUSH0 PUSH2 0x1BA DUP3 PUSH2 0xBC JUMP JUMPDEST SWAP2 POP PUSH2 0x1C5 DUP4 PUSH2 0xBC JUMP JUMPDEST SWAP3 POP DUP3 DUP3 MUL PUSH2 0x1D3 DUP2 PUSH2 0xBC JUMP JUMPDEST SWAP2 POP DUP3 DUP3 DIV DUP5 EQ DUP4 ISZERO OR PUSH2 0x1EA JUMPI PUSH2 0x1E9 PUSH2 0x183 JUMP JUMPDEST JUMPDEST POP SWAP3 SWAP2 POP POP JUMP INVALID LOG2 PUSH5 0x6970667358 0x22 SLT KECCAK256 0xBC GAS POP 0xEC PUSH31 0x783A1D1440E5C96FD9A0E9DC83932FCC0FD8AC4CDA15E51110E64E64736F6C PUSH4 0x43000819 STOP CALLER "
				},
				"gasEstimates": {
					"creation": {
						"codeDepositCost": "110200",
						"executionCost": "22262",
						"totalCost": "132462"
					},
					"external": {
						"multi(uint256)": "infinite",
						"result()": "2424"
					}
				},
				"methodIdentifiers": {
					"multi(uint256)": "645444bd",
					"result()": "65372147"
				}
			},
			"storageLayout": {
				"storage": [
					{
						"astId": 4,
						"contract": "proxy/implementation_V5.sol:implementation_V5",
						"label": "result",
						"offset": 0,
						"slot": "0",
						"type": "t_uint256"
					}
				],
				"types": {
					"t_uint256": {
						"encoding": "inplace",
						"label": "uint256",
						"numberOfBytes": "32"
					}
				}
			},
			"userdoc": {
				"kind": "user",
				"methods": {},
				"version": 1
			}
		}
	}
}