{
	"proxy-ca-study/datalocation.sol": {
		"DataLocations": {
			"abi": [
				{
					"inputs": [],
					"name": "arr",
					"outputs": [
						{
							"internalType": "uint256",
							"name": "",
							"type": "uint256"
						}
					],
					"stateMutability": "view",
					"type": "function"
				},
				{
					"inputs": [
						{
							"internalType": "address",
							"name": "_addr",
							"type": "address"
						}
					],
					"name": "get",
					"outputs": [
						{
							"internalType": "string",
							"name": "",
							"type": "string"
						}
					],
					"stateMutability": "view",
					"type": "function"
				},
				{
					"inputs": [
						{
							"internalType": "address",
							"name": "",
							"type": "address"
						}
					],
					"name": "myStructs",
					"outputs": [
						{
							"internalType": "uint256",
							"name": "foo",
							"type": "uint256"
						},
						{
							"internalType": "string",
							"name": "text",
							"type": "string"
						}
					],
					"stateMutability": "view",
					"type": "function"
				},
				{
					"inputs": [
						{
							"internalType": "address",
							"name": "_addr",
							"type": "address"
						},
						{
							"internalType": "string",
							"name": "_text",
							"type": "string"
						}
					],
					"name": "set",
					"outputs": [],
					"stateMutability": "nonpayable",
					"type": "function"
				},
				{
					"inputs": [],
					"name": "x",
					"outputs": [
						{
							"internalType": "uint256",
							"name": "",
							"type": "uint256"
						}
					],
					"stateMutability": "view",
					"type": "function"
				}
			],
			"devdoc": {
				"kind": "dev",
				"methods": {},
				"version": 1
			},
			"evm": {
				"assembly": "    /* \"proxy-ca-study/datalocation.sol\":59:975  contract DataLocations {... */\n  mstore(0x40, 0x80)\n  callvalue\n  dup1\n  iszero\n  tag_1\n  jumpi\n  0x00\n  dup1\n  revert\ntag_1:\n  pop\n  dataSize(sub_0)\n  dup1\n  dataOffset(sub_0)\n  0x00\n  codecopy\n  0x00\n  return\nstop\n\nsub_0: assembly {\n        /* \"proxy-ca-study/datalocation.sol\":59:975  contract DataLocations {... */\n      mstore(0x40, 0x80)\n      callvalue\n      dup1\n      iszero\n      tag_1\n      jumpi\n      0x00\n      dup1\n      revert\n    tag_1:\n      pop\n      jumpi(tag_2, lt(calldatasize, 0x04))\n      shr(0xe0, calldataload(0x00))\n      dup1\n      0x0c55699c\n      eq\n      tag_3\n      jumpi\n      dup1\n      0x5a82d100\n      eq\n      tag_4\n      jumpi\n      dup1\n      0xb43c5d33\n      eq\n      tag_5\n      jumpi\n      dup1\n      0xc2bc2efc\n      eq\n      tag_6\n      jumpi\n      dup1\n      0xe81d53cf\n      eq\n      tag_7\n      jumpi\n    tag_2:\n      0x00\n      dup1\n      revert\n        /* \"proxy-ca-study/datalocation.sol\":541:554  uint public x */\n    tag_3:\n      tag_8\n      tag_9\n      jump\t// in\n    tag_8:\n      mload(0x40)\n      tag_10\n      swap2\n      swap1\n      tag_11\n      jump\t// in\n    tag_10:\n      mload(0x40)\n      dup1\n      swap2\n      sub\n      swap1\n      return\n        /* \"proxy-ca-study/datalocation.sol\":703:856  function set(address _addr, string calldata _text) external {... */\n    tag_4:\n      tag_12\n      0x04\n      dup1\n      calldatasize\n      sub\n      dup2\n      add\n      swap1\n      tag_13\n      swap2\n      swap1\n      tag_14\n      jump\t// in\n    tag_13:\n      tag_15\n      jump\t// in\n    tag_12:\n      stop\n        /* \"proxy-ca-study/datalocation.sol\":651:696  mapping(address => MyStruct) public myStructs */\n    tag_5:\n      tag_16\n      0x04\n      dup1\n      calldatasize\n      sub\n      dup2\n      add\n      swap1\n      tag_17\n      swap2\n      swap1\n      tag_18\n      jump\t// in\n    tag_17:\n      tag_19\n      jump\t// in\n    tag_16:\n      mload(0x40)\n      tag_20\n      swap3\n      swap2\n      swap1\n      tag_21\n      jump\t// in\n    tag_20:\n      mload(0x40)\n      dup1\n      swap2\n      sub\n      swap1\n      return\n        /* \"proxy-ca-study/datalocation.sol\":862:973  function get(address _addr) external view returns (string memory) {... */\n    tag_6:\n      tag_22\n      0x04\n      dup1\n      calldatasize\n      sub\n      dup2\n      add\n      swap1\n      tag_23\n      swap2\n      swap1\n      tag_18\n      jump\t// in\n    tag_23:\n      tag_24\n      jump\t// in\n    tag_22:\n      mload(0x40)\n      tag_25\n      swap2\n      swap1\n      tag_26\n      jump\t// in\n    tag_25:\n      mload(0x40)\n      dup1\n      swap2\n      sub\n      swap1\n      return\n        /* \"proxy-ca-study/datalocation.sol\":560:575  uint public arr */\n    tag_7:\n      tag_27\n      tag_28\n      jump\t// in\n    tag_27:\n      mload(0x40)\n      tag_29\n      swap2\n      swap1\n      tag_11\n      jump\t// in\n    tag_29:\n      mload(0x40)\n      dup1\n      swap2\n      sub\n      swap1\n      return\n        /* \"proxy-ca-study/datalocation.sol\":541:554  uint public x */\n    tag_9:\n      sload(0x00)\n      dup2\n      jump\t// out\n        /* \"proxy-ca-study/datalocation.sol\":703:856  function set(address _addr, string calldata _text) external {... */\n    tag_15:\n        /* \"proxy-ca-study/datalocation.sol\":773:798  MyStruct storage myStruct */\n      0x00\n        /* \"proxy-ca-study/datalocation.sol\":801:810  myStructs */\n      0x02\n        /* \"proxy-ca-study/datalocation.sol\":801:817  myStructs[_addr] */\n      0x00\n        /* \"proxy-ca-study/datalocation.sol\":811:816  _addr */\n      dup6\n        /* \"proxy-ca-study/datalocation.sol\":801:817  myStructs[_addr] */\n      0xffffffffffffffffffffffffffffffffffffffff\n      and\n      0xffffffffffffffffffffffffffffffffffffffff\n      and\n      dup2\n      mstore\n      0x20\n      add\n      swap1\n      dup2\n      mstore\n      0x20\n      add\n      0x00\n      keccak256\n        /* \"proxy-ca-study/datalocation.sol\":773:817  MyStruct storage myStruct = myStructs[_addr] */\n      swap1\n      pop\n        /* \"proxy-ca-study/datalocation.sol\":843:848  _text */\n      dup3\n      dup3\n        /* \"proxy-ca-study/datalocation.sol\":827:835  myStruct */\n      dup3\n        /* \"proxy-ca-study/datalocation.sol\":827:840  myStruct.text */\n      0x01\n      add\n        /* \"proxy-ca-study/datalocation.sol\":827:848  myStruct.text = _text */\n      swap2\n      dup3\n      tag_31\n      swap3\n      swap2\n      swap1\n      tag_32\n      jump\t// in\n    tag_31:\n      pop\n        /* \"proxy-ca-study/datalocation.sol\":763:856  {... */\n      pop\n        /* \"proxy-ca-study/datalocation.sol\":703:856  function set(address _addr, string calldata _text) external {... */\n      pop\n      pop\n      pop\n      jump\t// out\n        /* \"proxy-ca-study/datalocation.sol\":651:696  mapping(address => MyStruct) public myStructs */\n    tag_19:\n      mstore(0x20, 0x02)\n      dup1\n      0x00\n      mstore\n      keccak256(0x00, 0x40)\n      0x00\n      swap2\n      pop\n      swap1\n      pop\n      dup1\n      0x00\n      add\n      sload\n      swap1\n      dup1\n      0x01\n      add\n      dup1\n      sload\n      tag_33\n      swap1\n      tag_34\n      jump\t// in\n    tag_33:\n      dup1\n      0x1f\n      add\n      0x20\n      dup1\n      swap2\n      div\n      mul\n      0x20\n      add\n      mload(0x40)\n      swap1\n      dup2\n      add\n      0x40\n      mstore\n      dup1\n      swap3\n      swap2\n      swap1\n      dup2\n      dup2\n      mstore\n      0x20\n      add\n      dup3\n      dup1\n      sload\n      tag_35\n      swap1\n      tag_34\n      jump\t// in\n    tag_35:\n      dup1\n      iszero\n      tag_36\n      jumpi\n      dup1\n      0x1f\n      lt\n      tag_37\n      jumpi\n      0x0100\n      dup1\n      dup4\n      sload\n      div\n      mul\n      dup4\n      mstore\n      swap2\n      0x20\n      add\n      swap2\n      jump(tag_36)\n    tag_37:\n      dup3\n      add\n      swap2\n      swap1\n      0x00\n      mstore\n      keccak256(0x00, 0x20)\n      swap1\n    tag_38:\n      dup2\n      sload\n      dup2\n      mstore\n      swap1\n      0x01\n      add\n      swap1\n      0x20\n      add\n      dup1\n      dup4\n      gt\n      tag_38\n      jumpi\n      dup3\n      swap1\n      sub\n      0x1f\n      and\n      dup3\n      add\n      swap2\n    tag_36:\n      pop\n      pop\n      pop\n      pop\n      pop\n      swap1\n      pop\n      dup3\n      jump\t// out\n        /* \"proxy-ca-study/datalocation.sol\":862:973  function get(address _addr) external view returns (string memory) {... */\n    tag_24:\n        /* \"proxy-ca-study/datalocation.sol\":913:926  string memory */\n      0x60\n        /* \"proxy-ca-study/datalocation.sol\":945:954  myStructs */\n      0x02\n        /* \"proxy-ca-study/datalocation.sol\":945:961  myStructs[_addr] */\n      0x00\n        /* \"proxy-ca-study/datalocation.sol\":955:960  _addr */\n      dup4\n        /* \"proxy-ca-study/datalocation.sol\":945:961  myStructs[_addr] */\n      0xffffffffffffffffffffffffffffffffffffffff\n      and\n      0xffffffffffffffffffffffffffffffffffffffff\n      and\n      dup2\n      mstore\n      0x20\n      add\n      swap1\n      dup2\n      mstore\n      0x20\n      add\n      0x00\n      keccak256\n        /* \"proxy-ca-study/datalocation.sol\":945:966  myStructs[_addr].text */\n      0x01\n      add\n        /* \"proxy-ca-study/datalocation.sol\":938:966  return myStructs[_addr].text */\n      dup1\n      sload\n      tag_40\n      swap1\n      tag_34\n      jump\t// in\n    tag_40:\n      dup1\n      0x1f\n      add\n      0x20\n      dup1\n      swap2\n      div\n      mul\n      0x20\n      add\n      mload(0x40)\n      swap1\n      dup2\n      add\n      0x40\n      mstore\n      dup1\n      swap3\n      swap2\n      swap1\n      dup2\n      dup2\n      mstore\n      0x20\n      add\n      dup3\n      dup1\n      sload\n      tag_41\n      swap1\n      tag_34\n      jump\t// in\n    tag_41:\n      dup1\n      iszero\n      tag_42\n      jumpi\n      dup1\n      0x1f\n      lt\n      tag_43\n      jumpi\n      0x0100\n      dup1\n      dup4\n      sload\n      div\n      mul\n      dup4\n      mstore\n      swap2\n      0x20\n      add\n      swap2\n      jump(tag_42)\n    tag_43:\n      dup3\n      add\n      swap2\n      swap1\n      0x00\n      mstore\n      keccak256(0x00, 0x20)\n      swap1\n    tag_44:\n      dup2\n      sload\n      dup2\n      mstore\n      swap1\n      0x01\n      add\n      swap1\n      0x20\n      add\n      dup1\n      dup4\n      gt\n      tag_44\n      jumpi\n      dup3\n      swap1\n      sub\n      0x1f\n      and\n      dup3\n      add\n      swap2\n    tag_42:\n      pop\n      pop\n      pop\n      pop\n      pop\n      swap1\n      pop\n        /* \"proxy-ca-study/datalocation.sol\":862:973  function get(address _addr) external view returns (string memory) {... */\n      swap2\n      swap1\n      pop\n      jump\t// out\n        /* \"proxy-ca-study/datalocation.sol\":560:575  uint public arr */\n    tag_28:\n      sload(0x01)\n      dup2\n      jump\t// out\n        /* \"#utility.yul\":7:84   */\n    tag_45:\n        /* \"#utility.yul\":44:51   */\n      0x00\n        /* \"#utility.yul\":73:78   */\n      dup2\n        /* \"#utility.yul\":62:78   */\n      swap1\n      pop\n        /* \"#utility.yul\":7:84   */\n      swap2\n      swap1\n      pop\n      jump\t// out\n        /* \"#utility.yul\":90:208   */\n    tag_46:\n        /* \"#utility.yul\":177:201   */\n      tag_84\n        /* \"#utility.yul\":195:200   */\n      dup2\n        /* \"#utility.yul\":177:201   */\n      tag_45\n      jump\t// in\n    tag_84:\n        /* \"#utility.yul\":172:175   */\n      dup3\n        /* \"#utility.yul\":165:202   */\n      mstore\n        /* \"#utility.yul\":90:208   */\n      pop\n      pop\n      jump\t// out\n        /* \"#utility.yul\":214:436   */\n    tag_11:\n        /* \"#utility.yul\":307:311   */\n      0x00\n        /* \"#utility.yul\":345:347   */\n      0x20\n        /* \"#utility.yul\":334:343   */\n      dup3\n        /* \"#utility.yul\":330:348   */\n      add\n        /* \"#utility.yul\":322:348   */\n      swap1\n      pop\n        /* \"#utility.yul\":358:429   */\n      tag_86\n        /* \"#utility.yul\":426:427   */\n      0x00\n        /* \"#utility.yul\":415:424   */\n      dup4\n        /* \"#utility.yul\":411:428   */\n      add\n        /* \"#utility.yul\":402:408   */\n      dup5\n        /* \"#utility.yul\":358:429   */\n      tag_46\n      jump\t// in\n    tag_86:\n        /* \"#utility.yul\":214:436   */\n      swap3\n      swap2\n      pop\n      pop\n      jump\t// out\n        /* \"#utility.yul\":523:640   */\n    tag_48:\n        /* \"#utility.yul\":632:633   */\n      0x00\n        /* \"#utility.yul\":629:630   */\n      dup1\n        /* \"#utility.yul\":622:634   */\n      revert\n        /* \"#utility.yul\":646:763   */\n    tag_49:\n        /* \"#utility.yul\":755:756   */\n      0x00\n        /* \"#utility.yul\":752:753   */\n      dup1\n        /* \"#utility.yul\":745:757   */\n      revert\n        /* \"#utility.yul\":769:895   */\n    tag_50:\n        /* \"#utility.yul\":806:813   */\n      0x00\n        /* \"#utility.yul\":846:888   */\n      0xffffffffffffffffffffffffffffffffffffffff\n        /* \"#utility.yul\":839:844   */\n      dup3\n        /* \"#utility.yul\":835:889   */\n      and\n        /* \"#utility.yul\":824:889   */\n      swap1\n      pop\n        /* \"#utility.yul\":769:895   */\n      swap2\n      swap1\n      pop\n      jump\t// out\n        /* \"#utility.yul\":901:997   */\n    tag_51:\n        /* \"#utility.yul\":938:945   */\n      0x00\n        /* \"#utility.yul\":967:991   */\n      tag_92\n        /* \"#utility.yul\":985:990   */\n      dup3\n        /* \"#utility.yul\":967:991   */\n      tag_50\n      jump\t// in\n    tag_92:\n        /* \"#utility.yul\":956:991   */\n      swap1\n      pop\n        /* \"#utility.yul\":901:997   */\n      swap2\n      swap1\n      pop\n      jump\t// out\n        /* \"#utility.yul\":1003:1125   */\n    tag_52:\n        /* \"#utility.yul\":1076:1100   */\n      tag_94\n        /* \"#utility.yul\":1094:1099   */\n      dup2\n        /* \"#utility.yul\":1076:1100   */\n      tag_51\n      jump\t// in\n    tag_94:\n        /* \"#utility.yul\":1069:1074   */\n      dup2\n        /* \"#utility.yul\":1066:1101   */\n      eq\n        /* \"#utility.yul\":1056:1119   */\n      tag_95\n      jumpi\n        /* \"#utility.yul\":1115:1116   */\n      0x00\n        /* \"#utility.yul\":1112:1113   */\n      dup1\n        /* \"#utility.yul\":1105:1117   */\n      revert\n        /* \"#utility.yul\":1056:1119   */\n    tag_95:\n        /* \"#utility.yul\":1003:1125   */\n      pop\n      jump\t// out\n        /* \"#utility.yul\":1131:1270   */\n    tag_53:\n        /* \"#utility.yul\":1177:1182   */\n      0x00\n        /* \"#utility.yul\":1215:1221   */\n      dup2\n        /* \"#utility.yul\":1202:1222   */\n      calldataload\n        /* \"#utility.yul\":1193:1222   */\n      swap1\n      pop\n        /* \"#utility.yul\":1231:1264   */\n      tag_97\n        /* \"#utility.yul\":1258:1263   */\n      dup2\n        /* \"#utility.yul\":1231:1264   */\n      tag_52\n      jump\t// in\n    tag_97:\n        /* \"#utility.yul\":1131:1270   */\n      swap3\n      swap2\n      pop\n      pop\n      jump\t// out\n        /* \"#utility.yul\":1276:1393   */\n    tag_54:\n        /* \"#utility.yul\":1385:1386   */\n      0x00\n        /* \"#utility.yul\":1382:1383   */\n      dup1\n        /* \"#utility.yul\":1375:1387   */\n      revert\n        /* \"#utility.yul\":1399:1516   */\n    tag_55:\n        /* \"#utility.yul\":1508:1509   */\n      0x00\n        /* \"#utility.yul\":1505:1506   */\n      dup1\n        /* \"#utility.yul\":1498:1510   */\n      revert\n        /* \"#utility.yul\":1522:1639   */\n    tag_56:\n        /* \"#utility.yul\":1631:1632   */\n      0x00\n        /* \"#utility.yul\":1628:1629   */\n      dup1\n        /* \"#utility.yul\":1621:1633   */\n      revert\n        /* \"#utility.yul\":1659:2212   */\n    tag_57:\n        /* \"#utility.yul\":1717:1725   */\n      0x00\n        /* \"#utility.yul\":1727:1733   */\n      dup1\n        /* \"#utility.yul\":1777:1780   */\n      dup4\n        /* \"#utility.yul\":1770:1774   */\n      0x1f\n        /* \"#utility.yul\":1762:1768   */\n      dup5\n        /* \"#utility.yul\":1758:1775   */\n      add\n        /* \"#utility.yul\":1754:1781   */\n      slt\n        /* \"#utility.yul\":1744:1866   */\n      tag_102\n      jumpi\n        /* \"#utility.yul\":1785:1864   */\n      tag_103\n      tag_54\n      jump\t// in\n    tag_103:\n        /* \"#utility.yul\":1744:1866   */\n    tag_102:\n        /* \"#utility.yul\":1898:1904   */\n      dup3\n        /* \"#utility.yul\":1885:1905   */\n      calldataload\n        /* \"#utility.yul\":1875:1905   */\n      swap1\n      pop\n        /* \"#utility.yul\":1928:1946   */\n      0xffffffffffffffff\n        /* \"#utility.yul\":1920:1926   */\n      dup2\n        /* \"#utility.yul\":1917:1947   */\n      gt\n        /* \"#utility.yul\":1914:2031   */\n      iszero\n      tag_104\n      jumpi\n        /* \"#utility.yul\":1950:2029   */\n      tag_105\n      tag_55\n      jump\t// in\n    tag_105:\n        /* \"#utility.yul\":1914:2031   */\n    tag_104:\n        /* \"#utility.yul\":2064:2068   */\n      0x20\n        /* \"#utility.yul\":2056:2062   */\n      dup4\n        /* \"#utility.yul\":2052:2069   */\n      add\n        /* \"#utility.yul\":2040:2069   */\n      swap2\n      pop\n        /* \"#utility.yul\":2118:2121   */\n      dup4\n        /* \"#utility.yul\":2110:2114   */\n      0x01\n        /* \"#utility.yul\":2102:2108   */\n      dup3\n        /* \"#utility.yul\":2098:2115   */\n      mul\n        /* \"#utility.yul\":2088:2096   */\n      dup4\n        /* \"#utility.yul\":2084:2116   */\n      add\n        /* \"#utility.yul\":2081:2122   */\n      gt\n        /* \"#utility.yul\":2078:2206   */\n      iszero\n      tag_106\n      jumpi\n        /* \"#utility.yul\":2125:2204   */\n      tag_107\n      tag_56\n      jump\t// in\n    tag_107:\n        /* \"#utility.yul\":2078:2206   */\n    tag_106:\n        /* \"#utility.yul\":1659:2212   */\n      swap3\n      pop\n      swap3\n      swap1\n      pop\n      jump\t// out\n        /* \"#utility.yul\":2218:2892   */\n    tag_14:\n        /* \"#utility.yul\":2298:2304   */\n      0x00\n        /* \"#utility.yul\":2306:2312   */\n      dup1\n        /* \"#utility.yul\":2314:2320   */\n      0x00\n        /* \"#utility.yul\":2363:2365   */\n      0x40\n        /* \"#utility.yul\":2351:2360   */\n      dup5\n        /* \"#utility.yul\":2342:2349   */\n      dup7\n        /* \"#utility.yul\":2338:2361   */\n      sub\n        /* \"#utility.yul\":2334:2366   */\n      slt\n        /* \"#utility.yul\":2331:2450   */\n      iszero\n      tag_109\n      jumpi\n        /* \"#utility.yul\":2369:2448   */\n      tag_110\n      tag_48\n      jump\t// in\n    tag_110:\n        /* \"#utility.yul\":2331:2450   */\n    tag_109:\n        /* \"#utility.yul\":2489:2490   */\n      0x00\n        /* \"#utility.yul\":2514:2567   */\n      tag_111\n        /* \"#utility.yul\":2559:2566   */\n      dup7\n        /* \"#utility.yul\":2550:2556   */\n      dup3\n        /* \"#utility.yul\":2539:2548   */\n      dup8\n        /* \"#utility.yul\":2535:2557   */\n      add\n        /* \"#utility.yul\":2514:2567   */\n      tag_53\n      jump\t// in\n    tag_111:\n        /* \"#utility.yul\":2504:2567   */\n      swap4\n      pop\n        /* \"#utility.yul\":2460:2577   */\n      pop\n        /* \"#utility.yul\":2644:2646   */\n      0x20\n        /* \"#utility.yul\":2633:2642   */\n      dup5\n        /* \"#utility.yul\":2629:2647   */\n      add\n        /* \"#utility.yul\":2616:2648   */\n      calldataload\n        /* \"#utility.yul\":2675:2693   */\n      0xffffffffffffffff\n        /* \"#utility.yul\":2667:2673   */\n      dup2\n        /* \"#utility.yul\":2664:2694   */\n      gt\n        /* \"#utility.yul\":2661:2778   */\n      iszero\n      tag_112\n      jumpi\n        /* \"#utility.yul\":2697:2776   */\n      tag_113\n      tag_49\n      jump\t// in\n    tag_113:\n        /* \"#utility.yul\":2661:2778   */\n    tag_112:\n        /* \"#utility.yul\":2810:2875   */\n      tag_114\n        /* \"#utility.yul\":2867:2874   */\n      dup7\n        /* \"#utility.yul\":2858:2864   */\n      dup3\n        /* \"#utility.yul\":2847:2856   */\n      dup8\n        /* \"#utility.yul\":2843:2865   */\n      add\n        /* \"#utility.yul\":2810:2875   */\n      tag_57\n      jump\t// in\n    tag_114:\n        /* \"#utility.yul\":2792:2875   */\n      swap3\n      pop\n      swap3\n      pop\n        /* \"#utility.yul\":2587:2885   */\n      pop\n        /* \"#utility.yul\":2218:2892   */\n      swap3\n      pop\n      swap3\n      pop\n      swap3\n      jump\t// out\n        /* \"#utility.yul\":2898:3227   */\n    tag_18:\n        /* \"#utility.yul\":2957:2963   */\n      0x00\n        /* \"#utility.yul\":3006:3008   */\n      0x20\n        /* \"#utility.yul\":2994:3003   */\n      dup3\n        /* \"#utility.yul\":2985:2992   */\n      dup5\n        /* \"#utility.yul\":2981:3004   */\n      sub\n        /* \"#utility.yul\":2977:3009   */\n      slt\n        /* \"#utility.yul\":2974:3093   */\n      iszero\n      tag_116\n      jumpi\n        /* \"#utility.yul\":3012:3091   */\n      tag_117\n      tag_48\n      jump\t// in\n    tag_117:\n        /* \"#utility.yul\":2974:3093   */\n    tag_116:\n        /* \"#utility.yul\":3132:3133   */\n      0x00\n        /* \"#utility.yul\":3157:3210   */\n      tag_118\n        /* \"#utility.yul\":3202:3209   */\n      dup5\n        /* \"#utility.yul\":3193:3199   */\n      dup3\n        /* \"#utility.yul\":3182:3191   */\n      dup6\n        /* \"#utility.yul\":3178:3200   */\n      add\n        /* \"#utility.yul\":3157:3210   */\n      tag_53\n      jump\t// in\n    tag_118:\n        /* \"#utility.yul\":3147:3210   */\n      swap2\n      pop\n        /* \"#utility.yul\":3103:3220   */\n      pop\n        /* \"#utility.yul\":2898:3227   */\n      swap3\n      swap2\n      pop\n      pop\n      jump\t// out\n        /* \"#utility.yul\":3233:3332   */\n    tag_58:\n        /* \"#utility.yul\":3285:3291   */\n      0x00\n        /* \"#utility.yul\":3319:3324   */\n      dup2\n        /* \"#utility.yul\":3313:3325   */\n      mload\n        /* \"#utility.yul\":3303:3325   */\n      swap1\n      pop\n        /* \"#utility.yul\":3233:3332   */\n      swap2\n      swap1\n      pop\n      jump\t// out\n        /* \"#utility.yul\":3338:3507   */\n    tag_59:\n        /* \"#utility.yul\":3422:3433   */\n      0x00\n        /* \"#utility.yul\":3456:3462   */\n      dup3\n        /* \"#utility.yul\":3451:3454   */\n      dup3\n        /* \"#utility.yul\":3444:3463   */\n      mstore\n        /* \"#utility.yul\":3496:3500   */\n      0x20\n        /* \"#utility.yul\":3491:3494   */\n      dup3\n        /* \"#utility.yul\":3487:3501   */\n      add\n        /* \"#utility.yul\":3472:3501   */\n      swap1\n      pop\n        /* \"#utility.yul\":3338:3507   */\n      swap3\n      swap2\n      pop\n      pop\n      jump\t// out\n        /* \"#utility.yul\":3513:3652   */\n    tag_60:\n        /* \"#utility.yul\":3602:3608   */\n      dup3\n        /* \"#utility.yul\":3597:3600   */\n      dup2\n        /* \"#utility.yul\":3592:3595   */\n      dup4\n        /* \"#utility.yul\":3586:3609   */\n      mcopy\n        /* \"#utility.yul\":3643:3644   */\n      0x00\n        /* \"#utility.yul\":3634:3640   */\n      dup4\n        /* \"#utility.yul\":3629:3632   */\n      dup4\n        /* \"#utility.yul\":3625:3641   */\n      add\n        /* \"#utility.yul\":3618:3645   */\n      mstore\n        /* \"#utility.yul\":3513:3652   */\n      pop\n      pop\n      pop\n      jump\t// out\n        /* \"#utility.yul\":3658:3760   */\n    tag_61:\n        /* \"#utility.yul\":3699:3705   */\n      0x00\n        /* \"#utility.yul\":3750:3752   */\n      0x1f\n        /* \"#utility.yul\":3746:3753   */\n      not\n        /* \"#utility.yul\":3741:3743   */\n      0x1f\n        /* \"#utility.yul\":3734:3739   */\n      dup4\n        /* \"#utility.yul\":3730:3744   */\n      add\n        /* \"#utility.yul\":3726:3754   */\n      and\n        /* \"#utility.yul\":3716:3754   */\n      swap1\n      pop\n        /* \"#utility.yul\":3658:3760   */\n      swap2\n      swap1\n      pop\n      jump\t// out\n        /* \"#utility.yul\":3766:4143   */\n    tag_62:\n        /* \"#utility.yul\":3854:3857   */\n      0x00\n        /* \"#utility.yul\":3882:3921   */\n      tag_124\n        /* \"#utility.yul\":3915:3920   */\n      dup3\n        /* \"#utility.yul\":3882:3921   */\n      tag_58\n      jump\t// in\n    tag_124:\n        /* \"#utility.yul\":3937:4008   */\n      tag_125\n        /* \"#utility.yul\":4001:4007   */\n      dup2\n        /* \"#utility.yul\":3996:3999   */\n      dup6\n        /* \"#utility.yul\":3937:4008   */\n      tag_59\n      jump\t// in\n    tag_125:\n        /* \"#utility.yul\":3930:4008   */\n      swap4\n      pop\n        /* \"#utility.yul\":4017:4082   */\n      tag_126\n        /* \"#utility.yul\":4075:4081   */\n      dup2\n        /* \"#utility.yul\":4070:4073   */\n      dup6\n        /* \"#utility.yul\":4063:4067   */\n      0x20\n        /* \"#utility.yul\":4056:4061   */\n      dup7\n        /* \"#utility.yul\":4052:4068   */\n      add\n        /* \"#utility.yul\":4017:4082   */\n      tag_60\n      jump\t// in\n    tag_126:\n        /* \"#utility.yul\":4107:4136   */\n      tag_127\n        /* \"#utility.yul\":4129:4135   */\n      dup2\n        /* \"#utility.yul\":4107:4136   */\n      tag_61\n      jump\t// in\n    tag_127:\n        /* \"#utility.yul\":4102:4105   */\n      dup5\n        /* \"#utility.yul\":4098:4137   */\n      add\n        /* \"#utility.yul\":4091:4137   */\n      swap2\n      pop\n        /* \"#utility.yul\":3858:4143   */\n      pop\n        /* \"#utility.yul\":3766:4143   */\n      swap3\n      swap2\n      pop\n      pop\n      jump\t// out\n        /* \"#utility.yul\":4149:4572   */\n    tag_21:\n        /* \"#utility.yul\":4290:4294   */\n      0x00\n        /* \"#utility.yul\":4328:4330   */\n      0x40\n        /* \"#utility.yul\":4317:4326   */\n      dup3\n        /* \"#utility.yul\":4313:4331   */\n      add\n        /* \"#utility.yul\":4305:4331   */\n      swap1\n      pop\n        /* \"#utility.yul\":4341:4412   */\n      tag_129\n        /* \"#utility.yul\":4409:4410   */\n      0x00\n        /* \"#utility.yul\":4398:4407   */\n      dup4\n        /* \"#utility.yul\":4394:4411   */\n      add\n        /* \"#utility.yul\":4385:4391   */\n      dup6\n        /* \"#utility.yul\":4341:4412   */\n      tag_46\n      jump\t// in\n    tag_129:\n        /* \"#utility.yul\":4459:4468   */\n      dup2\n        /* \"#utility.yul\":4453:4457   */\n      dup2\n        /* \"#utility.yul\":4449:4469   */\n      sub\n        /* \"#utility.yul\":4444:4446   */\n      0x20\n        /* \"#utility.yul\":4433:4442   */\n      dup4\n        /* \"#utility.yul\":4429:4447   */\n      add\n        /* \"#utility.yul\":4422:4470   */\n      mstore\n        /* \"#utility.yul\":4487:4565   */\n      tag_130\n        /* \"#utility.yul\":4560:4564   */\n      dup2\n        /* \"#utility.yul\":4551:4557   */\n      dup5\n        /* \"#utility.yul\":4487:4565   */\n      tag_62\n      jump\t// in\n    tag_130:\n        /* \"#utility.yul\":4479:4565   */\n      swap1\n      pop\n        /* \"#utility.yul\":4149:4572   */\n      swap4\n      swap3\n      pop\n      pop\n      pop\n      jump\t// out\n        /* \"#utility.yul\":4578:4891   */\n    tag_26:\n        /* \"#utility.yul\":4691:4695   */\n      0x00\n        /* \"#utility.yul\":4729:4731   */\n      0x20\n        /* \"#utility.yul\":4718:4727   */\n      dup3\n        /* \"#utility.yul\":4714:4732   */\n      add\n        /* \"#utility.yul\":4706:4732   */\n      swap1\n      pop\n        /* \"#utility.yul\":4778:4787   */\n      dup2\n        /* \"#utility.yul\":4772:4776   */\n      dup2\n        /* \"#utility.yul\":4768:4788   */\n      sub\n        /* \"#utility.yul\":4764:4765   */\n      0x00\n        /* \"#utility.yul\":4753:4762   */\n      dup4\n        /* \"#utility.yul\":4749:4766   */\n      add\n        /* \"#utility.yul\":4742:4789   */\n      mstore\n        /* \"#utility.yul\":4806:4884   */\n      tag_132\n        /* \"#utility.yul\":4879:4883   */\n      dup2\n        /* \"#utility.yul\":4870:4876   */\n      dup5\n        /* \"#utility.yul\":4806:4884   */\n      tag_62\n      jump\t// in\n    tag_132:\n        /* \"#utility.yul\":4798:4884   */\n      swap1\n      pop\n        /* \"#utility.yul\":4578:4891   */\n      swap3\n      swap2\n      pop\n      pop\n      jump\t// out\n        /* \"#utility.yul\":4897:4994   */\n    tag_63:\n        /* \"#utility.yul\":4956:4962   */\n      0x00\n        /* \"#utility.yul\":4984:4987   */\n      dup3\n        /* \"#utility.yul\":4974:4987   */\n      swap1\n      pop\n        /* \"#utility.yul\":4897:4994   */\n      swap3\n      swap2\n      pop\n      pop\n      jump\t// out\n        /* \"#utility.yul\":5000:5180   */\n    tag_64:\n        /* \"#utility.yul\":5048:5125   */\n      0x4e487b7100000000000000000000000000000000000000000000000000000000\n        /* \"#utility.yul\":5045:5046   */\n      0x00\n        /* \"#utility.yul\":5038:5126   */\n      mstore\n        /* \"#utility.yul\":5145:5149   */\n      0x41\n        /* \"#utility.yul\":5142:5143   */\n      0x04\n        /* \"#utility.yul\":5135:5150   */\n      mstore\n        /* \"#utility.yul\":5169:5173   */\n      0x24\n        /* \"#utility.yul\":5166:5167   */\n      0x00\n        /* \"#utility.yul\":5159:5174   */\n      revert\n        /* \"#utility.yul\":5186:5366   */\n    tag_65:\n        /* \"#utility.yul\":5234:5311   */\n      0x4e487b7100000000000000000000000000000000000000000000000000000000\n        /* \"#utility.yul\":5231:5232   */\n      0x00\n        /* \"#utility.yul\":5224:5312   */\n      mstore\n        /* \"#utility.yul\":5331:5335   */\n      0x22\n        /* \"#utility.yul\":5328:5329   */\n      0x04\n        /* \"#utility.yul\":5321:5336   */\n      mstore\n        /* \"#utility.yul\":5355:5359   */\n      0x24\n        /* \"#utility.yul\":5352:5353   */\n      0x00\n        /* \"#utility.yul\":5345:5360   */\n      revert\n        /* \"#utility.yul\":5372:5692   */\n    tag_34:\n        /* \"#utility.yul\":5416:5422   */\n      0x00\n        /* \"#utility.yul\":5453:5454   */\n      0x02\n        /* \"#utility.yul\":5447:5451   */\n      dup3\n        /* \"#utility.yul\":5443:5455   */\n      div\n        /* \"#utility.yul\":5433:5455   */\n      swap1\n      pop\n        /* \"#utility.yul\":5500:5501   */\n      0x01\n        /* \"#utility.yul\":5494:5498   */\n      dup3\n        /* \"#utility.yul\":5490:5502   */\n      and\n        /* \"#utility.yul\":5521:5539   */\n      dup1\n        /* \"#utility.yul\":5511:5592   */\n      tag_137\n      jumpi\n        /* \"#utility.yul\":5577:5581   */\n      0x7f\n        /* \"#utility.yul\":5569:5575   */\n      dup3\n        /* \"#utility.yul\":5565:5582   */\n      and\n        /* \"#utility.yul\":5555:5582   */\n      swap2\n      pop\n        /* \"#utility.yul\":5511:5592   */\n    tag_137:\n        /* \"#utility.yul\":5639:5641   */\n      0x20\n        /* \"#utility.yul\":5631:5637   */\n      dup3\n        /* \"#utility.yul\":5628:5642   */\n      lt\n        /* \"#utility.yul\":5608:5626   */\n      dup2\n        /* \"#utility.yul\":5605:5643   */\n      sub\n        /* \"#utility.yul\":5602:5686   */\n      tag_138\n      jumpi\n        /* \"#utility.yul\":5658:5676   */\n      tag_139\n      tag_65\n      jump\t// in\n    tag_139:\n        /* \"#utility.yul\":5602:5686   */\n    tag_138:\n        /* \"#utility.yul\":5423:5692   */\n      pop\n        /* \"#utility.yul\":5372:5692   */\n      swap2\n      swap1\n      pop\n      jump\t// out\n        /* \"#utility.yul\":5698:5839   */\n    tag_66:\n        /* \"#utility.yul\":5747:5751   */\n      0x00\n        /* \"#utility.yul\":5770:5773   */\n      dup2\n        /* \"#utility.yul\":5762:5773   */\n      swap1\n      pop\n        /* \"#utility.yul\":5793:5796   */\n      dup2\n        /* \"#utility.yul\":5790:5791   */\n      0x00\n        /* \"#utility.yul\":5783:5797   */\n      mstore\n        /* \"#utility.yul\":5827:5831   */\n      0x20\n        /* \"#utility.yul\":5824:5825   */\n      0x00\n        /* \"#utility.yul\":5814:5832   */\n      keccak256\n        /* \"#utility.yul\":5806:5832   */\n      swap1\n      pop\n        /* \"#utility.yul\":5698:5839   */\n      swap2\n      swap1\n      pop\n      jump\t// out\n        /* \"#utility.yul\":5845:5938   */\n    tag_67:\n        /* \"#utility.yul\":5882:5888   */\n      0x00\n        /* \"#utility.yul\":5929:5931   */\n      0x20\n        /* \"#utility.yul\":5924:5926   */\n      0x1f\n        /* \"#utility.yul\":5917:5922   */\n      dup4\n        /* \"#utility.yul\":5913:5927   */\n      add\n        /* \"#utility.yul\":5909:5932   */\n      div\n        /* \"#utility.yul\":5899:5932   */\n      swap1\n      pop\n        /* \"#utility.yul\":5845:5938   */\n      swap2\n      swap1\n      pop\n      jump\t// out\n        /* \"#utility.yul\":5944:6051   */\n    tag_68:\n        /* \"#utility.yul\":5988:5996   */\n      0x00\n        /* \"#utility.yul\":6038:6043   */\n      dup3\n        /* \"#utility.yul\":6032:6036   */\n      dup3\n        /* \"#utility.yul\":6028:6044   */\n      shl\n        /* \"#utility.yul\":6007:6044   */\n      swap1\n      pop\n        /* \"#utility.yul\":5944:6051   */\n      swap3\n      swap2\n      pop\n      pop\n      jump\t// out\n        /* \"#utility.yul\":6057:6450   */\n    tag_69:\n        /* \"#utility.yul\":6126:6132   */\n      0x00\n        /* \"#utility.yul\":6176:6177   */\n      0x08\n        /* \"#utility.yul\":6164:6174   */\n      dup4\n        /* \"#utility.yul\":6160:6178   */\n      mul\n        /* \"#utility.yul\":6199:6296   */\n      tag_144\n        /* \"#utility.yul\":6229:6295   */\n      0xffffffffffffffffffffffffffffffffffffffffffffffffffffffffffffffff\n        /* \"#utility.yul\":6218:6227   */\n      dup3\n        /* \"#utility.yul\":6199:6296   */\n      tag_68\n      jump\t// in\n    tag_144:\n        /* \"#utility.yul\":6317:6356   */\n      tag_145\n        /* \"#utility.yul\":6347:6355   */\n      dup7\n        /* \"#utility.yul\":6336:6345   */\n      dup4\n        /* \"#utility.yul\":6317:6356   */\n      tag_68\n      jump\t// in\n    tag_145:\n        /* \"#utility.yul\":6305:6356   */\n      swap6\n      pop\n        /* \"#utility.yul\":6389:6393   */\n      dup1\n        /* \"#utility.yul\":6385:6394   */\n      not\n        /* \"#utility.yul\":6378:6383   */\n      dup5\n        /* \"#utility.yul\":6374:6395   */\n      and\n        /* \"#utility.yul\":6365:6395   */\n      swap4\n      pop\n        /* \"#utility.yul\":6438:6442   */\n      dup1\n        /* \"#utility.yul\":6428:6436   */\n      dup7\n        /* \"#utility.yul\":6424:6443   */\n      and\n        /* \"#utility.yul\":6417:6422   */\n      dup5\n        /* \"#utility.yul\":6414:6444   */\n      or\n        /* \"#utility.yul\":6404:6444   */\n      swap3\n      pop\n        /* \"#utility.yul\":6133:6450   */\n      pop\n      pop\n        /* \"#utility.yul\":6057:6450   */\n      swap4\n      swap3\n      pop\n      pop\n      pop\n      jump\t// out\n        /* \"#utility.yul\":6456:6516   */\n    tag_70:\n        /* \"#utility.yul\":6484:6487   */\n      0x00\n        /* \"#utility.yul\":6505:6510   */\n      dup2\n        /* \"#utility.yul\":6498:6510   */\n      swap1\n      pop\n        /* \"#utility.yul\":6456:6516   */\n      swap2\n      swap1\n      pop\n      jump\t// out\n        /* \"#utility.yul\":6522:6664   */\n    tag_71:\n        /* \"#utility.yul\":6572:6581   */\n      0x00\n        /* \"#utility.yul\":6605:6658   */\n      tag_148\n        /* \"#utility.yul\":6623:6657   */\n      tag_149\n        /* \"#utility.yul\":6632:6656   */\n      tag_150\n        /* \"#utility.yul\":6650:6655   */\n      dup5\n        /* \"#utility.yul\":6632:6656   */\n      tag_45\n      jump\t// in\n    tag_150:\n        /* \"#utility.yul\":6623:6657   */\n      tag_70\n      jump\t// in\n    tag_149:\n        /* \"#utility.yul\":6605:6658   */\n      tag_45\n      jump\t// in\n    tag_148:\n        /* \"#utility.yul\":6592:6658   */\n      swap1\n      pop\n        /* \"#utility.yul\":6522:6664   */\n      swap2\n      swap1\n      pop\n      jump\t// out\n        /* \"#utility.yul\":6670:6745   */\n    tag_72:\n        /* \"#utility.yul\":6713:6716   */\n      0x00\n        /* \"#utility.yul\":6734:6739   */\n      dup2\n        /* \"#utility.yul\":6727:6739   */\n      swap1\n      pop\n        /* \"#utility.yul\":6670:6745   */\n      swap2\n      swap1\n      pop\n      jump\t// out\n        /* \"#utility.yul\":6751:7020   */\n    tag_73:\n        /* \"#utility.yul\":6861:6900   */\n      tag_153\n        /* \"#utility.yul\":6892:6899   */\n      dup4\n        /* \"#utility.yul\":6861:6900   */\n      tag_71\n      jump\t// in\n    tag_153:\n        /* \"#utility.yul\":6922:7013   */\n      tag_154\n        /* \"#utility.yul\":6971:7012   */\n      tag_155\n        /* \"#utility.yul\":6995:7011   */\n      dup3\n        /* \"#utility.yul\":6971:7012   */\n      tag_72\n      jump\t// in\n    tag_155:\n        /* \"#utility.yul\":6963:6969   */\n      dup5\n        /* \"#utility.yul\":6956:6960   */\n      dup5\n        /* \"#utility.yul\":6950:6961   */\n      sload\n        /* \"#utility.yul\":6922:7013   */\n      tag_69\n      jump\t// in\n    tag_154:\n        /* \"#utility.yul\":6916:6920   */\n      dup3\n        /* \"#utility.yul\":6909:7014   */\n      sstore\n        /* \"#utility.yul\":6827:7020   */\n      pop\n        /* \"#utility.yul\":6751:7020   */\n      pop\n      pop\n      pop\n      jump\t// out\n        /* \"#utility.yul\":7026:7099   */\n    tag_74:\n        /* \"#utility.yul\":7071:7074   */\n      0x00\n        /* \"#utility.yul\":7026:7099   */\n      swap1\n      jump\t// out\n        /* \"#utility.yul\":7105:7294   */\n    tag_75:\n        /* \"#utility.yul\":7182:7214   */\n      tag_158\n      tag_74\n      jump\t// in\n    tag_158:\n        /* \"#utility.yul\":7223:7288   */\n      tag_159\n        /* \"#utility.yul\":7281:7287   */\n      dup2\n        /* \"#utility.yul\":7273:7279   */\n      dup5\n        /* \"#utility.yul\":7267:7271   */\n      dup5\n        /* \"#utility.yul\":7223:7288   */\n      tag_73\n      jump\t// in\n    tag_159:\n        /* \"#utility.yul\":7158:7294   */\n      pop\n        /* \"#utility.yul\":7105:7294   */\n      pop\n      pop\n      jump\t// out\n        /* \"#utility.yul\":7300:7486   */\n    tag_76:\n        /* \"#utility.yul\":7360:7480   */\n    tag_161:\n        /* \"#utility.yul\":7377:7380   */\n      dup2\n        /* \"#utility.yul\":7370:7375   */\n      dup2\n        /* \"#utility.yul\":7367:7381   */\n      lt\n        /* \"#utility.yul\":7360:7480   */\n      iszero\n      tag_163\n      jumpi\n        /* \"#utility.yul\":7431:7470   */\n      tag_164\n        /* \"#utility.yul\":7468:7469   */\n      0x00\n        /* \"#utility.yul\":7461:7466   */\n      dup3\n        /* \"#utility.yul\":7431:7470   */\n      tag_75\n      jump\t// in\n    tag_164:\n        /* \"#utility.yul\":7404:7405   */\n      0x01\n        /* \"#utility.yul\":7397:7402   */\n      dup2\n        /* \"#utility.yul\":7393:7406   */\n      add\n        /* \"#utility.yul\":7384:7406   */\n      swap1\n      pop\n        /* \"#utility.yul\":7360:7480   */\n      jump(tag_161)\n    tag_163:\n        /* \"#utility.yul\":7300:7486   */\n      pop\n      pop\n      jump\t// out\n        /* \"#utility.yul\":7492:8035   */\n    tag_77:\n        /* \"#utility.yul\":7593:7595   */\n      0x1f\n        /* \"#utility.yul\":7588:7591   */\n      dup3\n        /* \"#utility.yul\":7585:7596   */\n      gt\n        /* \"#utility.yul\":7582:8028   */\n      iszero\n      tag_166\n      jumpi\n        /* \"#utility.yul\":7627:7665   */\n      tag_167\n        /* \"#utility.yul\":7659:7664   */\n      dup2\n        /* \"#utility.yul\":7627:7665   */\n      tag_66\n      jump\t// in\n    tag_167:\n        /* \"#utility.yul\":7711:7740   */\n      tag_168\n        /* \"#utility.yul\":7729:7739   */\n      dup5\n        /* \"#utility.yul\":7711:7740   */\n      tag_67\n      jump\t// in\n    tag_168:\n        /* \"#utility.yul\":7701:7709   */\n      dup2\n        /* \"#utility.yul\":7697:7741   */\n      add\n        /* \"#utility.yul\":7894:7896   */\n      0x20\n        /* \"#utility.yul\":7882:7892   */\n      dup6\n        /* \"#utility.yul\":7879:7897   */\n      lt\n        /* \"#utility.yul\":7876:7925   */\n      iszero\n      tag_169\n      jumpi\n        /* \"#utility.yul\":7915:7923   */\n      dup2\n        /* \"#utility.yul\":7900:7923   */\n      swap1\n      pop\n        /* \"#utility.yul\":7876:7925   */\n    tag_169:\n        /* \"#utility.yul\":7938:8018   */\n      tag_170\n        /* \"#utility.yul\":7994:8016   */\n      tag_171\n        /* \"#utility.yul\":8012:8015   */\n      dup6\n        /* \"#utility.yul\":7994:8016   */\n      tag_67\n      jump\t// in\n    tag_171:\n        /* \"#utility.yul\":7984:7992   */\n      dup4\n        /* \"#utility.yul\":7980:8017   */\n      add\n        /* \"#utility.yul\":7967:7978   */\n      dup3\n        /* \"#utility.yul\":7938:8018   */\n      tag_76\n      jump\t// in\n    tag_170:\n        /* \"#utility.yul\":7597:8028   */\n      pop\n      pop\n        /* \"#utility.yul\":7582:8028   */\n    tag_166:\n        /* \"#utility.yul\":7492:8035   */\n      pop\n      pop\n      pop\n      jump\t// out\n        /* \"#utility.yul\":8041:8158   */\n    tag_78:\n        /* \"#utility.yul\":8095:8103   */\n      0x00\n        /* \"#utility.yul\":8145:8150   */\n      dup3\n        /* \"#utility.yul\":8139:8143   */\n      dup3\n        /* \"#utility.yul\":8135:8151   */\n      shr\n        /* \"#utility.yul\":8114:8151   */\n      swap1\n      pop\n        /* \"#utility.yul\":8041:8158   */\n      swap3\n      swap2\n      pop\n      pop\n      jump\t// out\n        /* \"#utility.yul\":8164:8333   */\n    tag_79:\n        /* \"#utility.yul\":8208:8214   */\n      0x00\n        /* \"#utility.yul\":8241:8292   */\n      tag_174\n        /* \"#utility.yul\":8289:8290   */\n      0x00\n        /* \"#utility.yul\":8285:8291   */\n      not\n        /* \"#utility.yul\":8277:8282   */\n      dup5\n        /* \"#utility.yul\":8274:8275   */\n      0x08\n        /* \"#utility.yul\":8270:8283   */\n      mul\n        /* \"#utility.yul\":8241:8292   */\n      tag_78\n      jump\t// in\n    tag_174:\n        /* \"#utility.yul\":8237:8293   */\n      not\n        /* \"#utility.yul\":8322:8326   */\n      dup1\n        /* \"#utility.yul\":8316:8320   */\n      dup4\n        /* \"#utility.yul\":8312:8327   */\n      and\n        /* \"#utility.yul\":8302:8327   */\n      swap2\n      pop\n        /* \"#utility.yul\":8215:8333   */\n      pop\n        /* \"#utility.yul\":8164:8333   */\n      swap3\n      swap2\n      pop\n      pop\n      jump\t// out\n        /* \"#utility.yul\":8338:8633   */\n    tag_80:\n        /* \"#utility.yul\":8414:8418   */\n      0x00\n        /* \"#utility.yul\":8560:8589   */\n      tag_176\n        /* \"#utility.yul\":8585:8588   */\n      dup4\n        /* \"#utility.yul\":8579:8583   */\n      dup4\n        /* \"#utility.yul\":8560:8589   */\n      tag_79\n      jump\t// in\n    tag_176:\n        /* \"#utility.yul\":8552:8589   */\n      swap2\n      pop\n        /* \"#utility.yul\":8622:8625   */\n      dup3\n        /* \"#utility.yul\":8619:8620   */\n      0x02\n        /* \"#utility.yul\":8615:8626   */\n      mul\n        /* \"#utility.yul\":8609:8613   */\n      dup3\n        /* \"#utility.yul\":8606:8627   */\n      or\n        /* \"#utility.yul\":8598:8627   */\n      swap1\n      pop\n        /* \"#utility.yul\":8338:8633   */\n      swap3\n      swap2\n      pop\n      pop\n      jump\t// out\n        /* \"#utility.yul\":8638:10041   */\n    tag_32:\n        /* \"#utility.yul\":8762:8806   */\n      tag_178\n        /* \"#utility.yul\":8802:8805   */\n      dup4\n        /* \"#utility.yul\":8797:8800   */\n      dup4\n        /* \"#utility.yul\":8762:8806   */\n      tag_63\n      jump\t// in\n    tag_178:\n        /* \"#utility.yul\":8871:8889   */\n      0xffffffffffffffff\n        /* \"#utility.yul\":8863:8869   */\n      dup2\n        /* \"#utility.yul\":8860:8890   */\n      gt\n        /* \"#utility.yul\":8857:8913   */\n      iszero\n      tag_179\n      jumpi\n        /* \"#utility.yul\":8893:8911   */\n      tag_180\n      tag_64\n      jump\t// in\n    tag_180:\n        /* \"#utility.yul\":8857:8913   */\n    tag_179:\n        /* \"#utility.yul\":8937:8975   */\n      tag_181\n        /* \"#utility.yul\":8969:8973   */\n      dup3\n        /* \"#utility.yul\":8963:8974   */\n      sload\n        /* \"#utility.yul\":8937:8975   */\n      tag_34\n      jump\t// in\n    tag_181:\n        /* \"#utility.yul\":9022:9089   */\n      tag_182\n        /* \"#utility.yul\":9082:9088   */\n      dup3\n        /* \"#utility.yul\":9074:9080   */\n      dup3\n        /* \"#utility.yul\":9068:9072   */\n      dup6\n        /* \"#utility.yul\":9022:9089   */\n      tag_77\n      jump\t// in\n    tag_182:\n        /* \"#utility.yul\":9116:9117   */\n      0x00\n        /* \"#utility.yul\":9145:9147   */\n      0x1f\n        /* \"#utility.yul\":9137:9143   */\n      dup4\n        /* \"#utility.yul\":9134:9148   */\n      gt\n        /* \"#utility.yul\":9162:9163   */\n      0x01\n        /* \"#utility.yul\":9157:9789   */\n      dup2\n      eq\n      tag_184\n      jumpi\n        /* \"#utility.yul\":9833:9834   */\n      0x00\n        /* \"#utility.yul\":9850:9856   */\n      dup5\n        /* \"#utility.yul\":9847:9931   */\n      iszero\n      tag_185\n      jumpi\n        /* \"#utility.yul\":9906:9915   */\n      dup3\n        /* \"#utility.yul\":9901:9904   */\n      dup8\n        /* \"#utility.yul\":9897:9916   */\n      add\n        /* \"#utility.yul\":9884:9917   */\n      calldataload\n        /* \"#utility.yul\":9875:9917   */\n      swap1\n      pop\n        /* \"#utility.yul\":9847:9931   */\n    tag_185:\n        /* \"#utility.yul\":9957:10024   */\n      tag_186\n        /* \"#utility.yul\":10017:10023   */\n      dup6\n        /* \"#utility.yul\":10010:10015   */\n      dup3\n        /* \"#utility.yul\":9957:10024   */\n      tag_80\n      jump\t// in\n    tag_186:\n        /* \"#utility.yul\":9951:9955   */\n      dup7\n        /* \"#utility.yul\":9944:10025   */\n      sstore\n        /* \"#utility.yul\":9806:10035   */\n      pop\n        /* \"#utility.yul\":9127:10035   */\n      jump(tag_183)\n        /* \"#utility.yul\":9157:9789   */\n    tag_184:\n        /* \"#utility.yul\":9209:9213   */\n      0x1f\n        /* \"#utility.yul\":9205:9214   */\n      not\n        /* \"#utility.yul\":9197:9203   */\n      dup5\n        /* \"#utility.yul\":9193:9215   */\n      and\n        /* \"#utility.yul\":9243:9280   */\n      tag_187\n        /* \"#utility.yul\":9275:9279   */\n      dup7\n        /* \"#utility.yul\":9243:9280   */\n      tag_66\n      jump\t// in\n    tag_187:\n        /* \"#utility.yul\":9302:9303   */\n      0x00\n        /* \"#utility.yul\":9316:9531   */\n    tag_188:\n        /* \"#utility.yul\":9330:9337   */\n      dup3\n        /* \"#utility.yul\":9327:9328   */\n      dup2\n        /* \"#utility.yul\":9324:9338   */\n      lt\n        /* \"#utility.yul\":9316:9531   */\n      iszero\n      tag_190\n      jumpi\n        /* \"#utility.yul\":9416:9425   */\n      dup5\n        /* \"#utility.yul\":9411:9414   */\n      dup10\n        /* \"#utility.yul\":9407:9426   */\n      add\n        /* \"#utility.yul\":9394:9427   */\n      calldataload\n        /* \"#utility.yul\":9386:9392   */\n      dup3\n        /* \"#utility.yul\":9379:9428   */\n      sstore\n        /* \"#utility.yul\":9467:9468   */\n      0x01\n        /* \"#utility.yul\":9459:9465   */\n      dup3\n        /* \"#utility.yul\":9455:9469   */\n      add\n        /* \"#utility.yul\":9445:9469   */\n      swap2\n      pop\n        /* \"#utility.yul\":9514:9516   */\n      0x20\n        /* \"#utility.yul\":9503:9512   */\n      dup6\n        /* \"#utility.yul\":9499:9517   */\n      add\n        /* \"#utility.yul\":9486:9517   */\n      swap5\n      pop\n        /* \"#utility.yul\":9353:9357   */\n      0x20\n        /* \"#utility.yul\":9350:9351   */\n      dup2\n        /* \"#utility.yul\":9346:9358   */\n      add\n        /* \"#utility.yul\":9341:9358   */\n      swap1\n      pop\n        /* \"#utility.yul\":9316:9531   */\n      jump(tag_188)\n    tag_190:\n        /* \"#utility.yul\":9559:9565   */\n      dup7\n        /* \"#utility.yul\":9550:9557   */\n      dup4\n        /* \"#utility.yul\":9547:9566   */\n      lt\n        /* \"#utility.yul\":9544:9730   */\n      iszero\n      tag_191\n      jumpi\n        /* \"#utility.yul\":9624:9633   */\n      dup5\n        /* \"#utility.yul\":9619:9622   */\n      dup10\n        /* \"#utility.yul\":9615:9634   */\n      add\n        /* \"#utility.yul\":9602:9635   */\n      calldataload\n        /* \"#utility.yul\":9667:9715   */\n      tag_192\n        /* \"#utility.yul\":9709:9713   */\n      0x1f\n        /* \"#utility.yul\":9701:9707   */\n      dup10\n        /* \"#utility.yul\":9697:9714   */\n      and\n        /* \"#utility.yul\":9686:9695   */\n      dup3\n        /* \"#utility.yul\":9667:9715   */\n      tag_79\n      jump\t// in\n    tag_192:\n        /* \"#utility.yul\":9659:9665   */\n      dup4\n        /* \"#utility.yul\":9652:9716   */\n      sstore\n        /* \"#utility.yul\":9567:9730   */\n      pop\n        /* \"#utility.yul\":9544:9730   */\n    tag_191:\n        /* \"#utility.yul\":9776:9777   */\n      0x01\n        /* \"#utility.yul\":9772:9773   */\n      0x02\n        /* \"#utility.yul\":9764:9770   */\n      dup9\n        /* \"#utility.yul\":9760:9774   */\n      mul\n        /* \"#utility.yul\":9756:9778   */\n      add\n        /* \"#utility.yul\":9750:9754   */\n      dup9\n        /* \"#utility.yul\":9743:9779   */\n      sstore\n        /* \"#utility.yul\":9164:9789   */\n      pop\n      pop\n      pop\n        /* \"#utility.yul\":9127:10035   */\n    tag_183:\n      pop\n        /* \"#utility.yul\":8737:10041   */\n      pop\n      pop\n      pop\n        /* \"#utility.yul\":8638:10041   */\n      pop\n      pop\n      pop\n      jump\t// out\n\n    auxdata: 0xa2646970667358221220169f3ec6ad1f9f05b0cd9ecbc9d9f0cb319d594beb000e5c34de6e3ff1f40ca864736f6c634300081a0033\n}\n",
				"bytecode": {
					"linkReferences": {},
					"object": "6080604052348015600e575f80fd5b5061085b8061001c5f395ff3fe608060405234801561000f575f80fd5b5060043610610055575f3560e01c80630c55699c146100595780635a82d10014610077578063b43c5d3314610093578063c2bc2efc146100c4578063e81d53cf146100f4575b5f80fd5b610061610112565b60405161006e9190610305565b60405180910390f35b610091600480360381019061008c91906103e1565b610117565b005b6100ad60048036038101906100a8919061043e565b610171565b6040516100bb9291906104d9565b60405180910390f35b6100de60048036038101906100d9919061043e565b610217565b6040516100eb9190610507565b60405180910390f35b6100fc6102e7565b6040516101099190610305565b60405180910390f35b5f5481565b5f60025f8573ffffffffffffffffffffffffffffffffffffffff1673ffffffffffffffffffffffffffffffffffffffff1681526020019081526020015f209050828282600101918261016a929190610758565b5050505050565b6002602052805f5260405f205f91509050805f0154908060010180546101969061058b565b80601f01602080910402602001604051908101604052809291908181526020018280546101c29061058b565b801561020d5780601f106101e45761010080835404028352916020019161020d565b820191905f5260205f20905b8154815290600101906020018083116101f057829003601f168201915b5050505050905082565b606060025f8373ffffffffffffffffffffffffffffffffffffffff1673ffffffffffffffffffffffffffffffffffffffff1681526020019081526020015f2060010180546102649061058b565b80601f01602080910402602001604051908101604052809291908181526020018280546102909061058b565b80156102db5780601f106102b2576101008083540402835291602001916102db565b820191905f5260205f20905b8154815290600101906020018083116102be57829003601f168201915b50505050509050919050565b60015481565b5f819050919050565b6102ff816102ed565b82525050565b5f6020820190506103185f8301846102f6565b92915050565b5f80fd5b5f80fd5b5f73ffffffffffffffffffffffffffffffffffffffff82169050919050565b5f61034f82610326565b9050919050565b61035f81610345565b8114610369575f80fd5b50565b5f8135905061037a81610356565b92915050565b5f80fd5b5f80fd5b5f80fd5b5f8083601f8401126103a1576103a0610380565b5b8235905067ffffffffffffffff8111156103be576103bd610384565b5b6020830191508360018202830111156103da576103d9610388565b5b9250929050565b5f805f604084860312156103f8576103f761031e565b5b5f6104058682870161036c565b935050602084013567ffffffffffffffff81111561042657610425610322565b5b6104328682870161038c565b92509250509250925092565b5f602082840312156104535761045261031e565b5b5f6104608482850161036c565b91505092915050565b5f81519050919050565b5f82825260208201905092915050565b8281835e5f83830152505050565b5f601f19601f8301169050919050565b5f6104ab82610469565b6104b58185610473565b93506104c5818560208601610483565b6104ce81610491565b840191505092915050565b5f6040820190506104ec5f8301856102f6565b81810360208301526104fe81846104a1565b90509392505050565b5f6020820190508181035f83015261051f81846104a1565b905092915050565b5f82905092915050565b7f4e487b71000000000000000000000000000000000000000000000000000000005f52604160045260245ffd5b7f4e487b71000000000000000000000000000000000000000000000000000000005f52602260045260245ffd5b5f60028204905060018216806105a257607f821691505b6020821081036105b5576105b461055e565b5b50919050565b5f819050815f5260205f209050919050565b5f6020601f8301049050919050565b5f82821b905092915050565b5f600883026106177fffffffffffffffffffffffffffffffffffffffffffffffffffffffffffffffff826105dc565b61062186836105dc565b95508019841693508086168417925050509392505050565b5f819050919050565b5f61065c610657610652846102ed565b610639565b6102ed565b9050919050565b5f819050919050565b61067583610642565b61068961068182610663565b8484546105e8565b825550505050565b5f90565b61069d610691565b6106a881848461066c565b505050565b5b818110156106cb576106c05f82610695565b6001810190506106ae565b5050565b601f821115610710576106e1816105bb565b6106ea846105cd565b810160208510156106f9578190505b61070d610705856105cd565b8301826106ad565b50505b505050565b5f82821c905092915050565b5f6107305f1984600802610715565b1980831691505092915050565b5f6107488383610721565b9150826002028217905092915050565b6107628383610527565b67ffffffffffffffff81111561077b5761077a610531565b5b610785825461058b565b6107908282856106cf565b5f601f8311600181146107bd575f84156107ab578287013590505b6107b5858261073d565b86555061081c565b601f1984166107cb866105bb565b5f5b828110156107f2578489013582556001820191506020850194506020810190506107cd565b8683101561080f578489013561080b601f891682610721565b8355505b6001600288020188555050505b5050505050505056fea2646970667358221220169f3ec6ad1f9f05b0cd9ecbc9d9f0cb319d594beb000e5c34de6e3ff1f40ca864736f6c634300081a0033",
					"opcodes": "PUSH1 0x80 PUSH1 0x40 MSTORE CALLVALUE DUP1 ISZERO PUSH1 0xE JUMPI PUSH0 DUP1 REVERT JUMPDEST POP PUSH2 0x85B DUP1 PUSH2 0x1C PUSH0 CODECOPY PUSH0 RETURN INVALID PUSH1 0x80 PUSH1 0x40 MSTORE CALLVALUE DUP1 ISZERO PUSH2 0xF JUMPI PUSH0 DUP1 REVERT JUMPDEST POP PUSH1 0x4 CALLDATASIZE LT PUSH2 0x55 JUMPI PUSH0 CALLDATALOAD PUSH1 0xE0 SHR DUP1 PUSH4 0xC55699C EQ PUSH2 0x59 JUMPI DUP1 PUSH4 0x5A82D100 EQ PUSH2 0x77 JUMPI DUP1 PUSH4 0xB43C5D33 EQ PUSH2 0x93 JUMPI DUP1 PUSH4 0xC2BC2EFC EQ PUSH2 0xC4 JUMPI DUP1 PUSH4 0xE81D53CF EQ PUSH2 0xF4 JUMPI JUMPDEST PUSH0 DUP1 REVERT JUMPDEST PUSH2 0x61 PUSH2 0x112 JUMP JUMPDEST PUSH1 0x40 MLOAD PUSH2 0x6E SWAP2 SWAP1 PUSH2 0x305 JUMP JUMPDEST PUSH1 0x40 MLOAD DUP1 SWAP2 SUB SWAP1 RETURN JUMPDEST PUSH2 0x91 PUSH1 0x4 DUP1 CALLDATASIZE SUB DUP2 ADD SWAP1 PUSH2 0x8C SWAP2 SWAP1 PUSH2 0x3E1 JUMP JUMPDEST PUSH2 0x117 JUMP JUMPDEST STOP JUMPDEST PUSH2 0xAD PUSH1 0x4 DUP1 CALLDATASIZE SUB DUP2 ADD SWAP1 PUSH2 0xA8 SWAP2 SWAP1 PUSH2 0x43E JUMP JUMPDEST PUSH2 0x171 JUMP JUMPDEST PUSH1 0x40 MLOAD PUSH2 0xBB SWAP3 SWAP2 SWAP1 PUSH2 0x4D9 JUMP JUMPDEST PUSH1 0x40 MLOAD DUP1 SWAP2 SUB SWAP1 RETURN JUMPDEST PUSH2 0xDE PUSH1 0x4 DUP1 CALLDATASIZE SUB DUP2 ADD SWAP1 PUSH2 0xD9 SWAP2 SWAP1 PUSH2 0x43E JUMP JUMPDEST PUSH2 0x217 JUMP JUMPDEST PUSH1 0x40 MLOAD PUSH2 0xEB SWAP2 SWAP1 PUSH2 0x507 JUMP JUMPDEST PUSH1 0x40 MLOAD DUP1 SWAP2 SUB SWAP1 RETURN JUMPDEST PUSH2 0xFC PUSH2 0x2E7 JUMP JUMPDEST PUSH1 0x40 MLOAD PUSH2 0x109 SWAP2 SWAP1 PUSH2 0x305 JUMP JUMPDEST PUSH1 0x40 MLOAD DUP1 SWAP2 SUB SWAP1 RETURN JUMPDEST PUSH0 SLOAD DUP2 JUMP JUMPDEST PUSH0 PUSH1 0x2 PUSH0 DUP6 PUSH20 0xFFFFFFFFFFFFFFFFFFFFFFFFFFFFFFFFFFFFFFFF AND PUSH20 0xFFFFFFFFFFFFFFFFFFFFFFFFFFFFFFFFFFFFFFFF AND DUP2 MSTORE PUSH1 0x20 ADD SWAP1 DUP2 MSTORE PUSH1 0x20 ADD PUSH0 KECCAK256 SWAP1 POP DUP3 DUP3 DUP3 PUSH1 0x1 ADD SWAP2 DUP3 PUSH2 0x16A SWAP3 SWAP2 SWAP1 PUSH2 0x758 JUMP JUMPDEST POP POP POP POP POP JUMP JUMPDEST PUSH1 0x2 PUSH1 0x20 MSTORE DUP1 PUSH0 MSTORE PUSH1 0x40 PUSH0 KECCAK256 PUSH0 SWAP2 POP SWAP1 POP DUP1 PUSH0 ADD SLOAD SWAP1 DUP1 PUSH1 0x1 ADD DUP1 SLOAD PUSH2 0x196 SWAP1 PUSH2 0x58B JUMP JUMPDEST DUP1 PUSH1 0x1F ADD PUSH1 0x20 DUP1 SWAP2 DIV MUL PUSH1 0x20 ADD PUSH1 0x40 MLOAD SWAP1 DUP2 ADD PUSH1 0x40 MSTORE DUP1 SWAP3 SWAP2 SWAP1 DUP2 DUP2 MSTORE PUSH1 0x20 ADD DUP3 DUP1 SLOAD PUSH2 0x1C2 SWAP1 PUSH2 0x58B JUMP JUMPDEST DUP1 ISZERO PUSH2 0x20D JUMPI DUP1 PUSH1 0x1F LT PUSH2 0x1E4 JUMPI PUSH2 0x100 DUP1 DUP4 SLOAD DIV MUL DUP4 MSTORE SWAP2 PUSH1 0x20 ADD SWAP2 PUSH2 0x20D JUMP JUMPDEST DUP3 ADD SWAP2 SWAP1 PUSH0 MSTORE PUSH1 0x20 PUSH0 KECCAK256 SWAP1 JUMPDEST DUP2 SLOAD DUP2 MSTORE SWAP1 PUSH1 0x1 ADD SWAP1 PUSH1 0x20 ADD DUP1 DUP4 GT PUSH2 0x1F0 JUMPI DUP3 SWAP1 SUB PUSH1 0x1F AND DUP3 ADD SWAP2 JUMPDEST POP POP POP POP POP SWAP1 POP DUP3 JUMP JUMPDEST PUSH1 0x60 PUSH1 0x2 PUSH0 DUP4 PUSH20 0xFFFFFFFFFFFFFFFFFFFFFFFFFFFFFFFFFFFFFFFF AND PUSH20 0xFFFFFFFFFFFFFFFFFFFFFFFFFFFFFFFFFFFFFFFF AND DUP2 MSTORE PUSH1 0x20 ADD SWAP1 DUP2 MSTORE PUSH1 0x20 ADD PUSH0 KECCAK256 PUSH1 0x1 ADD DUP1 SLOAD PUSH2 0x264 SWAP1 PUSH2 0x58B JUMP JUMPDEST DUP1 PUSH1 0x1F ADD PUSH1 0x20 DUP1 SWAP2 DIV MUL PUSH1 0x20 ADD PUSH1 0x40 MLOAD SWAP1 DUP2 ADD PUSH1 0x40 MSTORE DUP1 SWAP3 SWAP2 SWAP1 DUP2 DUP2 MSTORE PUSH1 0x20 ADD DUP3 DUP1 SLOAD PUSH2 0x290 SWAP1 PUSH2 0x58B JUMP JUMPDEST DUP1 ISZERO PUSH2 0x2DB JUMPI DUP1 PUSH1 0x1F LT PUSH2 0x2B2 JUMPI PUSH2 0x100 DUP1 DUP4 SLOAD DIV MUL DUP4 MSTORE SWAP2 PUSH1 0x20 ADD SWAP2 PUSH2 0x2DB JUMP JUMPDEST DUP3 ADD SWAP2 SWAP1 PUSH0 MSTORE PUSH1 0x20 PUSH0 KECCAK256 SWAP1 JUMPDEST DUP2 SLOAD DUP2 MSTORE SWAP1 PUSH1 0x1 ADD SWAP1 PUSH1 0x20 ADD DUP1 DUP4 GT PUSH2 0x2BE JUMPI DUP3 SWAP1 SUB PUSH1 0x1F AND DUP3 ADD SWAP2 JUMPDEST POP POP POP POP POP SWAP1 POP SWAP2 SWAP1 POP JUMP JUMPDEST PUSH1 0x1 SLOAD DUP2 JUMP JUMPDEST PUSH0 DUP2 SWAP1 POP SWAP2 SWAP1 POP JUMP JUMPDEST PUSH2 0x2FF DUP2 PUSH2 0x2ED JUMP JUMPDEST DUP3 MSTORE POP POP JUMP JUMPDEST PUSH0 PUSH1 0x20 DUP3 ADD SWAP1 POP PUSH2 0x318 PUSH0 DUP4 ADD DUP5 PUSH2 0x2F6 JUMP JUMPDEST SWAP3 SWAP2 POP POP JUMP JUMPDEST PUSH0 DUP1 REVERT JUMPDEST PUSH0 DUP1 REVERT JUMPDEST PUSH0 PUSH20 0xFFFFFFFFFFFFFFFFFFFFFFFFFFFFFFFFFFFFFFFF DUP3 AND SWAP1 POP SWAP2 SWAP1 POP JUMP JUMPDEST PUSH0 PUSH2 0x34F DUP3 PUSH2 0x326 JUMP JUMPDEST SWAP1 POP SWAP2 SWAP1 POP JUMP JUMPDEST PUSH2 0x35F DUP2 PUSH2 0x345 JUMP JUMPDEST DUP2 EQ PUSH2 0x369 JUMPI PUSH0 DUP1 REVERT JUMPDEST POP JUMP JUMPDEST PUSH0 DUP2 CALLDATALOAD SWAP1 POP PUSH2 0x37A DUP2 PUSH2 0x356 JUMP JUMPDEST SWAP3 SWAP2 POP POP JUMP JUMPDEST PUSH0 DUP1 REVERT JUMPDEST PUSH0 DUP1 REVERT JUMPDEST PUSH0 DUP1 REVERT JUMPDEST PUSH0 DUP1 DUP4 PUSH1 0x1F DUP5 ADD SLT PUSH2 0x3A1 JUMPI PUSH2 0x3A0 PUSH2 0x380 JUMP JUMPDEST JUMPDEST DUP3 CALLDATALOAD SWAP1 POP PUSH8 0xFFFFFFFFFFFFFFFF DUP2 GT ISZERO PUSH2 0x3BE JUMPI PUSH2 0x3BD PUSH2 0x384 JUMP JUMPDEST JUMPDEST PUSH1 0x20 DUP4 ADD SWAP2 POP DUP4 PUSH1 0x1 DUP3 MUL DUP4 ADD GT ISZERO PUSH2 0x3DA JUMPI PUSH2 0x3D9 PUSH2 0x388 JUMP JUMPDEST JUMPDEST SWAP3 POP SWAP3 SWAP1 POP JUMP JUMPDEST PUSH0 DUP1 PUSH0 PUSH1 0x40 DUP5 DUP7 SUB SLT ISZERO PUSH2 0x3F8 JUMPI PUSH2 0x3F7 PUSH2 0x31E JUMP JUMPDEST JUMPDEST PUSH0 PUSH2 0x405 DUP7 DUP3 DUP8 ADD PUSH2 0x36C JUMP JUMPDEST SWAP4 POP POP PUSH1 0x20 DUP5 ADD CALLDATALOAD PUSH8 0xFFFFFFFFFFFFFFFF DUP2 GT ISZERO PUSH2 0x426 JUMPI PUSH2 0x425 PUSH2 0x322 JUMP JUMPDEST JUMPDEST PUSH2 0x432 DUP7 DUP3 DUP8 ADD PUSH2 0x38C JUMP JUMPDEST SWAP3 POP SWAP3 POP POP SWAP3 POP SWAP3 POP SWAP3 JUMP JUMPDEST PUSH0 PUSH1 0x20 DUP3 DUP5 SUB SLT ISZERO PUSH2 0x453 JUMPI PUSH2 0x452 PUSH2 0x31E JUMP JUMPDEST JUMPDEST PUSH0 PUSH2 0x460 DUP5 DUP3 DUP6 ADD PUSH2 0x36C JUMP JUMPDEST SWAP2 POP POP SWAP3 SWAP2 POP POP JUMP JUMPDEST PUSH0 DUP2 MLOAD SWAP1 POP SWAP2 SWAP1 POP JUMP JUMPDEST PUSH0 DUP3 DUP3 MSTORE PUSH1 0x20 DUP3 ADD SWAP1 POP SWAP3 SWAP2 POP POP JUMP JUMPDEST DUP3 DUP2 DUP4 MCOPY PUSH0 DUP4 DUP4 ADD MSTORE POP POP POP JUMP JUMPDEST PUSH0 PUSH1 0x1F NOT PUSH1 0x1F DUP4 ADD AND SWAP1 POP SWAP2 SWAP1 POP JUMP JUMPDEST PUSH0 PUSH2 0x4AB DUP3 PUSH2 0x469 JUMP JUMPDEST PUSH2 0x4B5 DUP2 DUP6 PUSH2 0x473 JUMP JUMPDEST SWAP4 POP PUSH2 0x4C5 DUP2 DUP6 PUSH1 0x20 DUP7 ADD PUSH2 0x483 JUMP JUMPDEST PUSH2 0x4CE DUP2 PUSH2 0x491 JUMP JUMPDEST DUP5 ADD SWAP2 POP POP SWAP3 SWAP2 POP POP JUMP JUMPDEST PUSH0 PUSH1 0x40 DUP3 ADD SWAP1 POP PUSH2 0x4EC PUSH0 DUP4 ADD DUP6 PUSH2 0x2F6 JUMP JUMPDEST DUP2 DUP2 SUB PUSH1 0x20 DUP4 ADD MSTORE PUSH2 0x4FE DUP2 DUP5 PUSH2 0x4A1 JUMP JUMPDEST SWAP1 POP SWAP4 SWAP3 POP POP POP JUMP JUMPDEST PUSH0 PUSH1 0x20 DUP3 ADD SWAP1 POP DUP2 DUP2 SUB PUSH0 DUP4 ADD MSTORE PUSH2 0x51F DUP2 DUP5 PUSH2 0x4A1 JUMP JUMPDEST SWAP1 POP SWAP3 SWAP2 POP POP JUMP JUMPDEST PUSH0 DUP3 SWAP1 POP SWAP3 SWAP2 POP POP JUMP JUMPDEST PUSH32 0x4E487B7100000000000000000000000000000000000000000000000000000000 PUSH0 MSTORE PUSH1 0x41 PUSH1 0x4 MSTORE PUSH1 0x24 PUSH0 REVERT JUMPDEST PUSH32 0x4E487B7100000000000000000000000000000000000000000000000000000000 PUSH0 MSTORE PUSH1 0x22 PUSH1 0x4 MSTORE PUSH1 0x24 PUSH0 REVERT JUMPDEST PUSH0 PUSH1 0x2 DUP3 DIV SWAP1 POP PUSH1 0x1 DUP3 AND DUP1 PUSH2 0x5A2 JUMPI PUSH1 0x7F DUP3 AND SWAP2 POP JUMPDEST PUSH1 0x20 DUP3 LT DUP2 SUB PUSH2 0x5B5 JUMPI PUSH2 0x5B4 PUSH2 0x55E JUMP JUMPDEST JUMPDEST POP SWAP2 SWAP1 POP JUMP JUMPDEST PUSH0 DUP2 SWAP1 POP DUP2 PUSH0 MSTORE PUSH1 0x20 PUSH0 KECCAK256 SWAP1 POP SWAP2 SWAP1 POP JUMP JUMPDEST PUSH0 PUSH1 0x20 PUSH1 0x1F DUP4 ADD DIV SWAP1 POP SWAP2 SWAP1 POP JUMP JUMPDEST PUSH0 DUP3 DUP3 SHL SWAP1 POP SWAP3 SWAP2 POP POP JUMP JUMPDEST PUSH0 PUSH1 0x8 DUP4 MUL PUSH2 0x617 PUSH32 0xFFFFFFFFFFFFFFFFFFFFFFFFFFFFFFFFFFFFFFFFFFFFFFFFFFFFFFFFFFFFFFFF DUP3 PUSH2 0x5DC JUMP JUMPDEST PUSH2 0x621 DUP7 DUP4 PUSH2 0x5DC JUMP JUMPDEST SWAP6 POP DUP1 NOT DUP5 AND SWAP4 POP DUP1 DUP7 AND DUP5 OR SWAP3 POP POP POP SWAP4 SWAP3 POP POP POP JUMP JUMPDEST PUSH0 DUP2 SWAP1 POP SWAP2 SWAP1 POP JUMP JUMPDEST PUSH0 PUSH2 0x65C PUSH2 0x657 PUSH2 0x652 DUP5 PUSH2 0x2ED JUMP JUMPDEST PUSH2 0x639 JUMP JUMPDEST PUSH2 0x2ED JUMP JUMPDEST SWAP1 POP SWAP2 SWAP1 POP JUMP JUMPDEST PUSH0 DUP2 SWAP1 POP SWAP2 SWAP1 POP JUMP JUMPDEST PUSH2 0x675 DUP4 PUSH2 0x642 JUMP JUMPDEST PUSH2 0x689 PUSH2 0x681 DUP3 PUSH2 0x663 JUMP JUMPDEST DUP5 DUP5 SLOAD PUSH2 0x5E8 JUMP JUMPDEST DUP3 SSTORE POP POP POP POP JUMP JUMPDEST PUSH0 SWAP1 JUMP JUMPDEST PUSH2 0x69D PUSH2 0x691 JUMP JUMPDEST PUSH2 0x6A8 DUP2 DUP5 DUP5 PUSH2 0x66C JUMP JUMPDEST POP POP POP JUMP JUMPDEST JUMPDEST DUP2 DUP2 LT ISZERO PUSH2 0x6CB JUMPI PUSH2 0x6C0 PUSH0 DUP3 PUSH2 0x695 JUMP JUMPDEST PUSH1 0x1 DUP2 ADD SWAP1 POP PUSH2 0x6AE JUMP JUMPDEST POP POP JUMP JUMPDEST PUSH1 0x1F DUP3 GT ISZERO PUSH2 0x710 JUMPI PUSH2 0x6E1 DUP2 PUSH2 0x5BB JUMP JUMPDEST PUSH2 0x6EA DUP5 PUSH2 0x5CD JUMP JUMPDEST DUP2 ADD PUSH1 0x20 DUP6 LT ISZERO PUSH2 0x6F9 JUMPI DUP2 SWAP1 POP JUMPDEST PUSH2 0x70D PUSH2 0x705 DUP6 PUSH2 0x5CD JUMP JUMPDEST DUP4 ADD DUP3 PUSH2 0x6AD JUMP JUMPDEST POP POP JUMPDEST POP POP POP JUMP JUMPDEST PUSH0 DUP3 DUP3 SHR SWAP1 POP SWAP3 SWAP2 POP POP JUMP JUMPDEST PUSH0 PUSH2 0x730 PUSH0 NOT DUP5 PUSH1 0x8 MUL PUSH2 0x715 JUMP JUMPDEST NOT DUP1 DUP4 AND SWAP2 POP POP SWAP3 SWAP2 POP POP JUMP JUMPDEST PUSH0 PUSH2 0x748 DUP4 DUP4 PUSH2 0x721 JUMP JUMPDEST SWAP2 POP DUP3 PUSH1 0x2 MUL DUP3 OR SWAP1 POP SWAP3 SWAP2 POP POP JUMP JUMPDEST PUSH2 0x762 DUP4 DUP4 PUSH2 0x527 JUMP JUMPDEST PUSH8 0xFFFFFFFFFFFFFFFF DUP2 GT ISZERO PUSH2 0x77B JUMPI PUSH2 0x77A PUSH2 0x531 JUMP JUMPDEST JUMPDEST PUSH2 0x785 DUP3 SLOAD PUSH2 0x58B JUMP JUMPDEST PUSH2 0x790 DUP3 DUP3 DUP6 PUSH2 0x6CF JUMP JUMPDEST PUSH0 PUSH1 0x1F DUP4 GT PUSH1 0x1 DUP2 EQ PUSH2 0x7BD JUMPI PUSH0 DUP5 ISZERO PUSH2 0x7AB JUMPI DUP3 DUP8 ADD CALLDATALOAD SWAP1 POP JUMPDEST PUSH2 0x7B5 DUP6 DUP3 PUSH2 0x73D JUMP JUMPDEST DUP7 SSTORE POP PUSH2 0x81C JUMP JUMPDEST PUSH1 0x1F NOT DUP5 AND PUSH2 0x7CB DUP7 PUSH2 0x5BB JUMP JUMPDEST PUSH0 JUMPDEST DUP3 DUP2 LT ISZERO PUSH2 0x7F2 JUMPI DUP5 DUP10 ADD CALLDATALOAD DUP3 SSTORE PUSH1 0x1 DUP3 ADD SWAP2 POP PUSH1 0x20 DUP6 ADD SWAP5 POP PUSH1 0x20 DUP2 ADD SWAP1 POP PUSH2 0x7CD JUMP JUMPDEST DUP7 DUP4 LT ISZERO PUSH2 0x80F JUMPI DUP5 DUP10 ADD CALLDATALOAD PUSH2 0x80B PUSH1 0x1F DUP10 AND DUP3 PUSH2 0x721 JUMP JUMPDEST DUP4 SSTORE POP JUMPDEST PUSH1 0x1 PUSH1 0x2 DUP9 MUL ADD DUP9 SSTORE POP POP POP JUMPDEST POP POP POP POP POP POP POP JUMP INVALID LOG2 PUSH5 0x6970667358 0x22 SLT KECCAK256 AND SWAP16 RETURNDATACOPY 0xC6 0xAD 0x1F SWAP16 SDIV 0xB0 0xCD SWAP15 0xCB 0xC9 0xD9 CREATE 0xCB BALANCE SWAP14 MSIZE 0x4B 0xEB STOP 0xE TLOAD CALLVALUE 0xDE PUSH15 0x3FF1F40CA864736F6C634300081A00 CALLER "
				},
				"gasEstimates": {
					"creation": {
						"codeDepositCost": "427800",
						"executionCost": "459",
						"totalCost": "428259"
					},
					"external": {
						"arr()": "2491",
						"get(address)": "infinite",
						"myStructs(address)": "infinite",
						"set(address,string)": "infinite",
						"x()": "2402"
					}
				},
				"methodIdentifiers": {
					"arr()": "e81d53cf",
					"get(address)": "c2bc2efc",
					"myStructs(address)": "b43c5d33",
					"set(address,string)": "5a82d100",
					"x()": "0c55699c"
				}
			},
			"storageLayout": {
				"storage": [
					{
						"astId": 3,
						"contract": "proxy-ca-study/datalocation.sol:DataLocations",
						"label": "x",
						"offset": 0,
						"slot": "0",
						"type": "t_uint256"
					},
					{
						"astId": 5,
						"contract": "proxy-ca-study/datalocation.sol:DataLocations",
						"label": "arr",
						"offset": 0,
						"slot": "1",
						"type": "t_uint256"
					},
					{
						"astId": 15,
						"contract": "proxy-ca-study/datalocation.sol:DataLocations",
						"label": "myStructs",
						"offset": 0,
						"slot": "2",
						"type": "t_mapping(t_address,t_struct(MyStruct)10_storage)"
					}
				],
				"types": {
					"t_address": {
						"encoding": "inplace",
						"label": "address",
						"numberOfBytes": "20"
					},
					"t_mapping(t_address,t_struct(MyStruct)10_storage)": {
						"encoding": "mapping",
						"key": "t_address",
						"label": "mapping(address => struct DataLocations.MyStruct)",
						"numberOfBytes": "32",
						"value": "t_struct(MyStruct)10_storage"
					},
					"t_string_storage": {
						"encoding": "bytes",
						"label": "string",
						"numberOfBytes": "32"
					},
					"t_struct(MyStruct)10_storage": {
						"encoding": "inplace",
						"label": "struct DataLocations.MyStruct",
						"members": [
							{
								"astId": 7,
								"contract": "proxy-ca-study/datalocation.sol:DataLocations",
								"label": "foo",
								"offset": 0,
								"slot": "0",
								"type": "t_uint256"
							},
							{
								"astId": 9,
								"contract": "proxy-ca-study/datalocation.sol:DataLocations",
								"label": "text",
								"offset": 0,
								"slot": "1",
								"type": "t_string_storage"
							}
						],
						"numberOfBytes": "64"
					},
					"t_uint256": {
						"encoding": "inplace",
						"label": "uint256",
						"numberOfBytes": "32"
					}
				}
			},
			"userdoc": {
				"kind": "user",
				"methods": {},
				"version": 1
			}
		}
	}
}