{
	"data": {
		"bytecode": {
			"linkReferences": {},
			"object": "6080604052348015600e575f80fd5b506101148061001c5f395ff3fe6080604052348015600e575f80fd5b50600436106026575f3560e01c8063abaa991614602a575b5f80fd5b60306032565b005b6002805490505f146041575f80fd5b600c60025f81548110605457605360b1565b5b905f5260205f200181905550602a6002600181548110607457607360b1565b5b905f5260205f200181905550606460035f8081526020019081526020015f208190555060c860035f600181526020019081526020015f2081905550565b7f4e487b71000000000000000000000000000000000000000000000000000000005f52603260045260245ffdfea2646970667358221220008e11bf86b905906ed352cab79e6b7f78e1616f87dc75371927ad2b0a982ee664736f6c634300081a0033",
			"opcodes": "PUSH1 0x80 PUSH1 0x40 MSTORE CALLVALUE DUP1 ISZERO PUSH1 0xE JUMPI PUSH0 DUP1 REVERT JUMPDEST POP PUSH2 0x114 DUP1 PUSH2 0x1C PUSH0 CODECOPY PUSH0 RETURN INVALID PUSH1 0x80 PUSH1 0x40 MSTORE CALLVALUE DUP1 ISZERO PUSH1 0xE JUMPI PUSH0 DUP1 REVERT JUMPDEST POP PUSH1 0x4 CALLDATASIZE LT PUSH1 0x26 JUMPI PUSH0 CALLDATALOAD PUSH1 0xE0 SHR DUP1 PUSH4 0xABAA9916 EQ PUSH1 0x2A JUMPI JUMPDEST PUSH0 DUP1 REVERT JUMPDEST PUSH1 0x30 PUSH1 0x32 JUMP JUMPDEST STOP JUMPDEST PUSH1 0x2 DUP1 SLOAD SWAP1 POP PUSH0 EQ PUSH1 0x41 JUMPI PUSH0 DUP1 REVERT JUMPDEST PUSH1 0xC PUSH1 0x2 PUSH0 DUP2 SLOAD DUP2 LT PUSH1 0x54 JUMPI PUSH1 0x53 PUSH1 0xB1 JUMP JUMPDEST JUMPDEST SWAP1 PUSH0 MSTORE PUSH1 0x20 PUSH0 KECCAK256 ADD DUP2 SWAP1 SSTORE POP PUSH1 0x2A PUSH1 0x2 PUSH1 0x1 DUP2 SLOAD DUP2 LT PUSH1 0x74 JUMPI PUSH1 0x73 PUSH1 0xB1 JUMP JUMPDEST JUMPDEST SWAP1 PUSH0 MSTORE PUSH1 0x20 PUSH0 KECCAK256 ADD DUP2 SWAP1 SSTORE POP PUSH1 0x64 PUSH1 0x3 PUSH0 DUP1 DUP2 MSTORE PUSH1 0x20 ADD SWAP1 DUP2 MSTORE PUSH1 0x20 ADD PUSH0 KECCAK256 DUP2 SWAP1 SSTORE POP PUSH1 0xC8 PUSH1 0x3 PUSH0 PUSH1 0x1 DUP2 MSTORE PUSH1 0x20 ADD SWAP1 DUP2 MSTORE PUSH1 0x20 ADD PUSH0 KECCAK256 DUP2 SWAP1 SSTORE POP JUMP JUMPDEST PUSH32 0x4E487B7100000000000000000000000000000000000000000000000000000000 PUSH0 MSTORE PUSH1 0x32 PUSH1 0x4 MSTORE PUSH1 0x24 PUSH0 REVERT INVALID LOG2 PUSH5 0x6970667358 0x22 SLT KECCAK256 STOP DUP15 GT 0xBF DUP7 0xB9 SDIV SWAP1 PUSH15 0xD352CAB79E6B7F78E1616F87DC7537 NOT 0x27 0xAD 0x2B EXP SWAP9 0x2E 0xE6 PUSH5 0x736F6C6343 STOP ADDMOD BYTE STOP CALLER "
		},
		"gasEstimates": {
			"creation": {
				"codeDepositCost": "55200",
				"executionCost": "103",
				"totalCost": "55303"
			},
			"external": {
				"allocate()": "95214"
			}
		},
		"methodIdentifiers": {
			"allocate()": "abaa9916"
		}
	},
	"abi": [
		{
			"inputs": [],
			"name": "allocate",
			"outputs": [],
			"stateMutability": "nonpayable",
			"type": "function"
		}
	]
}